
abg_timers_PWM_LEDBuzzer.elf:     file format elf32-littlearm

Sections:
Idx Name          Size      VMA       LMA       File off  Algn
  0 .isr_vector   00000198  08000000  08000000  00010000  2**0
                  CONTENTS, ALLOC, LOAD, READONLY, DATA
  1 .text         000024cc  08000198  08000198  00010198  2**2
                  CONTENTS, ALLOC, LOAD, READONLY, CODE
  2 .rodata       00000010  08002664  08002664  00012664  2**2
                  CONTENTS, ALLOC, LOAD, READONLY, DATA
  3 .ARM.extab    00000000  08002674  08002674  0002000c  2**0
                  CONTENTS
  4 .ARM          00000008  08002674  08002674  00012674  2**2
                  CONTENTS, ALLOC, LOAD, READONLY, DATA
  5 .preinit_array 00000000  0800267c  0800267c  0002000c  2**0
                  CONTENTS, ALLOC, LOAD, DATA
  6 .init_array   00000004  0800267c  0800267c  0001267c  2**2
                  CONTENTS, ALLOC, LOAD, DATA
  7 .fini_array   00000004  08002680  08002680  00012680  2**2
                  CONTENTS, ALLOC, LOAD, DATA
  8 .data         0000000c  20000000  08002684  00020000  2**2
                  CONTENTS, ALLOC, LOAD, DATA
  9 .bss          000000b0  2000000c  08002690  0002000c  2**2
                  ALLOC
 10 ._user_heap_stack 00000604  200000bc  08002690  000200bc  2**0
                  ALLOC
 11 .ARM.attributes 00000030  00000000  00000000  0002000c  2**0
                  CONTENTS, READONLY
 12 .debug_info   00008cc5  00000000  00000000  0002003c  2**0
                  CONTENTS, READONLY, DEBUGGING, OCTETS
 13 .debug_abbrev 000014cc  00000000  00000000  00028d01  2**0
                  CONTENTS, READONLY, DEBUGGING, OCTETS
 14 .debug_aranges 00000950  00000000  00000000  0002a1d0  2**3
                  CONTENTS, READONLY, DEBUGGING, OCTETS
 15 .debug_ranges 000008a8  00000000  00000000  0002ab20  2**3
                  CONTENTS, READONLY, DEBUGGING, OCTETS
 16 .debug_macro  00015060  00000000  00000000  0002b3c8  2**0
                  CONTENTS, READONLY, DEBUGGING, OCTETS
 17 .debug_line   00009c12  00000000  00000000  00040428  2**0
                  CONTENTS, READONLY, DEBUGGING, OCTETS
 18 .debug_str    00087700  00000000  00000000  0004a03a  2**0
                  CONTENTS, READONLY, DEBUGGING, OCTETS
 19 .comment      00000053  00000000  00000000  000d173a  2**0
                  CONTENTS, READONLY
 20 .debug_frame  000026cc  00000000  00000000  000d1790  2**2
                  CONTENTS, READONLY, DEBUGGING, OCTETS

Disassembly of section .text:

08000198 <__do_global_dtors_aux>:
 8000198:	b510      	push	{r4, lr}
 800019a:	4c05      	ldr	r4, [pc, #20]	; (80001b0 <__do_global_dtors_aux+0x18>)
 800019c:	7823      	ldrb	r3, [r4, #0]
 800019e:	b933      	cbnz	r3, 80001ae <__do_global_dtors_aux+0x16>
 80001a0:	4b04      	ldr	r3, [pc, #16]	; (80001b4 <__do_global_dtors_aux+0x1c>)
 80001a2:	b113      	cbz	r3, 80001aa <__do_global_dtors_aux+0x12>
 80001a4:	4804      	ldr	r0, [pc, #16]	; (80001b8 <__do_global_dtors_aux+0x20>)
 80001a6:	f3af 8000 	nop.w
 80001aa:	2301      	movs	r3, #1
 80001ac:	7023      	strb	r3, [r4, #0]
 80001ae:	bd10      	pop	{r4, pc}
 80001b0:	2000000c 	.word	0x2000000c
 80001b4:	00000000 	.word	0x00000000
 80001b8:	0800264c 	.word	0x0800264c

080001bc <frame_dummy>:
 80001bc:	b508      	push	{r3, lr}
 80001be:	4b03      	ldr	r3, [pc, #12]	; (80001cc <frame_dummy+0x10>)
 80001c0:	b11b      	cbz	r3, 80001ca <frame_dummy+0xe>
 80001c2:	4903      	ldr	r1, [pc, #12]	; (80001d0 <frame_dummy+0x14>)
 80001c4:	4803      	ldr	r0, [pc, #12]	; (80001d4 <frame_dummy+0x18>)
 80001c6:	f3af 8000 	nop.w
 80001ca:	bd08      	pop	{r3, pc}
 80001cc:	00000000 	.word	0x00000000
 80001d0:	20000010 	.word	0x20000010
 80001d4:	0800264c 	.word	0x0800264c

080001d8 <__aeabi_uldivmod>:
 80001d8:	b953      	cbnz	r3, 80001f0 <__aeabi_uldivmod+0x18>
 80001da:	b94a      	cbnz	r2, 80001f0 <__aeabi_uldivmod+0x18>
 80001dc:	2900      	cmp	r1, #0
 80001de:	bf08      	it	eq
 80001e0:	2800      	cmpeq	r0, #0
 80001e2:	bf1c      	itt	ne
 80001e4:	f04f 31ff 	movne.w	r1, #4294967295	; 0xffffffff
 80001e8:	f04f 30ff 	movne.w	r0, #4294967295	; 0xffffffff
 80001ec:	f000 b96e 	b.w	80004cc <__aeabi_idiv0>
 80001f0:	f1ad 0c08 	sub.w	ip, sp, #8
 80001f4:	e96d ce04 	strd	ip, lr, [sp, #-16]!
 80001f8:	f000 f806 	bl	8000208 <__udivmoddi4>
 80001fc:	f8dd e004 	ldr.w	lr, [sp, #4]
 8000200:	e9dd 2302 	ldrd	r2, r3, [sp, #8]
 8000204:	b004      	add	sp, #16
 8000206:	4770      	bx	lr

08000208 <__udivmoddi4>:
 8000208:	e92d 47f0 	stmdb	sp!, {r4, r5, r6, r7, r8, r9, sl, lr}
 800020c:	9d08      	ldr	r5, [sp, #32]
 800020e:	4604      	mov	r4, r0
 8000210:	468c      	mov	ip, r1
 8000212:	2b00      	cmp	r3, #0
 8000214:	f040 8083 	bne.w	800031e <__udivmoddi4+0x116>
 8000218:	428a      	cmp	r2, r1
 800021a:	4617      	mov	r7, r2
 800021c:	d947      	bls.n	80002ae <__udivmoddi4+0xa6>
 800021e:	fab2 f282 	clz	r2, r2
 8000222:	b142      	cbz	r2, 8000236 <__udivmoddi4+0x2e>
 8000224:	f1c2 0020 	rsb	r0, r2, #32
 8000228:	fa24 f000 	lsr.w	r0, r4, r0
 800022c:	4091      	lsls	r1, r2
 800022e:	4097      	lsls	r7, r2
 8000230:	ea40 0c01 	orr.w	ip, r0, r1
 8000234:	4094      	lsls	r4, r2
 8000236:	ea4f 4817 	mov.w	r8, r7, lsr #16
 800023a:	0c23      	lsrs	r3, r4, #16
 800023c:	fbbc f6f8 	udiv	r6, ip, r8
 8000240:	fa1f fe87 	uxth.w	lr, r7
 8000244:	fb08 c116 	mls	r1, r8, r6, ip
 8000248:	ea43 4301 	orr.w	r3, r3, r1, lsl #16
 800024c:	fb06 f10e 	mul.w	r1, r6, lr
 8000250:	4299      	cmp	r1, r3
 8000252:	d909      	bls.n	8000268 <__udivmoddi4+0x60>
 8000254:	18fb      	adds	r3, r7, r3
 8000256:	f106 30ff 	add.w	r0, r6, #4294967295	; 0xffffffff
 800025a:	f080 8119 	bcs.w	8000490 <__udivmoddi4+0x288>
 800025e:	4299      	cmp	r1, r3
 8000260:	f240 8116 	bls.w	8000490 <__udivmoddi4+0x288>
 8000264:	3e02      	subs	r6, #2
 8000266:	443b      	add	r3, r7
 8000268:	1a5b      	subs	r3, r3, r1
 800026a:	b2a4      	uxth	r4, r4
 800026c:	fbb3 f0f8 	udiv	r0, r3, r8
 8000270:	fb08 3310 	mls	r3, r8, r0, r3
 8000274:	ea44 4403 	orr.w	r4, r4, r3, lsl #16
 8000278:	fb00 fe0e 	mul.w	lr, r0, lr
 800027c:	45a6      	cmp	lr, r4
 800027e:	d909      	bls.n	8000294 <__udivmoddi4+0x8c>
 8000280:	193c      	adds	r4, r7, r4
 8000282:	f100 33ff 	add.w	r3, r0, #4294967295	; 0xffffffff
 8000286:	f080 8105 	bcs.w	8000494 <__udivmoddi4+0x28c>
 800028a:	45a6      	cmp	lr, r4
 800028c:	f240 8102 	bls.w	8000494 <__udivmoddi4+0x28c>
 8000290:	3802      	subs	r0, #2
 8000292:	443c      	add	r4, r7
 8000294:	ea40 4006 	orr.w	r0, r0, r6, lsl #16
 8000298:	eba4 040e 	sub.w	r4, r4, lr
 800029c:	2600      	movs	r6, #0
 800029e:	b11d      	cbz	r5, 80002a8 <__udivmoddi4+0xa0>
 80002a0:	40d4      	lsrs	r4, r2
 80002a2:	2300      	movs	r3, #0
 80002a4:	e9c5 4300 	strd	r4, r3, [r5]
 80002a8:	4631      	mov	r1, r6
 80002aa:	e8bd 87f0 	ldmia.w	sp!, {r4, r5, r6, r7, r8, r9, sl, pc}
 80002ae:	b902      	cbnz	r2, 80002b2 <__udivmoddi4+0xaa>
 80002b0:	deff      	udf	#255	; 0xff
 80002b2:	fab2 f282 	clz	r2, r2
 80002b6:	2a00      	cmp	r2, #0
 80002b8:	d150      	bne.n	800035c <__udivmoddi4+0x154>
 80002ba:	1bcb      	subs	r3, r1, r7
 80002bc:	ea4f 4e17 	mov.w	lr, r7, lsr #16
 80002c0:	fa1f f887 	uxth.w	r8, r7
 80002c4:	2601      	movs	r6, #1
 80002c6:	fbb3 fcfe 	udiv	ip, r3, lr
 80002ca:	0c21      	lsrs	r1, r4, #16
 80002cc:	fb0e 331c 	mls	r3, lr, ip, r3
 80002d0:	ea41 4103 	orr.w	r1, r1, r3, lsl #16
 80002d4:	fb08 f30c 	mul.w	r3, r8, ip
 80002d8:	428b      	cmp	r3, r1
 80002da:	d907      	bls.n	80002ec <__udivmoddi4+0xe4>
 80002dc:	1879      	adds	r1, r7, r1
 80002de:	f10c 30ff 	add.w	r0, ip, #4294967295	; 0xffffffff
 80002e2:	d202      	bcs.n	80002ea <__udivmoddi4+0xe2>
 80002e4:	428b      	cmp	r3, r1
 80002e6:	f200 80e9 	bhi.w	80004bc <__udivmoddi4+0x2b4>
 80002ea:	4684      	mov	ip, r0
 80002ec:	1ac9      	subs	r1, r1, r3
 80002ee:	b2a3      	uxth	r3, r4
 80002f0:	fbb1 f0fe 	udiv	r0, r1, lr
 80002f4:	fb0e 1110 	mls	r1, lr, r0, r1
 80002f8:	ea43 4401 	orr.w	r4, r3, r1, lsl #16
 80002fc:	fb08 f800 	mul.w	r8, r8, r0
 8000300:	45a0      	cmp	r8, r4
 8000302:	d907      	bls.n	8000314 <__udivmoddi4+0x10c>
 8000304:	193c      	adds	r4, r7, r4
 8000306:	f100 33ff 	add.w	r3, r0, #4294967295	; 0xffffffff
 800030a:	d202      	bcs.n	8000312 <__udivmoddi4+0x10a>
 800030c:	45a0      	cmp	r8, r4
 800030e:	f200 80d9 	bhi.w	80004c4 <__udivmoddi4+0x2bc>
 8000312:	4618      	mov	r0, r3
 8000314:	eba4 0408 	sub.w	r4, r4, r8
 8000318:	ea40 400c 	orr.w	r0, r0, ip, lsl #16
 800031c:	e7bf      	b.n	800029e <__udivmoddi4+0x96>
 800031e:	428b      	cmp	r3, r1
 8000320:	d909      	bls.n	8000336 <__udivmoddi4+0x12e>
 8000322:	2d00      	cmp	r5, #0
 8000324:	f000 80b1 	beq.w	800048a <__udivmoddi4+0x282>
 8000328:	2600      	movs	r6, #0
 800032a:	e9c5 0100 	strd	r0, r1, [r5]
 800032e:	4630      	mov	r0, r6
 8000330:	4631      	mov	r1, r6
 8000332:	e8bd 87f0 	ldmia.w	sp!, {r4, r5, r6, r7, r8, r9, sl, pc}
 8000336:	fab3 f683 	clz	r6, r3
 800033a:	2e00      	cmp	r6, #0
 800033c:	d14a      	bne.n	80003d4 <__udivmoddi4+0x1cc>
 800033e:	428b      	cmp	r3, r1
 8000340:	d302      	bcc.n	8000348 <__udivmoddi4+0x140>
 8000342:	4282      	cmp	r2, r0
 8000344:	f200 80b8 	bhi.w	80004b8 <__udivmoddi4+0x2b0>
 8000348:	1a84      	subs	r4, r0, r2
 800034a:	eb61 0103 	sbc.w	r1, r1, r3
 800034e:	2001      	movs	r0, #1
 8000350:	468c      	mov	ip, r1
 8000352:	2d00      	cmp	r5, #0
 8000354:	d0a8      	beq.n	80002a8 <__udivmoddi4+0xa0>
 8000356:	e9c5 4c00 	strd	r4, ip, [r5]
 800035a:	e7a5      	b.n	80002a8 <__udivmoddi4+0xa0>
 800035c:	f1c2 0320 	rsb	r3, r2, #32
 8000360:	fa20 f603 	lsr.w	r6, r0, r3
 8000364:	4097      	lsls	r7, r2
 8000366:	fa01 f002 	lsl.w	r0, r1, r2
 800036a:	ea4f 4e17 	mov.w	lr, r7, lsr #16
 800036e:	40d9      	lsrs	r1, r3
 8000370:	4330      	orrs	r0, r6
 8000372:	0c03      	lsrs	r3, r0, #16
 8000374:	fbb1 f6fe 	udiv	r6, r1, lr
 8000378:	fa1f f887 	uxth.w	r8, r7
 800037c:	fb0e 1116 	mls	r1, lr, r6, r1
 8000380:	ea43 4301 	orr.w	r3, r3, r1, lsl #16
 8000384:	fb06 f108 	mul.w	r1, r6, r8
 8000388:	4299      	cmp	r1, r3
 800038a:	fa04 f402 	lsl.w	r4, r4, r2
 800038e:	d909      	bls.n	80003a4 <__udivmoddi4+0x19c>
 8000390:	18fb      	adds	r3, r7, r3
 8000392:	f106 3cff 	add.w	ip, r6, #4294967295	; 0xffffffff
 8000396:	f080 808d 	bcs.w	80004b4 <__udivmoddi4+0x2ac>
 800039a:	4299      	cmp	r1, r3
 800039c:	f240 808a 	bls.w	80004b4 <__udivmoddi4+0x2ac>
 80003a0:	3e02      	subs	r6, #2
 80003a2:	443b      	add	r3, r7
 80003a4:	1a5b      	subs	r3, r3, r1
 80003a6:	b281      	uxth	r1, r0
 80003a8:	fbb3 f0fe 	udiv	r0, r3, lr
 80003ac:	fb0e 3310 	mls	r3, lr, r0, r3
 80003b0:	ea41 4103 	orr.w	r1, r1, r3, lsl #16
 80003b4:	fb00 f308 	mul.w	r3, r0, r8
 80003b8:	428b      	cmp	r3, r1
 80003ba:	d907      	bls.n	80003cc <__udivmoddi4+0x1c4>
 80003bc:	1879      	adds	r1, r7, r1
 80003be:	f100 3cff 	add.w	ip, r0, #4294967295	; 0xffffffff
 80003c2:	d273      	bcs.n	80004ac <__udivmoddi4+0x2a4>
 80003c4:	428b      	cmp	r3, r1
 80003c6:	d971      	bls.n	80004ac <__udivmoddi4+0x2a4>
 80003c8:	3802      	subs	r0, #2
 80003ca:	4439      	add	r1, r7
 80003cc:	1acb      	subs	r3, r1, r3
 80003ce:	ea40 4606 	orr.w	r6, r0, r6, lsl #16
 80003d2:	e778      	b.n	80002c6 <__udivmoddi4+0xbe>
 80003d4:	f1c6 0c20 	rsb	ip, r6, #32
 80003d8:	fa03 f406 	lsl.w	r4, r3, r6
 80003dc:	fa22 f30c 	lsr.w	r3, r2, ip
 80003e0:	431c      	orrs	r4, r3
 80003e2:	fa20 f70c 	lsr.w	r7, r0, ip
 80003e6:	fa01 f306 	lsl.w	r3, r1, r6
 80003ea:	ea4f 4e14 	mov.w	lr, r4, lsr #16
 80003ee:	fa21 f10c 	lsr.w	r1, r1, ip
 80003f2:	431f      	orrs	r7, r3
 80003f4:	0c3b      	lsrs	r3, r7, #16
 80003f6:	fbb1 f9fe 	udiv	r9, r1, lr
 80003fa:	fa1f f884 	uxth.w	r8, r4
 80003fe:	fb0e 1119 	mls	r1, lr, r9, r1
 8000402:	ea43 4101 	orr.w	r1, r3, r1, lsl #16
 8000406:	fb09 fa08 	mul.w	sl, r9, r8
 800040a:	458a      	cmp	sl, r1
 800040c:	fa02 f206 	lsl.w	r2, r2, r6
 8000410:	fa00 f306 	lsl.w	r3, r0, r6
 8000414:	d908      	bls.n	8000428 <__udivmoddi4+0x220>
 8000416:	1861      	adds	r1, r4, r1
 8000418:	f109 30ff 	add.w	r0, r9, #4294967295	; 0xffffffff
 800041c:	d248      	bcs.n	80004b0 <__udivmoddi4+0x2a8>
 800041e:	458a      	cmp	sl, r1
 8000420:	d946      	bls.n	80004b0 <__udivmoddi4+0x2a8>
 8000422:	f1a9 0902 	sub.w	r9, r9, #2
 8000426:	4421      	add	r1, r4
 8000428:	eba1 010a 	sub.w	r1, r1, sl
 800042c:	b2bf      	uxth	r7, r7
 800042e:	fbb1 f0fe 	udiv	r0, r1, lr
 8000432:	fb0e 1110 	mls	r1, lr, r0, r1
 8000436:	ea47 4701 	orr.w	r7, r7, r1, lsl #16
 800043a:	fb00 f808 	mul.w	r8, r0, r8
 800043e:	45b8      	cmp	r8, r7
 8000440:	d907      	bls.n	8000452 <__udivmoddi4+0x24a>
 8000442:	19e7      	adds	r7, r4, r7
 8000444:	f100 31ff 	add.w	r1, r0, #4294967295	; 0xffffffff
 8000448:	d22e      	bcs.n	80004a8 <__udivmoddi4+0x2a0>
 800044a:	45b8      	cmp	r8, r7
 800044c:	d92c      	bls.n	80004a8 <__udivmoddi4+0x2a0>
 800044e:	3802      	subs	r0, #2
 8000450:	4427      	add	r7, r4
 8000452:	ea40 4009 	orr.w	r0, r0, r9, lsl #16
 8000456:	eba7 0708 	sub.w	r7, r7, r8
 800045a:	fba0 8902 	umull	r8, r9, r0, r2
 800045e:	454f      	cmp	r7, r9
 8000460:	46c6      	mov	lr, r8
 8000462:	4649      	mov	r1, r9
 8000464:	d31a      	bcc.n	800049c <__udivmoddi4+0x294>
 8000466:	d017      	beq.n	8000498 <__udivmoddi4+0x290>
 8000468:	b15d      	cbz	r5, 8000482 <__udivmoddi4+0x27a>
 800046a:	ebb3 020e 	subs.w	r2, r3, lr
 800046e:	eb67 0701 	sbc.w	r7, r7, r1
 8000472:	fa07 fc0c 	lsl.w	ip, r7, ip
 8000476:	40f2      	lsrs	r2, r6
 8000478:	ea4c 0202 	orr.w	r2, ip, r2
 800047c:	40f7      	lsrs	r7, r6
 800047e:	e9c5 2700 	strd	r2, r7, [r5]
 8000482:	2600      	movs	r6, #0
 8000484:	4631      	mov	r1, r6
 8000486:	e8bd 87f0 	ldmia.w	sp!, {r4, r5, r6, r7, r8, r9, sl, pc}
 800048a:	462e      	mov	r6, r5
 800048c:	4628      	mov	r0, r5
 800048e:	e70b      	b.n	80002a8 <__udivmoddi4+0xa0>
 8000490:	4606      	mov	r6, r0
 8000492:	e6e9      	b.n	8000268 <__udivmoddi4+0x60>
 8000494:	4618      	mov	r0, r3
 8000496:	e6fd      	b.n	8000294 <__udivmoddi4+0x8c>
 8000498:	4543      	cmp	r3, r8
 800049a:	d2e5      	bcs.n	8000468 <__udivmoddi4+0x260>
 800049c:	ebb8 0e02 	subs.w	lr, r8, r2
 80004a0:	eb69 0104 	sbc.w	r1, r9, r4
 80004a4:	3801      	subs	r0, #1
 80004a6:	e7df      	b.n	8000468 <__udivmoddi4+0x260>
 80004a8:	4608      	mov	r0, r1
 80004aa:	e7d2      	b.n	8000452 <__udivmoddi4+0x24a>
 80004ac:	4660      	mov	r0, ip
 80004ae:	e78d      	b.n	80003cc <__udivmoddi4+0x1c4>
 80004b0:	4681      	mov	r9, r0
 80004b2:	e7b9      	b.n	8000428 <__udivmoddi4+0x220>
 80004b4:	4666      	mov	r6, ip
 80004b6:	e775      	b.n	80003a4 <__udivmoddi4+0x19c>
 80004b8:	4630      	mov	r0, r6
 80004ba:	e74a      	b.n	8000352 <__udivmoddi4+0x14a>
 80004bc:	f1ac 0c02 	sub.w	ip, ip, #2
 80004c0:	4439      	add	r1, r7
 80004c2:	e713      	b.n	80002ec <__udivmoddi4+0xe4>
 80004c4:	3802      	subs	r0, #2
 80004c6:	443c      	add	r4, r7
 80004c8:	e724      	b.n	8000314 <__udivmoddi4+0x10c>
 80004ca:	bf00      	nop

080004cc <__aeabi_idiv0>:
 80004cc:	4770      	bx	lr
 80004ce:	bf00      	nop

080004d0 <main>:
/**
  * @brief  The application entry point.
  * @retval int
  */
int main(void)
{
 80004d0:	b580      	push	{r7, lr}
 80004d2:	af00      	add	r7, sp, #0
  /* USER CODE END 1 */

  /* MCU Configuration--------------------------------------------------------*/

  /* Reset of all peripherals, Initializes the Flash interface and the Systick. */
  HAL_Init();
 80004d4:	f000 fb0c 	bl	8000af0 <HAL_Init>
  /* USER CODE BEGIN Init */

  /* USER CODE END Init */

  /* Configure the system clock */
  SystemClock_Config();
 80004d8:	f000 f838 	bl	800054c <SystemClock_Config>
  /* USER CODE BEGIN SysInit */

  /* USER CODE END SysInit */

  /* Initialize all configured peripherals */
  MX_GPIO_Init();
 80004dc:	f000 f9aa 	bl	8000834 <MX_GPIO_Init>
  MX_TIM4_Init();
 80004e0:	f000 f932 	bl	8000748 <MX_TIM4_Init>
  MX_TIM1_Init();
 80004e4:	f000 f890 	bl	8000608 <MX_TIM1_Init>
  /* USER CODE BEGIN 2 */
  HAL_TIM_PWM_Start(&htim1, TIM_CHANNEL_1);
 80004e8:	2100      	movs	r1, #0
 80004ea:	4816      	ldr	r0, [pc, #88]	; (8000544 <main+0x74>)
 80004ec:	f001 fabc 	bl	8001a68 <HAL_TIM_PWM_Start>
  HAL_TIM_PWM_Start(&htim4, TIM_CHANNEL_1);   
 80004f0:	2100      	movs	r1, #0
 80004f2:	4815      	ldr	r0, [pc, #84]	; (8000548 <main+0x78>)
 80004f4:	f001 fab8 	bl	8001a68 <HAL_TIM_PWM_Start>
  while (1)
  {
    /* USER CODE END WHILE */

    /* USER CODE BEGIN 3 */
	__HAL_TIM_SET_COMPARE(&htim4, TIM_CHANNEL_1, 10); //sets the PWM duty cycle (Capture Compare Value)
 80004f8:	4b13      	ldr	r3, [pc, #76]	; (8000548 <main+0x78>)
 80004fa:	681b      	ldr	r3, [r3, #0]
 80004fc:	220a      	movs	r2, #10
 80004fe:	635a      	str	r2, [r3, #52]	; 0x34
	__HAL_TIM_SET_COMPARE(&htim1, TIM_CHANNEL_1, 10);
 8000500:	4b10      	ldr	r3, [pc, #64]	; (8000544 <main+0x74>)
 8000502:	681b      	ldr	r3, [r3, #0]
 8000504:	220a      	movs	r2, #10
 8000506:	635a      	str	r2, [r3, #52]	; 0x34
	HAL_Delay(1000);
 8000508:	f44f 707a 	mov.w	r0, #1000	; 0x3e8
 800050c:	f000 fb62 	bl	8000bd4 <HAL_Delay>

	__HAL_TIM_SET_COMPARE(&htim4, TIM_CHANNEL_1, 50); //sets the PWM duty cycle (Capture Compare Value)
 8000510:	4b0d      	ldr	r3, [pc, #52]	; (8000548 <main+0x78>)
 8000512:	681b      	ldr	r3, [r3, #0]
 8000514:	2232      	movs	r2, #50	; 0x32
 8000516:	635a      	str	r2, [r3, #52]	; 0x34
	__HAL_TIM_SET_COMPARE(&htim1, TIM_CHANNEL_1, 50);
 8000518:	4b0a      	ldr	r3, [pc, #40]	; (8000544 <main+0x74>)
 800051a:	681b      	ldr	r3, [r3, #0]
 800051c:	2232      	movs	r2, #50	; 0x32
 800051e:	635a      	str	r2, [r3, #52]	; 0x34
	HAL_Delay(1000);
 8000520:	f44f 707a 	mov.w	r0, #1000	; 0x3e8
 8000524:	f000 fb56 	bl	8000bd4 <HAL_Delay>

	__HAL_TIM_SET_COMPARE(&htim4, TIM_CHANNEL_1, 100); //sets the PWM duty cycle (Capture Compare Value)
 8000528:	4b07      	ldr	r3, [pc, #28]	; (8000548 <main+0x78>)
 800052a:	681b      	ldr	r3, [r3, #0]
 800052c:	2264      	movs	r2, #100	; 0x64
 800052e:	635a      	str	r2, [r3, #52]	; 0x34
	__HAL_TIM_SET_COMPARE(&htim1, TIM_CHANNEL_1, 100);
 8000530:	4b04      	ldr	r3, [pc, #16]	; (8000544 <main+0x74>)
 8000532:	681b      	ldr	r3, [r3, #0]
 8000534:	2264      	movs	r2, #100	; 0x64
 8000536:	635a      	str	r2, [r3, #52]	; 0x34
	HAL_Delay(1000);
 8000538:	f44f 707a 	mov.w	r0, #1000	; 0x3e8
 800053c:	f000 fb4a 	bl	8000bd4 <HAL_Delay>
	__HAL_TIM_SET_COMPARE(&htim4, TIM_CHANNEL_1, 10); //sets the PWM duty cycle (Capture Compare Value)
 8000540:	e7da      	b.n	80004f8 <main+0x28>
 8000542:	bf00      	nop
 8000544:	20000070 	.word	0x20000070
 8000548:	20000028 	.word	0x20000028

0800054c <SystemClock_Config>:
/**
  * @brief System Clock Configuration
  * @retval None
  */
void SystemClock_Config(void)
{
 800054c:	b580      	push	{r7, lr}
 800054e:	b094      	sub	sp, #80	; 0x50
 8000550:	af00      	add	r7, sp, #0
  RCC_OscInitTypeDef RCC_OscInitStruct = {0};
 8000552:	f107 0320 	add.w	r3, r7, #32
 8000556:	2230      	movs	r2, #48	; 0x30
 8000558:	2100      	movs	r1, #0
 800055a:	4618      	mov	r0, r3
 800055c:	f002 f86e 	bl	800263c <memset>
  RCC_ClkInitTypeDef RCC_ClkInitStruct = {0};
 8000560:	f107 030c 	add.w	r3, r7, #12
 8000564:	2200      	movs	r2, #0
 8000566:	601a      	str	r2, [r3, #0]
 8000568:	605a      	str	r2, [r3, #4]
 800056a:	609a      	str	r2, [r3, #8]
 800056c:	60da      	str	r2, [r3, #12]
 800056e:	611a      	str	r2, [r3, #16]

  /** Configure the main internal regulator output voltage
  */
  __HAL_RCC_PWR_CLK_ENABLE();
 8000570:	2300      	movs	r3, #0
 8000572:	60bb      	str	r3, [r7, #8]
 8000574:	4b22      	ldr	r3, [pc, #136]	; (8000600 <SystemClock_Config+0xb4>)
 8000576:	6c1b      	ldr	r3, [r3, #64]	; 0x40
 8000578:	4a21      	ldr	r2, [pc, #132]	; (8000600 <SystemClock_Config+0xb4>)
 800057a:	f043 5380 	orr.w	r3, r3, #268435456	; 0x10000000
 800057e:	6413      	str	r3, [r2, #64]	; 0x40
 8000580:	4b1f      	ldr	r3, [pc, #124]	; (8000600 <SystemClock_Config+0xb4>)
 8000582:	6c1b      	ldr	r3, [r3, #64]	; 0x40
 8000584:	f003 5380 	and.w	r3, r3, #268435456	; 0x10000000
 8000588:	60bb      	str	r3, [r7, #8]
 800058a:	68bb      	ldr	r3, [r7, #8]
  __HAL_PWR_VOLTAGESCALING_CONFIG(PWR_REGULATOR_VOLTAGE_SCALE1);
 800058c:	2300      	movs	r3, #0
 800058e:	607b      	str	r3, [r7, #4]
 8000590:	4b1c      	ldr	r3, [pc, #112]	; (8000604 <SystemClock_Config+0xb8>)
 8000592:	681b      	ldr	r3, [r3, #0]
 8000594:	4a1b      	ldr	r2, [pc, #108]	; (8000604 <SystemClock_Config+0xb8>)
 8000596:	f443 4340 	orr.w	r3, r3, #49152	; 0xc000
 800059a:	6013      	str	r3, [r2, #0]
 800059c:	4b19      	ldr	r3, [pc, #100]	; (8000604 <SystemClock_Config+0xb8>)
 800059e:	681b      	ldr	r3, [r3, #0]
 80005a0:	f403 4340 	and.w	r3, r3, #49152	; 0xc000
 80005a4:	607b      	str	r3, [r7, #4]
 80005a6:	687b      	ldr	r3, [r7, #4]
  /** Initializes the RCC Oscillators according to the specified parameters
  * in the RCC_OscInitTypeDef structure.
  */
  RCC_OscInitStruct.OscillatorType = RCC_OSCILLATORTYPE_HSI;
 80005a8:	2302      	movs	r3, #2
 80005aa:	623b      	str	r3, [r7, #32]
  RCC_OscInitStruct.HSIState = RCC_HSI_ON;
 80005ac:	2301      	movs	r3, #1
 80005ae:	62fb      	str	r3, [r7, #44]	; 0x2c
  RCC_OscInitStruct.HSICalibrationValue = RCC_HSICALIBRATION_DEFAULT;
 80005b0:	2310      	movs	r3, #16
 80005b2:	633b      	str	r3, [r7, #48]	; 0x30
  RCC_OscInitStruct.PLL.PLLState = RCC_PLL_NONE;
 80005b4:	2300      	movs	r3, #0
 80005b6:	63bb      	str	r3, [r7, #56]	; 0x38
  if (HAL_RCC_OscConfig(&RCC_OscInitStruct) != HAL_OK)
 80005b8:	f107 0320 	add.w	r3, r7, #32
 80005bc:	4618      	mov	r0, r3
 80005be:	f000 fd97 	bl	80010f0 <HAL_RCC_OscConfig>
 80005c2:	4603      	mov	r3, r0
 80005c4:	2b00      	cmp	r3, #0
 80005c6:	d001      	beq.n	80005cc <SystemClock_Config+0x80>
  {
    Error_Handler();
 80005c8:	f000 f95c 	bl	8000884 <Error_Handler>
  }
  /** Initializes the CPU, AHB and APB buses clocks
  */
  RCC_ClkInitStruct.ClockType = RCC_CLOCKTYPE_HCLK|RCC_CLOCKTYPE_SYSCLK
 80005cc:	230f      	movs	r3, #15
 80005ce:	60fb      	str	r3, [r7, #12]
                              |RCC_CLOCKTYPE_PCLK1|RCC_CLOCKTYPE_PCLK2;
  RCC_ClkInitStruct.SYSCLKSource = RCC_SYSCLKSOURCE_HSI;
 80005d0:	2300      	movs	r3, #0
 80005d2:	613b      	str	r3, [r7, #16]
  RCC_ClkInitStruct.AHBCLKDivider = RCC_SYSCLK_DIV1;
 80005d4:	2300      	movs	r3, #0
 80005d6:	617b      	str	r3, [r7, #20]
  RCC_ClkInitStruct.APB1CLKDivider = RCC_HCLK_DIV1;
 80005d8:	2300      	movs	r3, #0
 80005da:	61bb      	str	r3, [r7, #24]
  RCC_ClkInitStruct.APB2CLKDivider = RCC_HCLK_DIV1;
 80005dc:	2300      	movs	r3, #0
 80005de:	61fb      	str	r3, [r7, #28]

  if (HAL_RCC_ClockConfig(&RCC_ClkInitStruct, FLASH_LATENCY_0) != HAL_OK)
 80005e0:	f107 030c 	add.w	r3, r7, #12
 80005e4:	2100      	movs	r1, #0
 80005e6:	4618      	mov	r0, r3
 80005e8:	f000 fffa 	bl	80015e0 <HAL_RCC_ClockConfig>
 80005ec:	4603      	mov	r3, r0
 80005ee:	2b00      	cmp	r3, #0
 80005f0:	d001      	beq.n	80005f6 <SystemClock_Config+0xaa>
  {
    Error_Handler();
 80005f2:	f000 f947 	bl	8000884 <Error_Handler>
  }
}
 80005f6:	bf00      	nop
 80005f8:	3750      	adds	r7, #80	; 0x50
 80005fa:	46bd      	mov	sp, r7
 80005fc:	bd80      	pop	{r7, pc}
 80005fe:	bf00      	nop
 8000600:	40023800 	.word	0x40023800
 8000604:	40007000 	.word	0x40007000

08000608 <MX_TIM1_Init>:
  * @brief TIM1 Initialization Function
  * @param None
  * @retval None
  */
static void MX_TIM1_Init(void)
{
 8000608:	b580      	push	{r7, lr}
 800060a:	b096      	sub	sp, #88	; 0x58
 800060c:	af00      	add	r7, sp, #0

  /* USER CODE BEGIN TIM1_Init 0 */

  /* USER CODE END TIM1_Init 0 */

  TIM_ClockConfigTypeDef sClockSourceConfig = {0};
 800060e:	f107 0348 	add.w	r3, r7, #72	; 0x48
 8000612:	2200      	movs	r2, #0
 8000614:	601a      	str	r2, [r3, #0]
 8000616:	605a      	str	r2, [r3, #4]
 8000618:	609a      	str	r2, [r3, #8]
 800061a:	60da      	str	r2, [r3, #12]
  TIM_MasterConfigTypeDef sMasterConfig = {0};
 800061c:	f107 0340 	add.w	r3, r7, #64	; 0x40
 8000620:	2200      	movs	r2, #0
 8000622:	601a      	str	r2, [r3, #0]
 8000624:	605a      	str	r2, [r3, #4]
  TIM_OC_InitTypeDef sConfigOC = {0};
 8000626:	f107 0324 	add.w	r3, r7, #36	; 0x24
 800062a:	2200      	movs	r2, #0
 800062c:	601a      	str	r2, [r3, #0]
 800062e:	605a      	str	r2, [r3, #4]
 8000630:	609a      	str	r2, [r3, #8]
 8000632:	60da      	str	r2, [r3, #12]
 8000634:	611a      	str	r2, [r3, #16]
 8000636:	615a      	str	r2, [r3, #20]
 8000638:	619a      	str	r2, [r3, #24]
  TIM_BreakDeadTimeConfigTypeDef sBreakDeadTimeConfig = {0};
 800063a:	1d3b      	adds	r3, r7, #4
 800063c:	2220      	movs	r2, #32
 800063e:	2100      	movs	r1, #0
 8000640:	4618      	mov	r0, r3
 8000642:	f001 fffb 	bl	800263c <memset>

  /* USER CODE BEGIN TIM1_Init 1 */

  /* USER CODE END TIM1_Init 1 */
  htim1.Instance = TIM1;
 8000646:	4b3e      	ldr	r3, [pc, #248]	; (8000740 <MX_TIM1_Init+0x138>)
 8000648:	4a3e      	ldr	r2, [pc, #248]	; (8000744 <MX_TIM1_Init+0x13c>)
 800064a:	601a      	str	r2, [r3, #0]
  htim1.Init.Prescaler = 1600;
 800064c:	4b3c      	ldr	r3, [pc, #240]	; (8000740 <MX_TIM1_Init+0x138>)
 800064e:	f44f 62c8 	mov.w	r2, #1600	; 0x640
 8000652:	605a      	str	r2, [r3, #4]
  htim1.Init.CounterMode = TIM_COUNTERMODE_UP;
 8000654:	4b3a      	ldr	r3, [pc, #232]	; (8000740 <MX_TIM1_Init+0x138>)
 8000656:	2200      	movs	r2, #0
 8000658:	609a      	str	r2, [r3, #8]
  htim1.Init.Period = 100;
 800065a:	4b39      	ldr	r3, [pc, #228]	; (8000740 <MX_TIM1_Init+0x138>)
 800065c:	2264      	movs	r2, #100	; 0x64
 800065e:	60da      	str	r2, [r3, #12]
  htim1.Init.ClockDivision = TIM_CLOCKDIVISION_DIV1;
 8000660:	4b37      	ldr	r3, [pc, #220]	; (8000740 <MX_TIM1_Init+0x138>)
 8000662:	2200      	movs	r2, #0
 8000664:	611a      	str	r2, [r3, #16]
  htim1.Init.RepetitionCounter = 0;
 8000666:	4b36      	ldr	r3, [pc, #216]	; (8000740 <MX_TIM1_Init+0x138>)
 8000668:	2200      	movs	r2, #0
 800066a:	615a      	str	r2, [r3, #20]
  htim1.Init.AutoReloadPreload = TIM_AUTORELOAD_PRELOAD_DISABLE;
 800066c:	4b34      	ldr	r3, [pc, #208]	; (8000740 <MX_TIM1_Init+0x138>)
 800066e:	2200      	movs	r2, #0
 8000670:	619a      	str	r2, [r3, #24]
  if (HAL_TIM_Base_Init(&htim1) != HAL_OK)
 8000672:	4833      	ldr	r0, [pc, #204]	; (8000740 <MX_TIM1_Init+0x138>)
 8000674:	f001 f950 	bl	8001918 <HAL_TIM_Base_Init>
 8000678:	4603      	mov	r3, r0
 800067a:	2b00      	cmp	r3, #0
 800067c:	d001      	beq.n	8000682 <MX_TIM1_Init+0x7a>
  {
    Error_Handler();
 800067e:	f000 f901 	bl	8000884 <Error_Handler>
  }
  sClockSourceConfig.ClockSource = TIM_CLOCKSOURCE_INTERNAL;
 8000682:	f44f 5380 	mov.w	r3, #4096	; 0x1000
 8000686:	64bb      	str	r3, [r7, #72]	; 0x48
  if (HAL_TIM_ConfigClockSource(&htim1, &sClockSourceConfig) != HAL_OK)
 8000688:	f107 0348 	add.w	r3, r7, #72	; 0x48
 800068c:	4619      	mov	r1, r3
 800068e:	482c      	ldr	r0, [pc, #176]	; (8000740 <MX_TIM1_Init+0x138>)
 8000690:	f001 fb5c 	bl	8001d4c <HAL_TIM_ConfigClockSource>
 8000694:	4603      	mov	r3, r0
 8000696:	2b00      	cmp	r3, #0
 8000698:	d001      	beq.n	800069e <MX_TIM1_Init+0x96>
  {
    Error_Handler();
 800069a:	f000 f8f3 	bl	8000884 <Error_Handler>
  }
  if (HAL_TIM_PWM_Init(&htim1) != HAL_OK)
 800069e:	4828      	ldr	r0, [pc, #160]	; (8000740 <MX_TIM1_Init+0x138>)
 80006a0:	f001 f989 	bl	80019b6 <HAL_TIM_PWM_Init>
 80006a4:	4603      	mov	r3, r0
 80006a6:	2b00      	cmp	r3, #0
 80006a8:	d001      	beq.n	80006ae <MX_TIM1_Init+0xa6>
  {
    Error_Handler();
 80006aa:	f000 f8eb 	bl	8000884 <Error_Handler>
  }
  sMasterConfig.MasterOutputTrigger = TIM_TRGO_RESET;
 80006ae:	2300      	movs	r3, #0
 80006b0:	643b      	str	r3, [r7, #64]	; 0x40
  sMasterConfig.MasterSlaveMode = TIM_MASTERSLAVEMODE_DISABLE;
 80006b2:	2300      	movs	r3, #0
 80006b4:	647b      	str	r3, [r7, #68]	; 0x44
  if (HAL_TIMEx_MasterConfigSynchronization(&htim1, &sMasterConfig) != HAL_OK)
 80006b6:	f107 0340 	add.w	r3, r7, #64	; 0x40
 80006ba:	4619      	mov	r1, r3
 80006bc:	4820      	ldr	r0, [pc, #128]	; (8000740 <MX_TIM1_Init+0x138>)
 80006be:	f001 fed9 	bl	8002474 <HAL_TIMEx_MasterConfigSynchronization>
 80006c2:	4603      	mov	r3, r0
 80006c4:	2b00      	cmp	r3, #0
 80006c6:	d001      	beq.n	80006cc <MX_TIM1_Init+0xc4>
  {
    Error_Handler();
 80006c8:	f000 f8dc 	bl	8000884 <Error_Handler>
  }
  sConfigOC.OCMode = TIM_OCMODE_PWM1;
 80006cc:	2360      	movs	r3, #96	; 0x60
 80006ce:	627b      	str	r3, [r7, #36]	; 0x24
  sConfigOC.Pulse = 0;
 80006d0:	2300      	movs	r3, #0
 80006d2:	62bb      	str	r3, [r7, #40]	; 0x28
  sConfigOC.OCPolarity = TIM_OCPOLARITY_HIGH;
 80006d4:	2300      	movs	r3, #0
 80006d6:	62fb      	str	r3, [r7, #44]	; 0x2c
  sConfigOC.OCNPolarity = TIM_OCNPOLARITY_HIGH;
 80006d8:	2300      	movs	r3, #0
 80006da:	633b      	str	r3, [r7, #48]	; 0x30
  sConfigOC.OCFastMode = TIM_OCFAST_DISABLE;
 80006dc:	2300      	movs	r3, #0
 80006de:	637b      	str	r3, [r7, #52]	; 0x34
  sConfigOC.OCIdleState = TIM_OCIDLESTATE_RESET;
 80006e0:	2300      	movs	r3, #0
 80006e2:	63bb      	str	r3, [r7, #56]	; 0x38
  sConfigOC.OCNIdleState = TIM_OCNIDLESTATE_RESET;
 80006e4:	2300      	movs	r3, #0
 80006e6:	63fb      	str	r3, [r7, #60]	; 0x3c
  if (HAL_TIM_PWM_ConfigChannel(&htim1, &sConfigOC, TIM_CHANNEL_1) != HAL_OK)
 80006e8:	f107 0324 	add.w	r3, r7, #36	; 0x24
 80006ec:	2200      	movs	r2, #0
 80006ee:	4619      	mov	r1, r3
 80006f0:	4813      	ldr	r0, [pc, #76]	; (8000740 <MX_TIM1_Init+0x138>)
 80006f2:	f001 fa69 	bl	8001bc8 <HAL_TIM_PWM_ConfigChannel>
 80006f6:	4603      	mov	r3, r0
 80006f8:	2b00      	cmp	r3, #0
 80006fa:	d001      	beq.n	8000700 <MX_TIM1_Init+0xf8>
  {
    Error_Handler();
 80006fc:	f000 f8c2 	bl	8000884 <Error_Handler>
  }
  sBreakDeadTimeConfig.OffStateRunMode = TIM_OSSR_DISABLE;
 8000700:	2300      	movs	r3, #0
 8000702:	607b      	str	r3, [r7, #4]
  sBreakDeadTimeConfig.OffStateIDLEMode = TIM_OSSI_DISABLE;
 8000704:	2300      	movs	r3, #0
 8000706:	60bb      	str	r3, [r7, #8]
  sBreakDeadTimeConfig.LockLevel = TIM_LOCKLEVEL_OFF;
 8000708:	2300      	movs	r3, #0
 800070a:	60fb      	str	r3, [r7, #12]
  sBreakDeadTimeConfig.DeadTime = 0;
 800070c:	2300      	movs	r3, #0
 800070e:	613b      	str	r3, [r7, #16]
  sBreakDeadTimeConfig.BreakState = TIM_BREAK_DISABLE;
 8000710:	2300      	movs	r3, #0
 8000712:	617b      	str	r3, [r7, #20]
  sBreakDeadTimeConfig.BreakPolarity = TIM_BREAKPOLARITY_HIGH;
 8000714:	f44f 5300 	mov.w	r3, #8192	; 0x2000
 8000718:	61bb      	str	r3, [r7, #24]
  sBreakDeadTimeConfig.AutomaticOutput = TIM_AUTOMATICOUTPUT_DISABLE;
 800071a:	2300      	movs	r3, #0
 800071c:	623b      	str	r3, [r7, #32]
  if (HAL_TIMEx_ConfigBreakDeadTime(&htim1, &sBreakDeadTimeConfig) != HAL_OK)
 800071e:	1d3b      	adds	r3, r7, #4
 8000720:	4619      	mov	r1, r3
 8000722:	4807      	ldr	r0, [pc, #28]	; (8000740 <MX_TIM1_Init+0x138>)
 8000724:	f001 ff14 	bl	8002550 <HAL_TIMEx_ConfigBreakDeadTime>
 8000728:	4603      	mov	r3, r0
 800072a:	2b00      	cmp	r3, #0
 800072c:	d001      	beq.n	8000732 <MX_TIM1_Init+0x12a>
  {
    Error_Handler();
 800072e:	f000 f8a9 	bl	8000884 <Error_Handler>
  }
  /* USER CODE BEGIN TIM1_Init 2 */

  /* USER CODE END TIM1_Init 2 */
  HAL_TIM_MspPostInit(&htim1);
 8000732:	4803      	ldr	r0, [pc, #12]	; (8000740 <MX_TIM1_Init+0x138>)
 8000734:	f000 f90a 	bl	800094c <HAL_TIM_MspPostInit>

}
 8000738:	bf00      	nop
 800073a:	3758      	adds	r7, #88	; 0x58
 800073c:	46bd      	mov	sp, r7
 800073e:	bd80      	pop	{r7, pc}
 8000740:	20000070 	.word	0x20000070
 8000744:	40010000 	.word	0x40010000

08000748 <MX_TIM4_Init>:
  * @brief TIM4 Initialization Function
  * @param None
  * @retval None
  */
static void MX_TIM4_Init(void)
{
 8000748:	b580      	push	{r7, lr}
 800074a:	b08e      	sub	sp, #56	; 0x38
 800074c:	af00      	add	r7, sp, #0

  /* USER CODE BEGIN TIM4_Init 0 */

  /* USER CODE END TIM4_Init 0 */

  TIM_ClockConfigTypeDef sClockSourceConfig = {0};
 800074e:	f107 0328 	add.w	r3, r7, #40	; 0x28
 8000752:	2200      	movs	r2, #0
 8000754:	601a      	str	r2, [r3, #0]
 8000756:	605a      	str	r2, [r3, #4]
 8000758:	609a      	str	r2, [r3, #8]
 800075a:	60da      	str	r2, [r3, #12]
  TIM_MasterConfigTypeDef sMasterConfig = {0};
 800075c:	f107 0320 	add.w	r3, r7, #32
 8000760:	2200      	movs	r2, #0
 8000762:	601a      	str	r2, [r3, #0]
 8000764:	605a      	str	r2, [r3, #4]
  TIM_OC_InitTypeDef sConfigOC = {0};
 8000766:	1d3b      	adds	r3, r7, #4
 8000768:	2200      	movs	r2, #0
 800076a:	601a      	str	r2, [r3, #0]
 800076c:	605a      	str	r2, [r3, #4]
 800076e:	609a      	str	r2, [r3, #8]
 8000770:	60da      	str	r2, [r3, #12]
 8000772:	611a      	str	r2, [r3, #16]
 8000774:	615a      	str	r2, [r3, #20]
 8000776:	619a      	str	r2, [r3, #24]

  /* USER CODE BEGIN TIM4_Init 1 */

  /* USER CODE END TIM4_Init 1 */
  htim4.Instance = TIM4;
 8000778:	4b2c      	ldr	r3, [pc, #176]	; (800082c <MX_TIM4_Init+0xe4>)
 800077a:	4a2d      	ldr	r2, [pc, #180]	; (8000830 <MX_TIM4_Init+0xe8>)
 800077c:	601a      	str	r2, [r3, #0]
  htim4.Init.Prescaler = 16;
 800077e:	4b2b      	ldr	r3, [pc, #172]	; (800082c <MX_TIM4_Init+0xe4>)
 8000780:	2210      	movs	r2, #16
 8000782:	605a      	str	r2, [r3, #4]
  htim4.Init.CounterMode = TIM_COUNTERMODE_UP;
 8000784:	4b29      	ldr	r3, [pc, #164]	; (800082c <MX_TIM4_Init+0xe4>)
 8000786:	2200      	movs	r2, #0
 8000788:	609a      	str	r2, [r3, #8]
  htim4.Init.Period = 100;
 800078a:	4b28      	ldr	r3, [pc, #160]	; (800082c <MX_TIM4_Init+0xe4>)
 800078c:	2264      	movs	r2, #100	; 0x64
 800078e:	60da      	str	r2, [r3, #12]
  htim4.Init.ClockDivision = TIM_CLOCKDIVISION_DIV1;
 8000790:	4b26      	ldr	r3, [pc, #152]	; (800082c <MX_TIM4_Init+0xe4>)
 8000792:	2200      	movs	r2, #0
 8000794:	611a      	str	r2, [r3, #16]
  htim4.Init.AutoReloadPreload = TIM_AUTORELOAD_PRELOAD_DISABLE;
 8000796:	4b25      	ldr	r3, [pc, #148]	; (800082c <MX_TIM4_Init+0xe4>)
 8000798:	2200      	movs	r2, #0
 800079a:	619a      	str	r2, [r3, #24]
  if (HAL_TIM_Base_Init(&htim4) != HAL_OK)
 800079c:	4823      	ldr	r0, [pc, #140]	; (800082c <MX_TIM4_Init+0xe4>)
 800079e:	f001 f8bb 	bl	8001918 <HAL_TIM_Base_Init>
 80007a2:	4603      	mov	r3, r0
 80007a4:	2b00      	cmp	r3, #0
 80007a6:	d001      	beq.n	80007ac <MX_TIM4_Init+0x64>
  {
    Error_Handler();
 80007a8:	f000 f86c 	bl	8000884 <Error_Handler>
  }
  sClockSourceConfig.ClockSource = TIM_CLOCKSOURCE_INTERNAL;
 80007ac:	f44f 5380 	mov.w	r3, #4096	; 0x1000
 80007b0:	62bb      	str	r3, [r7, #40]	; 0x28
  if (HAL_TIM_ConfigClockSource(&htim4, &sClockSourceConfig) != HAL_OK)
 80007b2:	f107 0328 	add.w	r3, r7, #40	; 0x28
 80007b6:	4619      	mov	r1, r3
 80007b8:	481c      	ldr	r0, [pc, #112]	; (800082c <MX_TIM4_Init+0xe4>)
 80007ba:	f001 fac7 	bl	8001d4c <HAL_TIM_ConfigClockSource>
 80007be:	4603      	mov	r3, r0
 80007c0:	2b00      	cmp	r3, #0
 80007c2:	d001      	beq.n	80007c8 <MX_TIM4_Init+0x80>
  {
    Error_Handler();
 80007c4:	f000 f85e 	bl	8000884 <Error_Handler>
  }
  if (HAL_TIM_PWM_Init(&htim4) != HAL_OK)
 80007c8:	4818      	ldr	r0, [pc, #96]	; (800082c <MX_TIM4_Init+0xe4>)
 80007ca:	f001 f8f4 	bl	80019b6 <HAL_TIM_PWM_Init>
 80007ce:	4603      	mov	r3, r0
 80007d0:	2b00      	cmp	r3, #0
 80007d2:	d001      	beq.n	80007d8 <MX_TIM4_Init+0x90>
  {
    Error_Handler();
 80007d4:	f000 f856 	bl	8000884 <Error_Handler>
  }
  sMasterConfig.MasterOutputTrigger = TIM_TRGO_RESET;
 80007d8:	2300      	movs	r3, #0
 80007da:	623b      	str	r3, [r7, #32]
  sMasterConfig.MasterSlaveMode = TIM_MASTERSLAVEMODE_DISABLE;
 80007dc:	2300      	movs	r3, #0
 80007de:	627b      	str	r3, [r7, #36]	; 0x24
  if (HAL_TIMEx_MasterConfigSynchronization(&htim4, &sMasterConfig) != HAL_OK)
 80007e0:	f107 0320 	add.w	r3, r7, #32
 80007e4:	4619      	mov	r1, r3
 80007e6:	4811      	ldr	r0, [pc, #68]	; (800082c <MX_TIM4_Init+0xe4>)
 80007e8:	f001 fe44 	bl	8002474 <HAL_TIMEx_MasterConfigSynchronization>
 80007ec:	4603      	mov	r3, r0
 80007ee:	2b00      	cmp	r3, #0
 80007f0:	d001      	beq.n	80007f6 <MX_TIM4_Init+0xae>
  {
    Error_Handler();
 80007f2:	f000 f847 	bl	8000884 <Error_Handler>
  }
  sConfigOC.OCMode = TIM_OCMODE_PWM1;
 80007f6:	2360      	movs	r3, #96	; 0x60
 80007f8:	607b      	str	r3, [r7, #4]
  sConfigOC.Pulse = 50;
 80007fa:	2332      	movs	r3, #50	; 0x32
 80007fc:	60bb      	str	r3, [r7, #8]
  sConfigOC.OCPolarity = TIM_OCPOLARITY_HIGH;
 80007fe:	2300      	movs	r3, #0
 8000800:	60fb      	str	r3, [r7, #12]
  sConfigOC.OCFastMode = TIM_OCFAST_DISABLE;
 8000802:	2300      	movs	r3, #0
 8000804:	617b      	str	r3, [r7, #20]
  if (HAL_TIM_PWM_ConfigChannel(&htim4, &sConfigOC, TIM_CHANNEL_1) != HAL_OK)
 8000806:	1d3b      	adds	r3, r7, #4
 8000808:	2200      	movs	r2, #0
 800080a:	4619      	mov	r1, r3
 800080c:	4807      	ldr	r0, [pc, #28]	; (800082c <MX_TIM4_Init+0xe4>)
 800080e:	f001 f9db 	bl	8001bc8 <HAL_TIM_PWM_ConfigChannel>
 8000812:	4603      	mov	r3, r0
 8000814:	2b00      	cmp	r3, #0
 8000816:	d001      	beq.n	800081c <MX_TIM4_Init+0xd4>
  {
    Error_Handler();
 8000818:	f000 f834 	bl	8000884 <Error_Handler>
  }
  /* USER CODE BEGIN TIM4_Init 2 */

  /* USER CODE END TIM4_Init 2 */
  HAL_TIM_MspPostInit(&htim4);
 800081c:	4803      	ldr	r0, [pc, #12]	; (800082c <MX_TIM4_Init+0xe4>)
 800081e:	f000 f895 	bl	800094c <HAL_TIM_MspPostInit>

}
 8000822:	bf00      	nop
 8000824:	3738      	adds	r7, #56	; 0x38
 8000826:	46bd      	mov	sp, r7
 8000828:	bd80      	pop	{r7, pc}
 800082a:	bf00      	nop
 800082c:	20000028 	.word	0x20000028
 8000830:	40000800 	.word	0x40000800

08000834 <MX_GPIO_Init>:
  * @brief GPIO Initialization Function
  * @param None
  * @retval None
  */
static void MX_GPIO_Init(void)
{
 8000834:	b480      	push	{r7}
 8000836:	b083      	sub	sp, #12
 8000838:	af00      	add	r7, sp, #0

  /* GPIO Ports Clock Enable */
  __HAL_RCC_GPIOE_CLK_ENABLE();
 800083a:	2300      	movs	r3, #0
 800083c:	607b      	str	r3, [r7, #4]
 800083e:	4b10      	ldr	r3, [pc, #64]	; (8000880 <MX_GPIO_Init+0x4c>)
 8000840:	6b1b      	ldr	r3, [r3, #48]	; 0x30
 8000842:	4a0f      	ldr	r2, [pc, #60]	; (8000880 <MX_GPIO_Init+0x4c>)
 8000844:	f043 0310 	orr.w	r3, r3, #16
 8000848:	6313      	str	r3, [r2, #48]	; 0x30
 800084a:	4b0d      	ldr	r3, [pc, #52]	; (8000880 <MX_GPIO_Init+0x4c>)
 800084c:	6b1b      	ldr	r3, [r3, #48]	; 0x30
 800084e:	f003 0310 	and.w	r3, r3, #16
 8000852:	607b      	str	r3, [r7, #4]
 8000854:	687b      	ldr	r3, [r7, #4]
  __HAL_RCC_GPIOD_CLK_ENABLE();
 8000856:	2300      	movs	r3, #0
 8000858:	603b      	str	r3, [r7, #0]
 800085a:	4b09      	ldr	r3, [pc, #36]	; (8000880 <MX_GPIO_Init+0x4c>)
 800085c:	6b1b      	ldr	r3, [r3, #48]	; 0x30
 800085e:	4a08      	ldr	r2, [pc, #32]	; (8000880 <MX_GPIO_Init+0x4c>)
 8000860:	f043 0308 	orr.w	r3, r3, #8
 8000864:	6313      	str	r3, [r2, #48]	; 0x30
 8000866:	4b06      	ldr	r3, [pc, #24]	; (8000880 <MX_GPIO_Init+0x4c>)
 8000868:	6b1b      	ldr	r3, [r3, #48]	; 0x30
 800086a:	f003 0308 	and.w	r3, r3, #8
 800086e:	603b      	str	r3, [r7, #0]
 8000870:	683b      	ldr	r3, [r7, #0]

}
 8000872:	bf00      	nop
 8000874:	370c      	adds	r7, #12
 8000876:	46bd      	mov	sp, r7
 8000878:	f85d 7b04 	ldr.w	r7, [sp], #4
 800087c:	4770      	bx	lr
 800087e:	bf00      	nop
 8000880:	40023800 	.word	0x40023800

08000884 <Error_Handler>:
/**
  * @brief  This function is executed in case of error occurrence.
  * @retval None
  */
void Error_Handler(void)
{
 8000884:	b480      	push	{r7}
 8000886:	af00      	add	r7, sp, #0
  /* USER CODE BEGIN Error_Handler_Debug */
  /* User can add his own implementation to report the HAL error return state */
  while(1)
 8000888:	e7fe      	b.n	8000888 <Error_Handler+0x4>
	...

0800088c <HAL_MspInit>:
void HAL_TIM_MspPostInit(TIM_HandleTypeDef *htim);
                                        /**
  * Initializes the Global MSP.
  */
void HAL_MspInit(void)
{
 800088c:	b480      	push	{r7}
 800088e:	b083      	sub	sp, #12
 8000890:	af00      	add	r7, sp, #0
  /* USER CODE BEGIN MspInit 0 */

  /* USER CODE END MspInit 0 */

  __HAL_RCC_SYSCFG_CLK_ENABLE();
 8000892:	2300      	movs	r3, #0
 8000894:	607b      	str	r3, [r7, #4]
 8000896:	4b10      	ldr	r3, [pc, #64]	; (80008d8 <HAL_MspInit+0x4c>)
 8000898:	6c5b      	ldr	r3, [r3, #68]	; 0x44
 800089a:	4a0f      	ldr	r2, [pc, #60]	; (80008d8 <HAL_MspInit+0x4c>)
 800089c:	f443 4380 	orr.w	r3, r3, #16384	; 0x4000
 80008a0:	6453      	str	r3, [r2, #68]	; 0x44
 80008a2:	4b0d      	ldr	r3, [pc, #52]	; (80008d8 <HAL_MspInit+0x4c>)
 80008a4:	6c5b      	ldr	r3, [r3, #68]	; 0x44
 80008a6:	f403 4380 	and.w	r3, r3, #16384	; 0x4000
 80008aa:	607b      	str	r3, [r7, #4]
 80008ac:	687b      	ldr	r3, [r7, #4]
  __HAL_RCC_PWR_CLK_ENABLE();
 80008ae:	2300      	movs	r3, #0
 80008b0:	603b      	str	r3, [r7, #0]
 80008b2:	4b09      	ldr	r3, [pc, #36]	; (80008d8 <HAL_MspInit+0x4c>)
 80008b4:	6c1b      	ldr	r3, [r3, #64]	; 0x40
 80008b6:	4a08      	ldr	r2, [pc, #32]	; (80008d8 <HAL_MspInit+0x4c>)
 80008b8:	f043 5380 	orr.w	r3, r3, #268435456	; 0x10000000
 80008bc:	6413      	str	r3, [r2, #64]	; 0x40
 80008be:	4b06      	ldr	r3, [pc, #24]	; (80008d8 <HAL_MspInit+0x4c>)
 80008c0:	6c1b      	ldr	r3, [r3, #64]	; 0x40
 80008c2:	f003 5380 	and.w	r3, r3, #268435456	; 0x10000000
 80008c6:	603b      	str	r3, [r7, #0]
 80008c8:	683b      	ldr	r3, [r7, #0]
  /* System interrupt init*/

  /* USER CODE BEGIN MspInit 1 */

  /* USER CODE END MspInit 1 */
}
 80008ca:	bf00      	nop
 80008cc:	370c      	adds	r7, #12
 80008ce:	46bd      	mov	sp, r7
 80008d0:	f85d 7b04 	ldr.w	r7, [sp], #4
 80008d4:	4770      	bx	lr
 80008d6:	bf00      	nop
 80008d8:	40023800 	.word	0x40023800

080008dc <HAL_TIM_Base_MspInit>:
* This function configures the hardware resources used in this example
* @param htim_base: TIM_Base handle pointer
* @retval None
*/
void HAL_TIM_Base_MspInit(TIM_HandleTypeDef* htim_base)
{
 80008dc:	b480      	push	{r7}
 80008de:	b085      	sub	sp, #20
 80008e0:	af00      	add	r7, sp, #0
 80008e2:	6078      	str	r0, [r7, #4]
  if(htim_base->Instance==TIM1)
 80008e4:	687b      	ldr	r3, [r7, #4]
 80008e6:	681b      	ldr	r3, [r3, #0]
 80008e8:	4a15      	ldr	r2, [pc, #84]	; (8000940 <HAL_TIM_Base_MspInit+0x64>)
 80008ea:	4293      	cmp	r3, r2
 80008ec:	d10e      	bne.n	800090c <HAL_TIM_Base_MspInit+0x30>
  {
  /* USER CODE BEGIN TIM1_MspInit 0 */

  /* USER CODE END TIM1_MspInit 0 */
    /* Peripheral clock enable */
    __HAL_RCC_TIM1_CLK_ENABLE();
 80008ee:	2300      	movs	r3, #0
 80008f0:	60fb      	str	r3, [r7, #12]
 80008f2:	4b14      	ldr	r3, [pc, #80]	; (8000944 <HAL_TIM_Base_MspInit+0x68>)
 80008f4:	6c5b      	ldr	r3, [r3, #68]	; 0x44
 80008f6:	4a13      	ldr	r2, [pc, #76]	; (8000944 <HAL_TIM_Base_MspInit+0x68>)
 80008f8:	f043 0301 	orr.w	r3, r3, #1
 80008fc:	6453      	str	r3, [r2, #68]	; 0x44
 80008fe:	4b11      	ldr	r3, [pc, #68]	; (8000944 <HAL_TIM_Base_MspInit+0x68>)
 8000900:	6c5b      	ldr	r3, [r3, #68]	; 0x44
 8000902:	f003 0301 	and.w	r3, r3, #1
 8000906:	60fb      	str	r3, [r7, #12]
 8000908:	68fb      	ldr	r3, [r7, #12]
  /* USER CODE BEGIN TIM4_MspInit 1 */

  /* USER CODE END TIM4_MspInit 1 */
  }

}
 800090a:	e012      	b.n	8000932 <HAL_TIM_Base_MspInit+0x56>
  else if(htim_base->Instance==TIM4)
 800090c:	687b      	ldr	r3, [r7, #4]
 800090e:	681b      	ldr	r3, [r3, #0]
 8000910:	4a0d      	ldr	r2, [pc, #52]	; (8000948 <HAL_TIM_Base_MspInit+0x6c>)
 8000912:	4293      	cmp	r3, r2
 8000914:	d10d      	bne.n	8000932 <HAL_TIM_Base_MspInit+0x56>
    __HAL_RCC_TIM4_CLK_ENABLE();
 8000916:	2300      	movs	r3, #0
 8000918:	60bb      	str	r3, [r7, #8]
 800091a:	4b0a      	ldr	r3, [pc, #40]	; (8000944 <HAL_TIM_Base_MspInit+0x68>)
 800091c:	6c1b      	ldr	r3, [r3, #64]	; 0x40
 800091e:	4a09      	ldr	r2, [pc, #36]	; (8000944 <HAL_TIM_Base_MspInit+0x68>)
 8000920:	f043 0304 	orr.w	r3, r3, #4
 8000924:	6413      	str	r3, [r2, #64]	; 0x40
 8000926:	4b07      	ldr	r3, [pc, #28]	; (8000944 <HAL_TIM_Base_MspInit+0x68>)
 8000928:	6c1b      	ldr	r3, [r3, #64]	; 0x40
 800092a:	f003 0304 	and.w	r3, r3, #4
 800092e:	60bb      	str	r3, [r7, #8]
 8000930:	68bb      	ldr	r3, [r7, #8]
}
 8000932:	bf00      	nop
 8000934:	3714      	adds	r7, #20
 8000936:	46bd      	mov	sp, r7
 8000938:	f85d 7b04 	ldr.w	r7, [sp], #4
 800093c:	4770      	bx	lr
 800093e:	bf00      	nop
 8000940:	40010000 	.word	0x40010000
 8000944:	40023800 	.word	0x40023800
 8000948:	40000800 	.word	0x40000800

0800094c <HAL_TIM_MspPostInit>:

void HAL_TIM_MspPostInit(TIM_HandleTypeDef* htim)
{
 800094c:	b580      	push	{r7, lr}
 800094e:	b08a      	sub	sp, #40	; 0x28
 8000950:	af00      	add	r7, sp, #0
 8000952:	6078      	str	r0, [r7, #4]
  GPIO_InitTypeDef GPIO_InitStruct = {0};
 8000954:	f107 0314 	add.w	r3, r7, #20
 8000958:	2200      	movs	r2, #0
 800095a:	601a      	str	r2, [r3, #0]
 800095c:	605a      	str	r2, [r3, #4]
 800095e:	609a      	str	r2, [r3, #8]
 8000960:	60da      	str	r2, [r3, #12]
 8000962:	611a      	str	r2, [r3, #16]
  if(htim->Instance==TIM1)
 8000964:	687b      	ldr	r3, [r7, #4]
 8000966:	681b      	ldr	r3, [r3, #0]
 8000968:	4a25      	ldr	r2, [pc, #148]	; (8000a00 <HAL_TIM_MspPostInit+0xb4>)
 800096a:	4293      	cmp	r3, r2
 800096c:	d11f      	bne.n	80009ae <HAL_TIM_MspPostInit+0x62>
  {
  /* USER CODE BEGIN TIM1_MspPostInit 0 */

  /* USER CODE END TIM1_MspPostInit 0 */
    __HAL_RCC_GPIOE_CLK_ENABLE();
 800096e:	2300      	movs	r3, #0
 8000970:	613b      	str	r3, [r7, #16]
 8000972:	4b24      	ldr	r3, [pc, #144]	; (8000a04 <HAL_TIM_MspPostInit+0xb8>)
 8000974:	6b1b      	ldr	r3, [r3, #48]	; 0x30
 8000976:	4a23      	ldr	r2, [pc, #140]	; (8000a04 <HAL_TIM_MspPostInit+0xb8>)
 8000978:	f043 0310 	orr.w	r3, r3, #16
 800097c:	6313      	str	r3, [r2, #48]	; 0x30
 800097e:	4b21      	ldr	r3, [pc, #132]	; (8000a04 <HAL_TIM_MspPostInit+0xb8>)
 8000980:	6b1b      	ldr	r3, [r3, #48]	; 0x30
 8000982:	f003 0310 	and.w	r3, r3, #16
 8000986:	613b      	str	r3, [r7, #16]
 8000988:	693b      	ldr	r3, [r7, #16]
    /**TIM1 GPIO Configuration
    PE9     ------> TIM1_CH1
    */
    GPIO_InitStruct.Pin = GPIO_PIN_9;
 800098a:	f44f 7300 	mov.w	r3, #512	; 0x200
 800098e:	617b      	str	r3, [r7, #20]
    GPIO_InitStruct.Mode = GPIO_MODE_AF_PP;
 8000990:	2302      	movs	r3, #2
 8000992:	61bb      	str	r3, [r7, #24]
    GPIO_InitStruct.Pull = GPIO_NOPULL;
 8000994:	2300      	movs	r3, #0
 8000996:	61fb      	str	r3, [r7, #28]
    GPIO_InitStruct.Speed = GPIO_SPEED_FREQ_LOW;
 8000998:	2300      	movs	r3, #0
 800099a:	623b      	str	r3, [r7, #32]
    GPIO_InitStruct.Alternate = GPIO_AF1_TIM1;
 800099c:	2301      	movs	r3, #1
 800099e:	627b      	str	r3, [r7, #36]	; 0x24
    HAL_GPIO_Init(GPIOE, &GPIO_InitStruct);
 80009a0:	f107 0314 	add.w	r3, r7, #20
 80009a4:	4619      	mov	r1, r3
 80009a6:	4818      	ldr	r0, [pc, #96]	; (8000a08 <HAL_TIM_MspPostInit+0xbc>)
 80009a8:	f000 fa1e 	bl	8000de8 <HAL_GPIO_Init>
  /* USER CODE BEGIN TIM4_MspPostInit 1 */

  /* USER CODE END TIM4_MspPostInit 1 */
  }

}
 80009ac:	e023      	b.n	80009f6 <HAL_TIM_MspPostInit+0xaa>
  else if(htim->Instance==TIM4)
 80009ae:	687b      	ldr	r3, [r7, #4]
 80009b0:	681b      	ldr	r3, [r3, #0]
 80009b2:	4a16      	ldr	r2, [pc, #88]	; (8000a0c <HAL_TIM_MspPostInit+0xc0>)
 80009b4:	4293      	cmp	r3, r2
 80009b6:	d11e      	bne.n	80009f6 <HAL_TIM_MspPostInit+0xaa>
    __HAL_RCC_GPIOD_CLK_ENABLE();
 80009b8:	2300      	movs	r3, #0
 80009ba:	60fb      	str	r3, [r7, #12]
 80009bc:	4b11      	ldr	r3, [pc, #68]	; (8000a04 <HAL_TIM_MspPostInit+0xb8>)
 80009be:	6b1b      	ldr	r3, [r3, #48]	; 0x30
 80009c0:	4a10      	ldr	r2, [pc, #64]	; (8000a04 <HAL_TIM_MspPostInit+0xb8>)
 80009c2:	f043 0308 	orr.w	r3, r3, #8
 80009c6:	6313      	str	r3, [r2, #48]	; 0x30
 80009c8:	4b0e      	ldr	r3, [pc, #56]	; (8000a04 <HAL_TIM_MspPostInit+0xb8>)
 80009ca:	6b1b      	ldr	r3, [r3, #48]	; 0x30
 80009cc:	f003 0308 	and.w	r3, r3, #8
 80009d0:	60fb      	str	r3, [r7, #12]
 80009d2:	68fb      	ldr	r3, [r7, #12]
    GPIO_InitStruct.Pin = GPIO_PIN_12;
 80009d4:	f44f 5380 	mov.w	r3, #4096	; 0x1000
 80009d8:	617b      	str	r3, [r7, #20]
    GPIO_InitStruct.Mode = GPIO_MODE_AF_PP;
 80009da:	2302      	movs	r3, #2
 80009dc:	61bb      	str	r3, [r7, #24]
    GPIO_InitStruct.Pull = GPIO_NOPULL;
 80009de:	2300      	movs	r3, #0
 80009e0:	61fb      	str	r3, [r7, #28]
    GPIO_InitStruct.Speed = GPIO_SPEED_FREQ_LOW;
 80009e2:	2300      	movs	r3, #0
 80009e4:	623b      	str	r3, [r7, #32]
    GPIO_InitStruct.Alternate = GPIO_AF2_TIM4;
 80009e6:	2302      	movs	r3, #2
 80009e8:	627b      	str	r3, [r7, #36]	; 0x24
    HAL_GPIO_Init(GPIOD, &GPIO_InitStruct);
 80009ea:	f107 0314 	add.w	r3, r7, #20
 80009ee:	4619      	mov	r1, r3
 80009f0:	4807      	ldr	r0, [pc, #28]	; (8000a10 <HAL_TIM_MspPostInit+0xc4>)
 80009f2:	f000 f9f9 	bl	8000de8 <HAL_GPIO_Init>
}
 80009f6:	bf00      	nop
 80009f8:	3728      	adds	r7, #40	; 0x28
 80009fa:	46bd      	mov	sp, r7
 80009fc:	bd80      	pop	{r7, pc}
 80009fe:	bf00      	nop
 8000a00:	40010000 	.word	0x40010000
 8000a04:	40023800 	.word	0x40023800
 8000a08:	40021000 	.word	0x40021000
 8000a0c:	40000800 	.word	0x40000800
 8000a10:	40020c00 	.word	0x40020c00

08000a14 <NMI_Handler>:
/******************************************************************************/
/**
  * @brief This function handles Non maskable interrupt.
  */
void NMI_Handler(void)
{
 8000a14:	b480      	push	{r7}
 8000a16:	af00      	add	r7, sp, #0

  /* USER CODE END NonMaskableInt_IRQn 0 */
  /* USER CODE BEGIN NonMaskableInt_IRQn 1 */

  /* USER CODE END NonMaskableInt_IRQn 1 */
}
 8000a18:	bf00      	nop
 8000a1a:	46bd      	mov	sp, r7
 8000a1c:	f85d 7b04 	ldr.w	r7, [sp], #4
 8000a20:	4770      	bx	lr

08000a22 <HardFault_Handler>:

/**
  * @brief This function handles Hard fault interrupt.
  */
void HardFault_Handler(void)
{
 8000a22:	b480      	push	{r7}
 8000a24:	af00      	add	r7, sp, #0
  /* USER CODE BEGIN HardFault_IRQn 0 */

  /* USER CODE END HardFault_IRQn 0 */
  while (1)
 8000a26:	e7fe      	b.n	8000a26 <HardFault_Handler+0x4>

08000a28 <MemManage_Handler>:

/**
  * @brief This function handles Memory management fault.
  */
void MemManage_Handler(void)
{
 8000a28:	b480      	push	{r7}
 8000a2a:	af00      	add	r7, sp, #0
  /* USER CODE BEGIN MemoryManagement_IRQn 0 */

  /* USER CODE END MemoryManagement_IRQn 0 */
  while (1)
 8000a2c:	e7fe      	b.n	8000a2c <MemManage_Handler+0x4>

08000a2e <BusFault_Handler>:

/**
  * @brief This function handles Pre-fetch fault, memory access fault.
  */
void BusFault_Handler(void)
{
 8000a2e:	b480      	push	{r7}
 8000a30:	af00      	add	r7, sp, #0
  /* USER CODE BEGIN BusFault_IRQn 0 */

  /* USER CODE END BusFault_IRQn 0 */
  while (1)
 8000a32:	e7fe      	b.n	8000a32 <BusFault_Handler+0x4>

08000a34 <UsageFault_Handler>:

/**
  * @brief This function handles Undefined instruction or illegal state.
  */
void UsageFault_Handler(void)
{
 8000a34:	b480      	push	{r7}
 8000a36:	af00      	add	r7, sp, #0
  /* USER CODE BEGIN UsageFault_IRQn 0 */

  /* USER CODE END UsageFault_IRQn 0 */
  while (1)
 8000a38:	e7fe      	b.n	8000a38 <UsageFault_Handler+0x4>

08000a3a <SVC_Handler>:

/**
  * @brief This function handles System service call via SWI instruction.
  */
void SVC_Handler(void)
{
 8000a3a:	b480      	push	{r7}
 8000a3c:	af00      	add	r7, sp, #0

  /* USER CODE END SVCall_IRQn 0 */
  /* USER CODE BEGIN SVCall_IRQn 1 */

  /* USER CODE END SVCall_IRQn 1 */
}
 8000a3e:	bf00      	nop
 8000a40:	46bd      	mov	sp, r7
 8000a42:	f85d 7b04 	ldr.w	r7, [sp], #4
 8000a46:	4770      	bx	lr

08000a48 <DebugMon_Handler>:

/**
  * @brief This function handles Debug monitor.
  */
void DebugMon_Handler(void)
{
 8000a48:	b480      	push	{r7}
 8000a4a:	af00      	add	r7, sp, #0

  /* USER CODE END DebugMonitor_IRQn 0 */
  /* USER CODE BEGIN DebugMonitor_IRQn 1 */

  /* USER CODE END DebugMonitor_IRQn 1 */
}
 8000a4c:	bf00      	nop
 8000a4e:	46bd      	mov	sp, r7
 8000a50:	f85d 7b04 	ldr.w	r7, [sp], #4
 8000a54:	4770      	bx	lr

08000a56 <PendSV_Handler>:

/**
  * @brief This function handles Pendable request for system service.
  */
void PendSV_Handler(void)
{
 8000a56:	b480      	push	{r7}
 8000a58:	af00      	add	r7, sp, #0

  /* USER CODE END PendSV_IRQn 0 */
  /* USER CODE BEGIN PendSV_IRQn 1 */

  /* USER CODE END PendSV_IRQn 1 */
}
 8000a5a:	bf00      	nop
 8000a5c:	46bd      	mov	sp, r7
 8000a5e:	f85d 7b04 	ldr.w	r7, [sp], #4
 8000a62:	4770      	bx	lr

08000a64 <SysTick_Handler>:

/**
  * @brief This function handles System tick timer.
  */
void SysTick_Handler(void)
{
 8000a64:	b580      	push	{r7, lr}
 8000a66:	af00      	add	r7, sp, #0
  /* USER CODE BEGIN SysTick_IRQn 0 */

  /* USER CODE END SysTick_IRQn 0 */
  HAL_IncTick();
 8000a68:	f000 f894 	bl	8000b94 <HAL_IncTick>
  /* USER CODE BEGIN SysTick_IRQn 1 */

  /* USER CODE END SysTick_IRQn 1 */
}
 8000a6c:	bf00      	nop
 8000a6e:	bd80      	pop	{r7, pc}

08000a70 <SystemInit>:
  *         configuration.
  * @param  None
  * @retval None
  */
void SystemInit(void)
{
 8000a70:	b480      	push	{r7}
 8000a72:	af00      	add	r7, sp, #0
  /* FPU settings ------------------------------------------------------------*/
  #if (__FPU_PRESENT == 1) && (__FPU_USED == 1)
    SCB->CPACR |= ((3UL << 10*2)|(3UL << 11*2));  /* set CP10 and CP11 Full Access */
 8000a74:	4b08      	ldr	r3, [pc, #32]	; (8000a98 <SystemInit+0x28>)
 8000a76:	f8d3 3088 	ldr.w	r3, [r3, #136]	; 0x88
 8000a7a:	4a07      	ldr	r2, [pc, #28]	; (8000a98 <SystemInit+0x28>)
 8000a7c:	f443 0370 	orr.w	r3, r3, #15728640	; 0xf00000
 8000a80:	f8c2 3088 	str.w	r3, [r2, #136]	; 0x88

  /* Configure the Vector Table location add offset address ------------------*/
#ifdef VECT_TAB_SRAM
  SCB->VTOR = SRAM_BASE | VECT_TAB_OFFSET; /* Vector Table Relocation in Internal SRAM */
#else
  SCB->VTOR = FLASH_BASE | VECT_TAB_OFFSET; /* Vector Table Relocation in Internal FLASH */
 8000a84:	4b04      	ldr	r3, [pc, #16]	; (8000a98 <SystemInit+0x28>)
 8000a86:	f04f 6200 	mov.w	r2, #134217728	; 0x8000000
 8000a8a:	609a      	str	r2, [r3, #8]
#endif
}
 8000a8c:	bf00      	nop
 8000a8e:	46bd      	mov	sp, r7
 8000a90:	f85d 7b04 	ldr.w	r7, [sp], #4
 8000a94:	4770      	bx	lr
 8000a96:	bf00      	nop
 8000a98:	e000ed00 	.word	0xe000ed00

08000a9c <Reset_Handler>:

    .section  .text.Reset_Handler
  .weak  Reset_Handler
  .type  Reset_Handler, %function
Reset_Handler:  
  ldr   sp, =_estack    		 /* set stack pointer */
 8000a9c:	f8df d034 	ldr.w	sp, [pc, #52]	; 8000ad4 <LoopFillZerobss+0x14>

/* Copy the data segment initializers from flash to SRAM */  
  movs  r1, #0
 8000aa0:	2100      	movs	r1, #0
  b  LoopCopyDataInit
 8000aa2:	e003      	b.n	8000aac <LoopCopyDataInit>

08000aa4 <CopyDataInit>:

CopyDataInit:
  ldr  r3, =_sidata
 8000aa4:	4b0c      	ldr	r3, [pc, #48]	; (8000ad8 <LoopFillZerobss+0x18>)
  ldr  r3, [r3, r1]
 8000aa6:	585b      	ldr	r3, [r3, r1]
  str  r3, [r0, r1]
 8000aa8:	5043      	str	r3, [r0, r1]
  adds  r1, r1, #4
 8000aaa:	3104      	adds	r1, #4

08000aac <LoopCopyDataInit>:
    
LoopCopyDataInit:
  ldr  r0, =_sdata
 8000aac:	480b      	ldr	r0, [pc, #44]	; (8000adc <LoopFillZerobss+0x1c>)
  ldr  r3, =_edata
 8000aae:	4b0c      	ldr	r3, [pc, #48]	; (8000ae0 <LoopFillZerobss+0x20>)
  adds  r2, r0, r1
 8000ab0:	1842      	adds	r2, r0, r1
  cmp  r2, r3
 8000ab2:	429a      	cmp	r2, r3
  bcc  CopyDataInit
 8000ab4:	d3f6      	bcc.n	8000aa4 <CopyDataInit>
  ldr  r2, =_sbss
 8000ab6:	4a0b      	ldr	r2, [pc, #44]	; (8000ae4 <LoopFillZerobss+0x24>)
  b  LoopFillZerobss
 8000ab8:	e002      	b.n	8000ac0 <LoopFillZerobss>

08000aba <FillZerobss>:
/* Zero fill the bss segment. */  
FillZerobss:
  movs  r3, #0
 8000aba:	2300      	movs	r3, #0
  str  r3, [r2], #4
 8000abc:	f842 3b04 	str.w	r3, [r2], #4

08000ac0 <LoopFillZerobss>:
    
LoopFillZerobss:
  ldr  r3, = _ebss
 8000ac0:	4b09      	ldr	r3, [pc, #36]	; (8000ae8 <LoopFillZerobss+0x28>)
  cmp  r2, r3
 8000ac2:	429a      	cmp	r2, r3
  bcc  FillZerobss
 8000ac4:	d3f9      	bcc.n	8000aba <FillZerobss>

/* Call the clock system intitialization function.*/
  bl  SystemInit   
 8000ac6:	f7ff ffd3 	bl	8000a70 <SystemInit>
/* Call static constructors */
    bl __libc_init_array
 8000aca:	f001 fd93 	bl	80025f4 <__libc_init_array>
/* Call the application's entry point.*/
  bl  main
 8000ace:	f7ff fcff 	bl	80004d0 <main>
  bx  lr    
 8000ad2:	4770      	bx	lr
  ldr   sp, =_estack    		 /* set stack pointer */
 8000ad4:	20020000 	.word	0x20020000
  ldr  r3, =_sidata
 8000ad8:	08002684 	.word	0x08002684
  ldr  r0, =_sdata
 8000adc:	20000000 	.word	0x20000000
  ldr  r3, =_edata
 8000ae0:	2000000c 	.word	0x2000000c
  ldr  r2, =_sbss
 8000ae4:	2000000c 	.word	0x2000000c
  ldr  r3, = _ebss
 8000ae8:	200000bc 	.word	0x200000bc

08000aec <ADC_IRQHandler>:
 * @retval None       
*/
    .section  .text.Default_Handler,"ax",%progbits
Default_Handler:
Infinite_Loop:
  b  Infinite_Loop
 8000aec:	e7fe      	b.n	8000aec <ADC_IRQHandler>
	...

08000af0 <HAL_Init>:
  *         need to ensure that the SysTick time base is always set to 1 millisecond
  *         to have correct HAL operation.
  * @retval HAL status
  */
HAL_StatusTypeDef HAL_Init(void)
{
 8000af0:	b580      	push	{r7, lr}
 8000af2:	af00      	add	r7, sp, #0
  /* Configure Flash prefetch, Instruction cache, Data cache */ 
#if (INSTRUCTION_CACHE_ENABLE != 0U)
  __HAL_FLASH_INSTRUCTION_CACHE_ENABLE();
 8000af4:	4b0e      	ldr	r3, [pc, #56]	; (8000b30 <HAL_Init+0x40>)
 8000af6:	681b      	ldr	r3, [r3, #0]
 8000af8:	4a0d      	ldr	r2, [pc, #52]	; (8000b30 <HAL_Init+0x40>)
 8000afa:	f443 7300 	orr.w	r3, r3, #512	; 0x200
 8000afe:	6013      	str	r3, [r2, #0]
#endif /* INSTRUCTION_CACHE_ENABLE */

#if (DATA_CACHE_ENABLE != 0U)
  __HAL_FLASH_DATA_CACHE_ENABLE();
 8000b00:	4b0b      	ldr	r3, [pc, #44]	; (8000b30 <HAL_Init+0x40>)
 8000b02:	681b      	ldr	r3, [r3, #0]
 8000b04:	4a0a      	ldr	r2, [pc, #40]	; (8000b30 <HAL_Init+0x40>)
 8000b06:	f443 6380 	orr.w	r3, r3, #1024	; 0x400
 8000b0a:	6013      	str	r3, [r2, #0]
#endif /* DATA_CACHE_ENABLE */

#if (PREFETCH_ENABLE != 0U)
  __HAL_FLASH_PREFETCH_BUFFER_ENABLE();
 8000b0c:	4b08      	ldr	r3, [pc, #32]	; (8000b30 <HAL_Init+0x40>)
 8000b0e:	681b      	ldr	r3, [r3, #0]
 8000b10:	4a07      	ldr	r2, [pc, #28]	; (8000b30 <HAL_Init+0x40>)
 8000b12:	f443 7380 	orr.w	r3, r3, #256	; 0x100
 8000b16:	6013      	str	r3, [r2, #0]
#endif /* PREFETCH_ENABLE */

  /* Set Interrupt Group Priority */
  HAL_NVIC_SetPriorityGrouping(NVIC_PRIORITYGROUP_4);
 8000b18:	2003      	movs	r0, #3
 8000b1a:	f000 f931 	bl	8000d80 <HAL_NVIC_SetPriorityGrouping>

  /* Use systick as time base source and configure 1ms tick (default clock after Reset is HSI) */
  HAL_InitTick(TICK_INT_PRIORITY);
 8000b1e:	2000      	movs	r0, #0
 8000b20:	f000 f808 	bl	8000b34 <HAL_InitTick>

  /* Init the low level hardware */
  HAL_MspInit();
 8000b24:	f7ff feb2 	bl	800088c <HAL_MspInit>

  /* Return function status */
  return HAL_OK;
 8000b28:	2300      	movs	r3, #0
}
 8000b2a:	4618      	mov	r0, r3
 8000b2c:	bd80      	pop	{r7, pc}
 8000b2e:	bf00      	nop
 8000b30:	40023c00 	.word	0x40023c00

08000b34 <HAL_InitTick>:
  *       implementation  in user file.
  * @param TickPriority Tick interrupt priority.
  * @retval HAL status
  */
__weak HAL_StatusTypeDef HAL_InitTick(uint32_t TickPriority)
{
 8000b34:	b580      	push	{r7, lr}
 8000b36:	b082      	sub	sp, #8
 8000b38:	af00      	add	r7, sp, #0
 8000b3a:	6078      	str	r0, [r7, #4]
  /* Configure the SysTick to have interrupt in 1ms time basis*/
  if (HAL_SYSTICK_Config(SystemCoreClock / (1000U / uwTickFreq)) > 0U)
 8000b3c:	4b12      	ldr	r3, [pc, #72]	; (8000b88 <HAL_InitTick+0x54>)
 8000b3e:	681a      	ldr	r2, [r3, #0]
 8000b40:	4b12      	ldr	r3, [pc, #72]	; (8000b8c <HAL_InitTick+0x58>)
 8000b42:	781b      	ldrb	r3, [r3, #0]
 8000b44:	4619      	mov	r1, r3
 8000b46:	f44f 737a 	mov.w	r3, #1000	; 0x3e8
 8000b4a:	fbb3 f3f1 	udiv	r3, r3, r1
 8000b4e:	fbb2 f3f3 	udiv	r3, r2, r3
 8000b52:	4618      	mov	r0, r3
 8000b54:	f000 f93b 	bl	8000dce <HAL_SYSTICK_Config>
 8000b58:	4603      	mov	r3, r0
 8000b5a:	2b00      	cmp	r3, #0
 8000b5c:	d001      	beq.n	8000b62 <HAL_InitTick+0x2e>
  {
    return HAL_ERROR;
 8000b5e:	2301      	movs	r3, #1
 8000b60:	e00e      	b.n	8000b80 <HAL_InitTick+0x4c>
  }

  /* Configure the SysTick IRQ priority */
  if (TickPriority < (1UL << __NVIC_PRIO_BITS))
 8000b62:	687b      	ldr	r3, [r7, #4]
 8000b64:	2b0f      	cmp	r3, #15
 8000b66:	d80a      	bhi.n	8000b7e <HAL_InitTick+0x4a>
  {
    HAL_NVIC_SetPriority(SysTick_IRQn, TickPriority, 0U);
 8000b68:	2200      	movs	r2, #0
 8000b6a:	6879      	ldr	r1, [r7, #4]
 8000b6c:	f04f 30ff 	mov.w	r0, #4294967295	; 0xffffffff
 8000b70:	f000 f911 	bl	8000d96 <HAL_NVIC_SetPriority>
    uwTickPrio = TickPriority;
 8000b74:	4a06      	ldr	r2, [pc, #24]	; (8000b90 <HAL_InitTick+0x5c>)
 8000b76:	687b      	ldr	r3, [r7, #4]
 8000b78:	6013      	str	r3, [r2, #0]
  {
    return HAL_ERROR;
  }

  /* Return function status */
  return HAL_OK;
 8000b7a:	2300      	movs	r3, #0
 8000b7c:	e000      	b.n	8000b80 <HAL_InitTick+0x4c>
    return HAL_ERROR;
 8000b7e:	2301      	movs	r3, #1
}
 8000b80:	4618      	mov	r0, r3
 8000b82:	3708      	adds	r7, #8
 8000b84:	46bd      	mov	sp, r7
 8000b86:	bd80      	pop	{r7, pc}
 8000b88:	20000000 	.word	0x20000000
 8000b8c:	20000008 	.word	0x20000008
 8000b90:	20000004 	.word	0x20000004

08000b94 <HAL_IncTick>:
 * @note This function is declared as __weak to be overwritten in case of other 
  *      implementations in user file.
  * @retval None
  */
__weak void HAL_IncTick(void)
{
 8000b94:	b480      	push	{r7}
 8000b96:	af00      	add	r7, sp, #0
  uwTick += uwTickFreq;
 8000b98:	4b06      	ldr	r3, [pc, #24]	; (8000bb4 <HAL_IncTick+0x20>)
 8000b9a:	781b      	ldrb	r3, [r3, #0]
 8000b9c:	461a      	mov	r2, r3
 8000b9e:	4b06      	ldr	r3, [pc, #24]	; (8000bb8 <HAL_IncTick+0x24>)
 8000ba0:	681b      	ldr	r3, [r3, #0]
 8000ba2:	4413      	add	r3, r2
 8000ba4:	4a04      	ldr	r2, [pc, #16]	; (8000bb8 <HAL_IncTick+0x24>)
 8000ba6:	6013      	str	r3, [r2, #0]
}
 8000ba8:	bf00      	nop
 8000baa:	46bd      	mov	sp, r7
 8000bac:	f85d 7b04 	ldr.w	r7, [sp], #4
 8000bb0:	4770      	bx	lr
 8000bb2:	bf00      	nop
 8000bb4:	20000008 	.word	0x20000008
 8000bb8:	200000b8 	.word	0x200000b8

08000bbc <HAL_GetTick>:
  * @note This function is declared as __weak to be overwritten in case of other 
  *       implementations in user file.
  * @retval tick value
  */
__weak uint32_t HAL_GetTick(void)
{
 8000bbc:	b480      	push	{r7}
 8000bbe:	af00      	add	r7, sp, #0
  return uwTick;
 8000bc0:	4b03      	ldr	r3, [pc, #12]	; (8000bd0 <HAL_GetTick+0x14>)
 8000bc2:	681b      	ldr	r3, [r3, #0]
}
 8000bc4:	4618      	mov	r0, r3
 8000bc6:	46bd      	mov	sp, r7
 8000bc8:	f85d 7b04 	ldr.w	r7, [sp], #4
 8000bcc:	4770      	bx	lr
 8000bce:	bf00      	nop
 8000bd0:	200000b8 	.word	0x200000b8

08000bd4 <HAL_Delay>:
  *       implementations in user file.
  * @param Delay specifies the delay time length, in milliseconds.
  * @retval None
  */
__weak void HAL_Delay(uint32_t Delay)
{
 8000bd4:	b580      	push	{r7, lr}
 8000bd6:	b084      	sub	sp, #16
 8000bd8:	af00      	add	r7, sp, #0
 8000bda:	6078      	str	r0, [r7, #4]
  uint32_t tickstart = HAL_GetTick();
 8000bdc:	f7ff ffee 	bl	8000bbc <HAL_GetTick>
 8000be0:	60b8      	str	r0, [r7, #8]
  uint32_t wait = Delay;
 8000be2:	687b      	ldr	r3, [r7, #4]
 8000be4:	60fb      	str	r3, [r7, #12]

  /* Add a freq to guarantee minimum wait */
  if (wait < HAL_MAX_DELAY)
 8000be6:	68fb      	ldr	r3, [r7, #12]
 8000be8:	f1b3 3fff 	cmp.w	r3, #4294967295	; 0xffffffff
 8000bec:	d005      	beq.n	8000bfa <HAL_Delay+0x26>
  {
    wait += (uint32_t)(uwTickFreq);
 8000bee:	4b0a      	ldr	r3, [pc, #40]	; (8000c18 <HAL_Delay+0x44>)
 8000bf0:	781b      	ldrb	r3, [r3, #0]
 8000bf2:	461a      	mov	r2, r3
 8000bf4:	68fb      	ldr	r3, [r7, #12]
 8000bf6:	4413      	add	r3, r2
 8000bf8:	60fb      	str	r3, [r7, #12]
  }

  while((HAL_GetTick() - tickstart) < wait)
 8000bfa:	bf00      	nop
 8000bfc:	f7ff ffde 	bl	8000bbc <HAL_GetTick>
 8000c00:	4602      	mov	r2, r0
 8000c02:	68bb      	ldr	r3, [r7, #8]
 8000c04:	1ad3      	subs	r3, r2, r3
 8000c06:	68fa      	ldr	r2, [r7, #12]
 8000c08:	429a      	cmp	r2, r3
 8000c0a:	d8f7      	bhi.n	8000bfc <HAL_Delay+0x28>
  {
  }
}
 8000c0c:	bf00      	nop
 8000c0e:	bf00      	nop
 8000c10:	3710      	adds	r7, #16
 8000c12:	46bd      	mov	sp, r7
 8000c14:	bd80      	pop	{r7, pc}
 8000c16:	bf00      	nop
 8000c18:	20000008 	.word	0x20000008

08000c1c <__NVIC_SetPriorityGrouping>:
           In case of a conflict between priority grouping and available
           priority bits (__NVIC_PRIO_BITS), the smallest possible priority group is set.
  \param [in]      PriorityGroup  Priority grouping field.
 */
__STATIC_INLINE void __NVIC_SetPriorityGrouping(uint32_t PriorityGroup)
{
 8000c1c:	b480      	push	{r7}
 8000c1e:	b085      	sub	sp, #20
 8000c20:	af00      	add	r7, sp, #0
 8000c22:	6078      	str	r0, [r7, #4]
  uint32_t reg_value;
  uint32_t PriorityGroupTmp = (PriorityGroup & (uint32_t)0x07UL);             /* only values 0..7 are used          */
 8000c24:	687b      	ldr	r3, [r7, #4]
 8000c26:	f003 0307 	and.w	r3, r3, #7
 8000c2a:	60fb      	str	r3, [r7, #12]

  reg_value  =  SCB->AIRCR;                                                   /* read old register configuration    */
 8000c2c:	4b0c      	ldr	r3, [pc, #48]	; (8000c60 <__NVIC_SetPriorityGrouping+0x44>)
 8000c2e:	68db      	ldr	r3, [r3, #12]
 8000c30:	60bb      	str	r3, [r7, #8]
  reg_value &= ~((uint32_t)(SCB_AIRCR_VECTKEY_Msk | SCB_AIRCR_PRIGROUP_Msk)); /* clear bits to change               */
 8000c32:	68ba      	ldr	r2, [r7, #8]
 8000c34:	f64f 03ff 	movw	r3, #63743	; 0xf8ff
 8000c38:	4013      	ands	r3, r2
 8000c3a:	60bb      	str	r3, [r7, #8]
  reg_value  =  (reg_value                                   |
                ((uint32_t)0x5FAUL << SCB_AIRCR_VECTKEY_Pos) |
                (PriorityGroupTmp << SCB_AIRCR_PRIGROUP_Pos)  );              /* Insert write key and priority group */
 8000c3c:	68fb      	ldr	r3, [r7, #12]
 8000c3e:	021a      	lsls	r2, r3, #8
                ((uint32_t)0x5FAUL << SCB_AIRCR_VECTKEY_Pos) |
 8000c40:	68bb      	ldr	r3, [r7, #8]
 8000c42:	4313      	orrs	r3, r2
  reg_value  =  (reg_value                                   |
 8000c44:	f043 63bf 	orr.w	r3, r3, #100139008	; 0x5f80000
 8000c48:	f443 3300 	orr.w	r3, r3, #131072	; 0x20000
 8000c4c:	60bb      	str	r3, [r7, #8]
  SCB->AIRCR =  reg_value;
 8000c4e:	4a04      	ldr	r2, [pc, #16]	; (8000c60 <__NVIC_SetPriorityGrouping+0x44>)
 8000c50:	68bb      	ldr	r3, [r7, #8]
 8000c52:	60d3      	str	r3, [r2, #12]
}
 8000c54:	bf00      	nop
 8000c56:	3714      	adds	r7, #20
 8000c58:	46bd      	mov	sp, r7
 8000c5a:	f85d 7b04 	ldr.w	r7, [sp], #4
 8000c5e:	4770      	bx	lr
 8000c60:	e000ed00 	.word	0xe000ed00

08000c64 <__NVIC_GetPriorityGrouping>:
  \brief   Get Priority Grouping
  \details Reads the priority grouping field from the NVIC Interrupt Controller.
  \return                Priority grouping field (SCB->AIRCR [10:8] PRIGROUP field).
 */
__STATIC_INLINE uint32_t __NVIC_GetPriorityGrouping(void)
{
 8000c64:	b480      	push	{r7}
 8000c66:	af00      	add	r7, sp, #0
  return ((uint32_t)((SCB->AIRCR & SCB_AIRCR_PRIGROUP_Msk) >> SCB_AIRCR_PRIGROUP_Pos));
 8000c68:	4b04      	ldr	r3, [pc, #16]	; (8000c7c <__NVIC_GetPriorityGrouping+0x18>)
 8000c6a:	68db      	ldr	r3, [r3, #12]
 8000c6c:	0a1b      	lsrs	r3, r3, #8
 8000c6e:	f003 0307 	and.w	r3, r3, #7
}
 8000c72:	4618      	mov	r0, r3
 8000c74:	46bd      	mov	sp, r7
 8000c76:	f85d 7b04 	ldr.w	r7, [sp], #4
 8000c7a:	4770      	bx	lr
 8000c7c:	e000ed00 	.word	0xe000ed00

08000c80 <__NVIC_SetPriority>:
  \param [in]      IRQn  Interrupt number.
  \param [in]  priority  Priority to set.
  \note    The priority cannot be set for every processor exception.
 */
__STATIC_INLINE void __NVIC_SetPriority(IRQn_Type IRQn, uint32_t priority)
{
 8000c80:	b480      	push	{r7}
 8000c82:	b083      	sub	sp, #12
 8000c84:	af00      	add	r7, sp, #0
 8000c86:	4603      	mov	r3, r0
 8000c88:	6039      	str	r1, [r7, #0]
 8000c8a:	71fb      	strb	r3, [r7, #7]
  if ((int32_t)(IRQn) >= 0)
 8000c8c:	f997 3007 	ldrsb.w	r3, [r7, #7]
 8000c90:	2b00      	cmp	r3, #0
 8000c92:	db0a      	blt.n	8000caa <__NVIC_SetPriority+0x2a>
  {
    NVIC->IP[((uint32_t)IRQn)]               = (uint8_t)((priority << (8U - __NVIC_PRIO_BITS)) & (uint32_t)0xFFUL);
 8000c94:	683b      	ldr	r3, [r7, #0]
 8000c96:	b2da      	uxtb	r2, r3
 8000c98:	490c      	ldr	r1, [pc, #48]	; (8000ccc <__NVIC_SetPriority+0x4c>)
 8000c9a:	f997 3007 	ldrsb.w	r3, [r7, #7]
 8000c9e:	0112      	lsls	r2, r2, #4
 8000ca0:	b2d2      	uxtb	r2, r2
 8000ca2:	440b      	add	r3, r1
 8000ca4:	f883 2300 	strb.w	r2, [r3, #768]	; 0x300
  }
  else
  {
    SCB->SHP[(((uint32_t)IRQn) & 0xFUL)-4UL] = (uint8_t)((priority << (8U - __NVIC_PRIO_BITS)) & (uint32_t)0xFFUL);
  }
}
 8000ca8:	e00a      	b.n	8000cc0 <__NVIC_SetPriority+0x40>
    SCB->SHP[(((uint32_t)IRQn) & 0xFUL)-4UL] = (uint8_t)((priority << (8U - __NVIC_PRIO_BITS)) & (uint32_t)0xFFUL);
 8000caa:	683b      	ldr	r3, [r7, #0]
 8000cac:	b2da      	uxtb	r2, r3
 8000cae:	4908      	ldr	r1, [pc, #32]	; (8000cd0 <__NVIC_SetPriority+0x50>)
 8000cb0:	79fb      	ldrb	r3, [r7, #7]
 8000cb2:	f003 030f 	and.w	r3, r3, #15
 8000cb6:	3b04      	subs	r3, #4
 8000cb8:	0112      	lsls	r2, r2, #4
 8000cba:	b2d2      	uxtb	r2, r2
 8000cbc:	440b      	add	r3, r1
 8000cbe:	761a      	strb	r2, [r3, #24]
}
 8000cc0:	bf00      	nop
 8000cc2:	370c      	adds	r7, #12
 8000cc4:	46bd      	mov	sp, r7
 8000cc6:	f85d 7b04 	ldr.w	r7, [sp], #4
 8000cca:	4770      	bx	lr
 8000ccc:	e000e100 	.word	0xe000e100
 8000cd0:	e000ed00 	.word	0xe000ed00

08000cd4 <NVIC_EncodePriority>:
  \param [in]   PreemptPriority  Preemptive priority value (starting from 0).
  \param [in]       SubPriority  Subpriority value (starting from 0).
  \return                        Encoded priority. Value can be used in the function \ref NVIC_SetPriority().
 */
__STATIC_INLINE uint32_t NVIC_EncodePriority (uint32_t PriorityGroup, uint32_t PreemptPriority, uint32_t SubPriority)
{
 8000cd4:	b480      	push	{r7}
 8000cd6:	b089      	sub	sp, #36	; 0x24
 8000cd8:	af00      	add	r7, sp, #0
 8000cda:	60f8      	str	r0, [r7, #12]
 8000cdc:	60b9      	str	r1, [r7, #8]
 8000cde:	607a      	str	r2, [r7, #4]
  uint32_t PriorityGroupTmp = (PriorityGroup & (uint32_t)0x07UL);   /* only values 0..7 are used          */
 8000ce0:	68fb      	ldr	r3, [r7, #12]
 8000ce2:	f003 0307 	and.w	r3, r3, #7
 8000ce6:	61fb      	str	r3, [r7, #28]
  uint32_t PreemptPriorityBits;
  uint32_t SubPriorityBits;

  PreemptPriorityBits = ((7UL - PriorityGroupTmp) > (uint32_t)(__NVIC_PRIO_BITS)) ? (uint32_t)(__NVIC_PRIO_BITS) : (uint32_t)(7UL - PriorityGroupTmp);
 8000ce8:	69fb      	ldr	r3, [r7, #28]
 8000cea:	f1c3 0307 	rsb	r3, r3, #7
 8000cee:	2b04      	cmp	r3, #4
 8000cf0:	bf28      	it	cs
 8000cf2:	2304      	movcs	r3, #4
 8000cf4:	61bb      	str	r3, [r7, #24]
  SubPriorityBits     = ((PriorityGroupTmp + (uint32_t)(__NVIC_PRIO_BITS)) < (uint32_t)7UL) ? (uint32_t)0UL : (uint32_t)((PriorityGroupTmp - 7UL) + (uint32_t)(__NVIC_PRIO_BITS));
 8000cf6:	69fb      	ldr	r3, [r7, #28]
 8000cf8:	3304      	adds	r3, #4
 8000cfa:	2b06      	cmp	r3, #6
 8000cfc:	d902      	bls.n	8000d04 <NVIC_EncodePriority+0x30>
 8000cfe:	69fb      	ldr	r3, [r7, #28]
 8000d00:	3b03      	subs	r3, #3
 8000d02:	e000      	b.n	8000d06 <NVIC_EncodePriority+0x32>
 8000d04:	2300      	movs	r3, #0
 8000d06:	617b      	str	r3, [r7, #20]

  return (
           ((PreemptPriority & (uint32_t)((1UL << (PreemptPriorityBits)) - 1UL)) << SubPriorityBits) |
 8000d08:	f04f 32ff 	mov.w	r2, #4294967295	; 0xffffffff
 8000d0c:	69bb      	ldr	r3, [r7, #24]
 8000d0e:	fa02 f303 	lsl.w	r3, r2, r3
 8000d12:	43da      	mvns	r2, r3
 8000d14:	68bb      	ldr	r3, [r7, #8]
 8000d16:	401a      	ands	r2, r3
 8000d18:	697b      	ldr	r3, [r7, #20]
 8000d1a:	409a      	lsls	r2, r3
           ((SubPriority     & (uint32_t)((1UL << (SubPriorityBits    )) - 1UL)))
 8000d1c:	f04f 31ff 	mov.w	r1, #4294967295	; 0xffffffff
 8000d20:	697b      	ldr	r3, [r7, #20]
 8000d22:	fa01 f303 	lsl.w	r3, r1, r3
 8000d26:	43d9      	mvns	r1, r3
 8000d28:	687b      	ldr	r3, [r7, #4]
 8000d2a:	400b      	ands	r3, r1
           ((PreemptPriority & (uint32_t)((1UL << (PreemptPriorityBits)) - 1UL)) << SubPriorityBits) |
 8000d2c:	4313      	orrs	r3, r2
         );
}
 8000d2e:	4618      	mov	r0, r3
 8000d30:	3724      	adds	r7, #36	; 0x24
 8000d32:	46bd      	mov	sp, r7
 8000d34:	f85d 7b04 	ldr.w	r7, [sp], #4
 8000d38:	4770      	bx	lr
	...

08000d3c <SysTick_Config>:
  \note    When the variable <b>__Vendor_SysTickConfig</b> is set to 1, then the
           function <b>SysTick_Config</b> is not included. In this case, the file <b><i>device</i>.h</b>
           must contain a vendor-specific implementation of this function.
 */
__STATIC_INLINE uint32_t SysTick_Config(uint32_t ticks)
{
 8000d3c:	b580      	push	{r7, lr}
 8000d3e:	b082      	sub	sp, #8
 8000d40:	af00      	add	r7, sp, #0
 8000d42:	6078      	str	r0, [r7, #4]
  if ((ticks - 1UL) > SysTick_LOAD_RELOAD_Msk)
 8000d44:	687b      	ldr	r3, [r7, #4]
 8000d46:	3b01      	subs	r3, #1
 8000d48:	f1b3 7f80 	cmp.w	r3, #16777216	; 0x1000000
 8000d4c:	d301      	bcc.n	8000d52 <SysTick_Config+0x16>
  {
    return (1UL);                                                   /* Reload value impossible */
 8000d4e:	2301      	movs	r3, #1
 8000d50:	e00f      	b.n	8000d72 <SysTick_Config+0x36>
  }

  SysTick->LOAD  = (uint32_t)(ticks - 1UL);                         /* set reload register */
 8000d52:	4a0a      	ldr	r2, [pc, #40]	; (8000d7c <SysTick_Config+0x40>)
 8000d54:	687b      	ldr	r3, [r7, #4]
 8000d56:	3b01      	subs	r3, #1
 8000d58:	6053      	str	r3, [r2, #4]
  NVIC_SetPriority (SysTick_IRQn, (1UL << __NVIC_PRIO_BITS) - 1UL); /* set Priority for Systick Interrupt */
 8000d5a:	210f      	movs	r1, #15
 8000d5c:	f04f 30ff 	mov.w	r0, #4294967295	; 0xffffffff
 8000d60:	f7ff ff8e 	bl	8000c80 <__NVIC_SetPriority>
  SysTick->VAL   = 0UL;                                             /* Load the SysTick Counter Value */
 8000d64:	4b05      	ldr	r3, [pc, #20]	; (8000d7c <SysTick_Config+0x40>)
 8000d66:	2200      	movs	r2, #0
 8000d68:	609a      	str	r2, [r3, #8]
  SysTick->CTRL  = SysTick_CTRL_CLKSOURCE_Msk |
 8000d6a:	4b04      	ldr	r3, [pc, #16]	; (8000d7c <SysTick_Config+0x40>)
 8000d6c:	2207      	movs	r2, #7
 8000d6e:	601a      	str	r2, [r3, #0]
                   SysTick_CTRL_TICKINT_Msk   |
                   SysTick_CTRL_ENABLE_Msk;                         /* Enable SysTick IRQ and SysTick Timer */
  return (0UL);                                                     /* Function successful */
 8000d70:	2300      	movs	r3, #0
}
 8000d72:	4618      	mov	r0, r3
 8000d74:	3708      	adds	r7, #8
 8000d76:	46bd      	mov	sp, r7
 8000d78:	bd80      	pop	{r7, pc}
 8000d7a:	bf00      	nop
 8000d7c:	e000e010 	.word	0xe000e010

08000d80 <HAL_NVIC_SetPriorityGrouping>:
  * @note   When the NVIC_PriorityGroup_0 is selected, IRQ preemption is no more possible. 
  *         The pending IRQ priority will be managed only by the subpriority. 
  * @retval None
  */
void HAL_NVIC_SetPriorityGrouping(uint32_t PriorityGroup)
{
 8000d80:	b580      	push	{r7, lr}
 8000d82:	b082      	sub	sp, #8
 8000d84:	af00      	add	r7, sp, #0
 8000d86:	6078      	str	r0, [r7, #4]
  /* Check the parameters */
  assert_param(IS_NVIC_PRIORITY_GROUP(PriorityGroup));
  
  /* Set the PRIGROUP[10:8] bits according to the PriorityGroup parameter value */
  NVIC_SetPriorityGrouping(PriorityGroup);
 8000d88:	6878      	ldr	r0, [r7, #4]
 8000d8a:	f7ff ff47 	bl	8000c1c <__NVIC_SetPriorityGrouping>
}
 8000d8e:	bf00      	nop
 8000d90:	3708      	adds	r7, #8
 8000d92:	46bd      	mov	sp, r7
 8000d94:	bd80      	pop	{r7, pc}

08000d96 <HAL_NVIC_SetPriority>:
  *         This parameter can be a value between 0 and 15
  *         A lower priority value indicates a higher priority.          
  * @retval None
  */
void HAL_NVIC_SetPriority(IRQn_Type IRQn, uint32_t PreemptPriority, uint32_t SubPriority)
{ 
 8000d96:	b580      	push	{r7, lr}
 8000d98:	b086      	sub	sp, #24
 8000d9a:	af00      	add	r7, sp, #0
 8000d9c:	4603      	mov	r3, r0
 8000d9e:	60b9      	str	r1, [r7, #8]
 8000da0:	607a      	str	r2, [r7, #4]
 8000da2:	73fb      	strb	r3, [r7, #15]
  uint32_t prioritygroup = 0x00U;
 8000da4:	2300      	movs	r3, #0
 8000da6:	617b      	str	r3, [r7, #20]
  
  /* Check the parameters */
  assert_param(IS_NVIC_SUB_PRIORITY(SubPriority));
  assert_param(IS_NVIC_PREEMPTION_PRIORITY(PreemptPriority));
  
  prioritygroup = NVIC_GetPriorityGrouping();
 8000da8:	f7ff ff5c 	bl	8000c64 <__NVIC_GetPriorityGrouping>
 8000dac:	6178      	str	r0, [r7, #20]
  
  NVIC_SetPriority(IRQn, NVIC_EncodePriority(prioritygroup, PreemptPriority, SubPriority));
 8000dae:	687a      	ldr	r2, [r7, #4]
 8000db0:	68b9      	ldr	r1, [r7, #8]
 8000db2:	6978      	ldr	r0, [r7, #20]
 8000db4:	f7ff ff8e 	bl	8000cd4 <NVIC_EncodePriority>
 8000db8:	4602      	mov	r2, r0
 8000dba:	f997 300f 	ldrsb.w	r3, [r7, #15]
 8000dbe:	4611      	mov	r1, r2
 8000dc0:	4618      	mov	r0, r3
 8000dc2:	f7ff ff5d 	bl	8000c80 <__NVIC_SetPriority>
}
 8000dc6:	bf00      	nop
 8000dc8:	3718      	adds	r7, #24
 8000dca:	46bd      	mov	sp, r7
 8000dcc:	bd80      	pop	{r7, pc}

08000dce <HAL_SYSTICK_Config>:
  * @param  TicksNumb Specifies the ticks Number of ticks between two interrupts.
  * @retval status:  - 0  Function succeeded.
  *                  - 1  Function failed.
  */
uint32_t HAL_SYSTICK_Config(uint32_t TicksNumb)
{
 8000dce:	b580      	push	{r7, lr}
 8000dd0:	b082      	sub	sp, #8
 8000dd2:	af00      	add	r7, sp, #0
 8000dd4:	6078      	str	r0, [r7, #4]
   return SysTick_Config(TicksNumb);
 8000dd6:	6878      	ldr	r0, [r7, #4]
 8000dd8:	f7ff ffb0 	bl	8000d3c <SysTick_Config>
 8000ddc:	4603      	mov	r3, r0
}
 8000dde:	4618      	mov	r0, r3
 8000de0:	3708      	adds	r7, #8
 8000de2:	46bd      	mov	sp, r7
 8000de4:	bd80      	pop	{r7, pc}
	...

08000de8 <HAL_GPIO_Init>:
  * @param  GPIO_Init pointer to a GPIO_InitTypeDef structure that contains
  *         the configuration information for the specified GPIO peripheral.
  * @retval None
  */
void HAL_GPIO_Init(GPIO_TypeDef  *GPIOx, GPIO_InitTypeDef *GPIO_Init)
{
 8000de8:	b480      	push	{r7}
 8000dea:	b089      	sub	sp, #36	; 0x24
 8000dec:	af00      	add	r7, sp, #0
 8000dee:	6078      	str	r0, [r7, #4]
 8000df0:	6039      	str	r1, [r7, #0]
  uint32_t position;
  uint32_t ioposition = 0x00U;
 8000df2:	2300      	movs	r3, #0
 8000df4:	617b      	str	r3, [r7, #20]
  uint32_t iocurrent = 0x00U;
 8000df6:	2300      	movs	r3, #0
 8000df8:	613b      	str	r3, [r7, #16]
  uint32_t temp = 0x00U;
 8000dfa:	2300      	movs	r3, #0
 8000dfc:	61bb      	str	r3, [r7, #24]
  assert_param(IS_GPIO_ALL_INSTANCE(GPIOx));
  assert_param(IS_GPIO_PIN(GPIO_Init->Pin));
  assert_param(IS_GPIO_MODE(GPIO_Init->Mode));

  /* Configure the port pins */
  for(position = 0U; position < GPIO_NUMBER; position++)
 8000dfe:	2300      	movs	r3, #0
 8000e00:	61fb      	str	r3, [r7, #28]
 8000e02:	e159      	b.n	80010b8 <HAL_GPIO_Init+0x2d0>
  {
    /* Get the IO position */
    ioposition = 0x01U << position;
 8000e04:	2201      	movs	r2, #1
 8000e06:	69fb      	ldr	r3, [r7, #28]
 8000e08:	fa02 f303 	lsl.w	r3, r2, r3
 8000e0c:	617b      	str	r3, [r7, #20]
    /* Get the current IO position */
    iocurrent = (uint32_t)(GPIO_Init->Pin) & ioposition;
 8000e0e:	683b      	ldr	r3, [r7, #0]
 8000e10:	681b      	ldr	r3, [r3, #0]
 8000e12:	697a      	ldr	r2, [r7, #20]
 8000e14:	4013      	ands	r3, r2
 8000e16:	613b      	str	r3, [r7, #16]

    if(iocurrent == ioposition)
 8000e18:	693a      	ldr	r2, [r7, #16]
 8000e1a:	697b      	ldr	r3, [r7, #20]
 8000e1c:	429a      	cmp	r2, r3
 8000e1e:	f040 8148 	bne.w	80010b2 <HAL_GPIO_Init+0x2ca>
    {
      /*--------------------- GPIO Mode Configuration ------------------------*/
      /* In case of Output or Alternate function mode selection */
      if(((GPIO_Init->Mode & GPIO_MODE) == MODE_OUTPUT) || \
 8000e22:	683b      	ldr	r3, [r7, #0]
 8000e24:	685b      	ldr	r3, [r3, #4]
 8000e26:	f003 0303 	and.w	r3, r3, #3
 8000e2a:	2b01      	cmp	r3, #1
 8000e2c:	d005      	beq.n	8000e3a <HAL_GPIO_Init+0x52>
          (GPIO_Init->Mode & GPIO_MODE) == MODE_AF)
 8000e2e:	683b      	ldr	r3, [r7, #0]
 8000e30:	685b      	ldr	r3, [r3, #4]
 8000e32:	f003 0303 	and.w	r3, r3, #3
      if(((GPIO_Init->Mode & GPIO_MODE) == MODE_OUTPUT) || \
 8000e36:	2b02      	cmp	r3, #2
 8000e38:	d130      	bne.n	8000e9c <HAL_GPIO_Init+0xb4>
      {
        /* Check the Speed parameter */
        assert_param(IS_GPIO_SPEED(GPIO_Init->Speed));
        /* Configure the IO Speed */
        temp = GPIOx->OSPEEDR; 
 8000e3a:	687b      	ldr	r3, [r7, #4]
 8000e3c:	689b      	ldr	r3, [r3, #8]
 8000e3e:	61bb      	str	r3, [r7, #24]
        temp &= ~(GPIO_OSPEEDER_OSPEEDR0 << (position * 2U));
 8000e40:	69fb      	ldr	r3, [r7, #28]
 8000e42:	005b      	lsls	r3, r3, #1
 8000e44:	2203      	movs	r2, #3
 8000e46:	fa02 f303 	lsl.w	r3, r2, r3
 8000e4a:	43db      	mvns	r3, r3
 8000e4c:	69ba      	ldr	r2, [r7, #24]
 8000e4e:	4013      	ands	r3, r2
 8000e50:	61bb      	str	r3, [r7, #24]
        temp |= (GPIO_Init->Speed << (position * 2U));
 8000e52:	683b      	ldr	r3, [r7, #0]
 8000e54:	68da      	ldr	r2, [r3, #12]
 8000e56:	69fb      	ldr	r3, [r7, #28]
 8000e58:	005b      	lsls	r3, r3, #1
 8000e5a:	fa02 f303 	lsl.w	r3, r2, r3
 8000e5e:	69ba      	ldr	r2, [r7, #24]
 8000e60:	4313      	orrs	r3, r2
 8000e62:	61bb      	str	r3, [r7, #24]
        GPIOx->OSPEEDR = temp;
 8000e64:	687b      	ldr	r3, [r7, #4]
 8000e66:	69ba      	ldr	r2, [r7, #24]
 8000e68:	609a      	str	r2, [r3, #8]

        /* Configure the IO Output Type */
        temp = GPIOx->OTYPER;
 8000e6a:	687b      	ldr	r3, [r7, #4]
 8000e6c:	685b      	ldr	r3, [r3, #4]
 8000e6e:	61bb      	str	r3, [r7, #24]
        temp &= ~(GPIO_OTYPER_OT_0 << position) ;
 8000e70:	2201      	movs	r2, #1
 8000e72:	69fb      	ldr	r3, [r7, #28]
 8000e74:	fa02 f303 	lsl.w	r3, r2, r3
 8000e78:	43db      	mvns	r3, r3
 8000e7a:	69ba      	ldr	r2, [r7, #24]
 8000e7c:	4013      	ands	r3, r2
 8000e7e:	61bb      	str	r3, [r7, #24]
        temp |= (((GPIO_Init->Mode & OUTPUT_TYPE) >> OUTPUT_TYPE_Pos) << position);
 8000e80:	683b      	ldr	r3, [r7, #0]
 8000e82:	685b      	ldr	r3, [r3, #4]
 8000e84:	091b      	lsrs	r3, r3, #4
 8000e86:	f003 0201 	and.w	r2, r3, #1
 8000e8a:	69fb      	ldr	r3, [r7, #28]
 8000e8c:	fa02 f303 	lsl.w	r3, r2, r3
 8000e90:	69ba      	ldr	r2, [r7, #24]
 8000e92:	4313      	orrs	r3, r2
 8000e94:	61bb      	str	r3, [r7, #24]
        GPIOx->OTYPER = temp;
 8000e96:	687b      	ldr	r3, [r7, #4]
 8000e98:	69ba      	ldr	r2, [r7, #24]
 8000e9a:	605a      	str	r2, [r3, #4]
       }

      if((GPIO_Init->Mode & GPIO_MODE) != MODE_ANALOG)
 8000e9c:	683b      	ldr	r3, [r7, #0]
 8000e9e:	685b      	ldr	r3, [r3, #4]
 8000ea0:	f003 0303 	and.w	r3, r3, #3
 8000ea4:	2b03      	cmp	r3, #3
 8000ea6:	d017      	beq.n	8000ed8 <HAL_GPIO_Init+0xf0>
      {
        /* Check the parameters */
        assert_param(IS_GPIO_PULL(GPIO_Init->Pull));
        
        /* Activate the Pull-up or Pull down resistor for the current IO */
        temp = GPIOx->PUPDR;
 8000ea8:	687b      	ldr	r3, [r7, #4]
 8000eaa:	68db      	ldr	r3, [r3, #12]
 8000eac:	61bb      	str	r3, [r7, #24]
        temp &= ~(GPIO_PUPDR_PUPDR0 << (position * 2U));
 8000eae:	69fb      	ldr	r3, [r7, #28]
 8000eb0:	005b      	lsls	r3, r3, #1
 8000eb2:	2203      	movs	r2, #3
 8000eb4:	fa02 f303 	lsl.w	r3, r2, r3
 8000eb8:	43db      	mvns	r3, r3
 8000eba:	69ba      	ldr	r2, [r7, #24]
 8000ebc:	4013      	ands	r3, r2
 8000ebe:	61bb      	str	r3, [r7, #24]
        temp |= ((GPIO_Init->Pull) << (position * 2U));
 8000ec0:	683b      	ldr	r3, [r7, #0]
 8000ec2:	689a      	ldr	r2, [r3, #8]
 8000ec4:	69fb      	ldr	r3, [r7, #28]
 8000ec6:	005b      	lsls	r3, r3, #1
 8000ec8:	fa02 f303 	lsl.w	r3, r2, r3
 8000ecc:	69ba      	ldr	r2, [r7, #24]
 8000ece:	4313      	orrs	r3, r2
 8000ed0:	61bb      	str	r3, [r7, #24]
        GPIOx->PUPDR = temp;
 8000ed2:	687b      	ldr	r3, [r7, #4]
 8000ed4:	69ba      	ldr	r2, [r7, #24]
 8000ed6:	60da      	str	r2, [r3, #12]
      }

      /* In case of Alternate function mode selection */
      if((GPIO_Init->Mode & GPIO_MODE) == MODE_AF)
 8000ed8:	683b      	ldr	r3, [r7, #0]
 8000eda:	685b      	ldr	r3, [r3, #4]
 8000edc:	f003 0303 	and.w	r3, r3, #3
 8000ee0:	2b02      	cmp	r3, #2
 8000ee2:	d123      	bne.n	8000f2c <HAL_GPIO_Init+0x144>
      {
        /* Check the Alternate function parameter */
        assert_param(IS_GPIO_AF(GPIO_Init->Alternate));
        /* Configure Alternate function mapped with the current IO */
        temp = GPIOx->AFR[position >> 3U];
 8000ee4:	69fb      	ldr	r3, [r7, #28]
 8000ee6:	08da      	lsrs	r2, r3, #3
 8000ee8:	687b      	ldr	r3, [r7, #4]
 8000eea:	3208      	adds	r2, #8
 8000eec:	f853 3022 	ldr.w	r3, [r3, r2, lsl #2]
 8000ef0:	61bb      	str	r3, [r7, #24]
        temp &= ~(0xFU << ((uint32_t)(position & 0x07U) * 4U)) ;
 8000ef2:	69fb      	ldr	r3, [r7, #28]
 8000ef4:	f003 0307 	and.w	r3, r3, #7
 8000ef8:	009b      	lsls	r3, r3, #2
 8000efa:	220f      	movs	r2, #15
 8000efc:	fa02 f303 	lsl.w	r3, r2, r3
 8000f00:	43db      	mvns	r3, r3
 8000f02:	69ba      	ldr	r2, [r7, #24]
 8000f04:	4013      	ands	r3, r2
 8000f06:	61bb      	str	r3, [r7, #24]
        temp |= ((uint32_t)(GPIO_Init->Alternate) << (((uint32_t)position & 0x07U) * 4U));
 8000f08:	683b      	ldr	r3, [r7, #0]
 8000f0a:	691a      	ldr	r2, [r3, #16]
 8000f0c:	69fb      	ldr	r3, [r7, #28]
 8000f0e:	f003 0307 	and.w	r3, r3, #7
 8000f12:	009b      	lsls	r3, r3, #2
 8000f14:	fa02 f303 	lsl.w	r3, r2, r3
 8000f18:	69ba      	ldr	r2, [r7, #24]
 8000f1a:	4313      	orrs	r3, r2
 8000f1c:	61bb      	str	r3, [r7, #24]
        GPIOx->AFR[position >> 3U] = temp;
 8000f1e:	69fb      	ldr	r3, [r7, #28]
 8000f20:	08da      	lsrs	r2, r3, #3
 8000f22:	687b      	ldr	r3, [r7, #4]
 8000f24:	3208      	adds	r2, #8
 8000f26:	69b9      	ldr	r1, [r7, #24]
 8000f28:	f843 1022 	str.w	r1, [r3, r2, lsl #2]
      }

      /* Configure IO Direction mode (Input, Output, Alternate or Analog) */
      temp = GPIOx->MODER;
 8000f2c:	687b      	ldr	r3, [r7, #4]
 8000f2e:	681b      	ldr	r3, [r3, #0]
 8000f30:	61bb      	str	r3, [r7, #24]
      temp &= ~(GPIO_MODER_MODER0 << (position * 2U));
 8000f32:	69fb      	ldr	r3, [r7, #28]
 8000f34:	005b      	lsls	r3, r3, #1
 8000f36:	2203      	movs	r2, #3
 8000f38:	fa02 f303 	lsl.w	r3, r2, r3
 8000f3c:	43db      	mvns	r3, r3
 8000f3e:	69ba      	ldr	r2, [r7, #24]
 8000f40:	4013      	ands	r3, r2
 8000f42:	61bb      	str	r3, [r7, #24]
      temp |= ((GPIO_Init->Mode & GPIO_MODE) << (position * 2U));
 8000f44:	683b      	ldr	r3, [r7, #0]
 8000f46:	685b      	ldr	r3, [r3, #4]
 8000f48:	f003 0203 	and.w	r2, r3, #3
 8000f4c:	69fb      	ldr	r3, [r7, #28]
 8000f4e:	005b      	lsls	r3, r3, #1
 8000f50:	fa02 f303 	lsl.w	r3, r2, r3
 8000f54:	69ba      	ldr	r2, [r7, #24]
 8000f56:	4313      	orrs	r3, r2
 8000f58:	61bb      	str	r3, [r7, #24]
      GPIOx->MODER = temp;
 8000f5a:	687b      	ldr	r3, [r7, #4]
 8000f5c:	69ba      	ldr	r2, [r7, #24]
 8000f5e:	601a      	str	r2, [r3, #0]

      /*--------------------- EXTI Mode Configuration ------------------------*/
      /* Configure the External Interrupt or event for the current IO */
      if((GPIO_Init->Mode & EXTI_MODE) != 0x00U)
 8000f60:	683b      	ldr	r3, [r7, #0]
 8000f62:	685b      	ldr	r3, [r3, #4]
 8000f64:	f403 3340 	and.w	r3, r3, #196608	; 0x30000
 8000f68:	2b00      	cmp	r3, #0
 8000f6a:	f000 80a2 	beq.w	80010b2 <HAL_GPIO_Init+0x2ca>
      {
        /* Enable SYSCFG Clock */
        __HAL_RCC_SYSCFG_CLK_ENABLE();
 8000f6e:	2300      	movs	r3, #0
 8000f70:	60fb      	str	r3, [r7, #12]
 8000f72:	4b57      	ldr	r3, [pc, #348]	; (80010d0 <HAL_GPIO_Init+0x2e8>)
 8000f74:	6c5b      	ldr	r3, [r3, #68]	; 0x44
 8000f76:	4a56      	ldr	r2, [pc, #344]	; (80010d0 <HAL_GPIO_Init+0x2e8>)
 8000f78:	f443 4380 	orr.w	r3, r3, #16384	; 0x4000
 8000f7c:	6453      	str	r3, [r2, #68]	; 0x44
 8000f7e:	4b54      	ldr	r3, [pc, #336]	; (80010d0 <HAL_GPIO_Init+0x2e8>)
 8000f80:	6c5b      	ldr	r3, [r3, #68]	; 0x44
 8000f82:	f403 4380 	and.w	r3, r3, #16384	; 0x4000
 8000f86:	60fb      	str	r3, [r7, #12]
 8000f88:	68fb      	ldr	r3, [r7, #12]

        temp = SYSCFG->EXTICR[position >> 2U];
 8000f8a:	4a52      	ldr	r2, [pc, #328]	; (80010d4 <HAL_GPIO_Init+0x2ec>)
 8000f8c:	69fb      	ldr	r3, [r7, #28]
 8000f8e:	089b      	lsrs	r3, r3, #2
 8000f90:	3302      	adds	r3, #2
 8000f92:	f852 3023 	ldr.w	r3, [r2, r3, lsl #2]
 8000f96:	61bb      	str	r3, [r7, #24]
        temp &= ~(0x0FU << (4U * (position & 0x03U)));
 8000f98:	69fb      	ldr	r3, [r7, #28]
 8000f9a:	f003 0303 	and.w	r3, r3, #3
 8000f9e:	009b      	lsls	r3, r3, #2
 8000fa0:	220f      	movs	r2, #15
 8000fa2:	fa02 f303 	lsl.w	r3, r2, r3
 8000fa6:	43db      	mvns	r3, r3
 8000fa8:	69ba      	ldr	r2, [r7, #24]
 8000faa:	4013      	ands	r3, r2
 8000fac:	61bb      	str	r3, [r7, #24]
        temp |= ((uint32_t)(GPIO_GET_INDEX(GPIOx)) << (4U * (position & 0x03U)));
 8000fae:	687b      	ldr	r3, [r7, #4]
 8000fb0:	4a49      	ldr	r2, [pc, #292]	; (80010d8 <HAL_GPIO_Init+0x2f0>)
 8000fb2:	4293      	cmp	r3, r2
 8000fb4:	d019      	beq.n	8000fea <HAL_GPIO_Init+0x202>
 8000fb6:	687b      	ldr	r3, [r7, #4]
 8000fb8:	4a48      	ldr	r2, [pc, #288]	; (80010dc <HAL_GPIO_Init+0x2f4>)
 8000fba:	4293      	cmp	r3, r2
 8000fbc:	d013      	beq.n	8000fe6 <HAL_GPIO_Init+0x1fe>
 8000fbe:	687b      	ldr	r3, [r7, #4]
 8000fc0:	4a47      	ldr	r2, [pc, #284]	; (80010e0 <HAL_GPIO_Init+0x2f8>)
 8000fc2:	4293      	cmp	r3, r2
 8000fc4:	d00d      	beq.n	8000fe2 <HAL_GPIO_Init+0x1fa>
 8000fc6:	687b      	ldr	r3, [r7, #4]
 8000fc8:	4a46      	ldr	r2, [pc, #280]	; (80010e4 <HAL_GPIO_Init+0x2fc>)
 8000fca:	4293      	cmp	r3, r2
 8000fcc:	d007      	beq.n	8000fde <HAL_GPIO_Init+0x1f6>
 8000fce:	687b      	ldr	r3, [r7, #4]
 8000fd0:	4a45      	ldr	r2, [pc, #276]	; (80010e8 <HAL_GPIO_Init+0x300>)
 8000fd2:	4293      	cmp	r3, r2
 8000fd4:	d101      	bne.n	8000fda <HAL_GPIO_Init+0x1f2>
 8000fd6:	2304      	movs	r3, #4
 8000fd8:	e008      	b.n	8000fec <HAL_GPIO_Init+0x204>
 8000fda:	2307      	movs	r3, #7
 8000fdc:	e006      	b.n	8000fec <HAL_GPIO_Init+0x204>
 8000fde:	2303      	movs	r3, #3
 8000fe0:	e004      	b.n	8000fec <HAL_GPIO_Init+0x204>
 8000fe2:	2302      	movs	r3, #2
 8000fe4:	e002      	b.n	8000fec <HAL_GPIO_Init+0x204>
 8000fe6:	2301      	movs	r3, #1
 8000fe8:	e000      	b.n	8000fec <HAL_GPIO_Init+0x204>
 8000fea:	2300      	movs	r3, #0
 8000fec:	69fa      	ldr	r2, [r7, #28]
 8000fee:	f002 0203 	and.w	r2, r2, #3
 8000ff2:	0092      	lsls	r2, r2, #2
 8000ff4:	4093      	lsls	r3, r2
 8000ff6:	69ba      	ldr	r2, [r7, #24]
 8000ff8:	4313      	orrs	r3, r2
 8000ffa:	61bb      	str	r3, [r7, #24]
        SYSCFG->EXTICR[position >> 2U] = temp;
 8000ffc:	4935      	ldr	r1, [pc, #212]	; (80010d4 <HAL_GPIO_Init+0x2ec>)
 8000ffe:	69fb      	ldr	r3, [r7, #28]
 8001000:	089b      	lsrs	r3, r3, #2
 8001002:	3302      	adds	r3, #2
 8001004:	69ba      	ldr	r2, [r7, #24]
 8001006:	f841 2023 	str.w	r2, [r1, r3, lsl #2]

        /* Clear EXTI line configuration */
        temp = EXTI->IMR;
 800100a:	4b38      	ldr	r3, [pc, #224]	; (80010ec <HAL_GPIO_Init+0x304>)
 800100c:	681b      	ldr	r3, [r3, #0]
 800100e:	61bb      	str	r3, [r7, #24]
        temp &= ~((uint32_t)iocurrent);
 8001010:	693b      	ldr	r3, [r7, #16]
 8001012:	43db      	mvns	r3, r3
 8001014:	69ba      	ldr	r2, [r7, #24]
 8001016:	4013      	ands	r3, r2
 8001018:	61bb      	str	r3, [r7, #24]
        if((GPIO_Init->Mode & EXTI_IT) != 0x00U)
 800101a:	683b      	ldr	r3, [r7, #0]
 800101c:	685b      	ldr	r3, [r3, #4]
 800101e:	f403 3380 	and.w	r3, r3, #65536	; 0x10000
 8001022:	2b00      	cmp	r3, #0
 8001024:	d003      	beq.n	800102e <HAL_GPIO_Init+0x246>
        {
          temp |= iocurrent;
 8001026:	69ba      	ldr	r2, [r7, #24]
 8001028:	693b      	ldr	r3, [r7, #16]
 800102a:	4313      	orrs	r3, r2
 800102c:	61bb      	str	r3, [r7, #24]
        }
        EXTI->IMR = temp;
 800102e:	4a2f      	ldr	r2, [pc, #188]	; (80010ec <HAL_GPIO_Init+0x304>)
 8001030:	69bb      	ldr	r3, [r7, #24]
 8001032:	6013      	str	r3, [r2, #0]

        temp = EXTI->EMR;
 8001034:	4b2d      	ldr	r3, [pc, #180]	; (80010ec <HAL_GPIO_Init+0x304>)
 8001036:	685b      	ldr	r3, [r3, #4]
 8001038:	61bb      	str	r3, [r7, #24]
        temp &= ~((uint32_t)iocurrent);
 800103a:	693b      	ldr	r3, [r7, #16]
 800103c:	43db      	mvns	r3, r3
 800103e:	69ba      	ldr	r2, [r7, #24]
 8001040:	4013      	ands	r3, r2
 8001042:	61bb      	str	r3, [r7, #24]
        if((GPIO_Init->Mode & EXTI_EVT) != 0x00U)
 8001044:	683b      	ldr	r3, [r7, #0]
 8001046:	685b      	ldr	r3, [r3, #4]
 8001048:	f403 3300 	and.w	r3, r3, #131072	; 0x20000
 800104c:	2b00      	cmp	r3, #0
 800104e:	d003      	beq.n	8001058 <HAL_GPIO_Init+0x270>
        {
          temp |= iocurrent;
 8001050:	69ba      	ldr	r2, [r7, #24]
 8001052:	693b      	ldr	r3, [r7, #16]
 8001054:	4313      	orrs	r3, r2
 8001056:	61bb      	str	r3, [r7, #24]
        }
        EXTI->EMR = temp;
 8001058:	4a24      	ldr	r2, [pc, #144]	; (80010ec <HAL_GPIO_Init+0x304>)
 800105a:	69bb      	ldr	r3, [r7, #24]
 800105c:	6053      	str	r3, [r2, #4]

        /* Clear Rising Falling edge configuration */
        temp = EXTI->RTSR;
 800105e:	4b23      	ldr	r3, [pc, #140]	; (80010ec <HAL_GPIO_Init+0x304>)
 8001060:	689b      	ldr	r3, [r3, #8]
 8001062:	61bb      	str	r3, [r7, #24]
        temp &= ~((uint32_t)iocurrent);
 8001064:	693b      	ldr	r3, [r7, #16]
 8001066:	43db      	mvns	r3, r3
 8001068:	69ba      	ldr	r2, [r7, #24]
 800106a:	4013      	ands	r3, r2
 800106c:	61bb      	str	r3, [r7, #24]
        if((GPIO_Init->Mode & TRIGGER_RISING) != 0x00U)
 800106e:	683b      	ldr	r3, [r7, #0]
 8001070:	685b      	ldr	r3, [r3, #4]
 8001072:	f403 1380 	and.w	r3, r3, #1048576	; 0x100000
 8001076:	2b00      	cmp	r3, #0
 8001078:	d003      	beq.n	8001082 <HAL_GPIO_Init+0x29a>
        {
          temp |= iocurrent;
 800107a:	69ba      	ldr	r2, [r7, #24]
 800107c:	693b      	ldr	r3, [r7, #16]
 800107e:	4313      	orrs	r3, r2
 8001080:	61bb      	str	r3, [r7, #24]
        }
        EXTI->RTSR = temp;
 8001082:	4a1a      	ldr	r2, [pc, #104]	; (80010ec <HAL_GPIO_Init+0x304>)
 8001084:	69bb      	ldr	r3, [r7, #24]
 8001086:	6093      	str	r3, [r2, #8]

        temp = EXTI->FTSR;
 8001088:	4b18      	ldr	r3, [pc, #96]	; (80010ec <HAL_GPIO_Init+0x304>)
 800108a:	68db      	ldr	r3, [r3, #12]
 800108c:	61bb      	str	r3, [r7, #24]
        temp &= ~((uint32_t)iocurrent);
 800108e:	693b      	ldr	r3, [r7, #16]
 8001090:	43db      	mvns	r3, r3
 8001092:	69ba      	ldr	r2, [r7, #24]
 8001094:	4013      	ands	r3, r2
 8001096:	61bb      	str	r3, [r7, #24]
        if((GPIO_Init->Mode & TRIGGER_FALLING) != 0x00U)
 8001098:	683b      	ldr	r3, [r7, #0]
 800109a:	685b      	ldr	r3, [r3, #4]
 800109c:	f403 1300 	and.w	r3, r3, #2097152	; 0x200000
 80010a0:	2b00      	cmp	r3, #0
 80010a2:	d003      	beq.n	80010ac <HAL_GPIO_Init+0x2c4>
        {
          temp |= iocurrent;
 80010a4:	69ba      	ldr	r2, [r7, #24]
 80010a6:	693b      	ldr	r3, [r7, #16]
 80010a8:	4313      	orrs	r3, r2
 80010aa:	61bb      	str	r3, [r7, #24]
        }
        EXTI->FTSR = temp;
 80010ac:	4a0f      	ldr	r2, [pc, #60]	; (80010ec <HAL_GPIO_Init+0x304>)
 80010ae:	69bb      	ldr	r3, [r7, #24]
 80010b0:	60d3      	str	r3, [r2, #12]
  for(position = 0U; position < GPIO_NUMBER; position++)
 80010b2:	69fb      	ldr	r3, [r7, #28]
 80010b4:	3301      	adds	r3, #1
 80010b6:	61fb      	str	r3, [r7, #28]
 80010b8:	69fb      	ldr	r3, [r7, #28]
 80010ba:	2b0f      	cmp	r3, #15
 80010bc:	f67f aea2 	bls.w	8000e04 <HAL_GPIO_Init+0x1c>
      }
    }
  }
}
 80010c0:	bf00      	nop
 80010c2:	bf00      	nop
 80010c4:	3724      	adds	r7, #36	; 0x24
 80010c6:	46bd      	mov	sp, r7
 80010c8:	f85d 7b04 	ldr.w	r7, [sp], #4
 80010cc:	4770      	bx	lr
 80010ce:	bf00      	nop
 80010d0:	40023800 	.word	0x40023800
 80010d4:	40013800 	.word	0x40013800
 80010d8:	40020000 	.word	0x40020000
 80010dc:	40020400 	.word	0x40020400
 80010e0:	40020800 	.word	0x40020800
 80010e4:	40020c00 	.word	0x40020c00
 80010e8:	40021000 	.word	0x40021000
 80010ec:	40013c00 	.word	0x40013c00

080010f0 <HAL_RCC_OscConfig>:
  *         supported by this API. User should request a transition to HSE Off
  *         first and then HSE On or HSE Bypass.
  * @retval HAL status
  */
__weak HAL_StatusTypeDef HAL_RCC_OscConfig(RCC_OscInitTypeDef  *RCC_OscInitStruct)
{
 80010f0:	b580      	push	{r7, lr}
 80010f2:	b086      	sub	sp, #24
 80010f4:	af00      	add	r7, sp, #0
 80010f6:	6078      	str	r0, [r7, #4]
  uint32_t tickstart, pll_config;

  /* Check Null pointer */
  if(RCC_OscInitStruct == NULL)
 80010f8:	687b      	ldr	r3, [r7, #4]
 80010fa:	2b00      	cmp	r3, #0
 80010fc:	d101      	bne.n	8001102 <HAL_RCC_OscConfig+0x12>
  {
    return HAL_ERROR;
 80010fe:	2301      	movs	r3, #1
 8001100:	e264      	b.n	80015cc <HAL_RCC_OscConfig+0x4dc>
  }

  /* Check the parameters */
  assert_param(IS_RCC_OSCILLATORTYPE(RCC_OscInitStruct->OscillatorType));
  /*------------------------------- HSE Configuration ------------------------*/
  if(((RCC_OscInitStruct->OscillatorType) & RCC_OSCILLATORTYPE_HSE) == RCC_OSCILLATORTYPE_HSE)
 8001102:	687b      	ldr	r3, [r7, #4]
 8001104:	681b      	ldr	r3, [r3, #0]
 8001106:	f003 0301 	and.w	r3, r3, #1
 800110a:	2b00      	cmp	r3, #0
 800110c:	d075      	beq.n	80011fa <HAL_RCC_OscConfig+0x10a>
  {
    /* Check the parameters */
    assert_param(IS_RCC_HSE(RCC_OscInitStruct->HSEState));
    /* When the HSE is used as system clock or clock source for PLL in these cases HSE will not disabled */
    if((__HAL_RCC_GET_SYSCLK_SOURCE() == RCC_CFGR_SWS_HSE) ||\
 800110e:	4ba3      	ldr	r3, [pc, #652]	; (800139c <HAL_RCC_OscConfig+0x2ac>)
 8001110:	689b      	ldr	r3, [r3, #8]
 8001112:	f003 030c 	and.w	r3, r3, #12
 8001116:	2b04      	cmp	r3, #4
 8001118:	d00c      	beq.n	8001134 <HAL_RCC_OscConfig+0x44>
      ((__HAL_RCC_GET_SYSCLK_SOURCE() == RCC_CFGR_SWS_PLL) && ((RCC->PLLCFGR & RCC_PLLCFGR_PLLSRC) == RCC_PLLCFGR_PLLSRC_HSE)))
 800111a:	4ba0      	ldr	r3, [pc, #640]	; (800139c <HAL_RCC_OscConfig+0x2ac>)
 800111c:	689b      	ldr	r3, [r3, #8]
 800111e:	f003 030c 	and.w	r3, r3, #12
    if((__HAL_RCC_GET_SYSCLK_SOURCE() == RCC_CFGR_SWS_HSE) ||\
 8001122:	2b08      	cmp	r3, #8
 8001124:	d112      	bne.n	800114c <HAL_RCC_OscConfig+0x5c>
      ((__HAL_RCC_GET_SYSCLK_SOURCE() == RCC_CFGR_SWS_PLL) && ((RCC->PLLCFGR & RCC_PLLCFGR_PLLSRC) == RCC_PLLCFGR_PLLSRC_HSE)))
 8001126:	4b9d      	ldr	r3, [pc, #628]	; (800139c <HAL_RCC_OscConfig+0x2ac>)
 8001128:	685b      	ldr	r3, [r3, #4]
 800112a:	f403 0380 	and.w	r3, r3, #4194304	; 0x400000
 800112e:	f5b3 0f80 	cmp.w	r3, #4194304	; 0x400000
 8001132:	d10b      	bne.n	800114c <HAL_RCC_OscConfig+0x5c>
    {
      if((__HAL_RCC_GET_FLAG(RCC_FLAG_HSERDY) != RESET) && (RCC_OscInitStruct->HSEState == RCC_HSE_OFF))
 8001134:	4b99      	ldr	r3, [pc, #612]	; (800139c <HAL_RCC_OscConfig+0x2ac>)
 8001136:	681b      	ldr	r3, [r3, #0]
 8001138:	f403 3300 	and.w	r3, r3, #131072	; 0x20000
 800113c:	2b00      	cmp	r3, #0
 800113e:	d05b      	beq.n	80011f8 <HAL_RCC_OscConfig+0x108>
 8001140:	687b      	ldr	r3, [r7, #4]
 8001142:	685b      	ldr	r3, [r3, #4]
 8001144:	2b00      	cmp	r3, #0
 8001146:	d157      	bne.n	80011f8 <HAL_RCC_OscConfig+0x108>
      {
        return HAL_ERROR;
 8001148:	2301      	movs	r3, #1
 800114a:	e23f      	b.n	80015cc <HAL_RCC_OscConfig+0x4dc>
      }
    }
    else
    {
      /* Set the new HSE configuration ---------------------------------------*/
      __HAL_RCC_HSE_CONFIG(RCC_OscInitStruct->HSEState);
 800114c:	687b      	ldr	r3, [r7, #4]
 800114e:	685b      	ldr	r3, [r3, #4]
 8001150:	f5b3 3f80 	cmp.w	r3, #65536	; 0x10000
 8001154:	d106      	bne.n	8001164 <HAL_RCC_OscConfig+0x74>
 8001156:	4b91      	ldr	r3, [pc, #580]	; (800139c <HAL_RCC_OscConfig+0x2ac>)
 8001158:	681b      	ldr	r3, [r3, #0]
 800115a:	4a90      	ldr	r2, [pc, #576]	; (800139c <HAL_RCC_OscConfig+0x2ac>)
 800115c:	f443 3380 	orr.w	r3, r3, #65536	; 0x10000
 8001160:	6013      	str	r3, [r2, #0]
 8001162:	e01d      	b.n	80011a0 <HAL_RCC_OscConfig+0xb0>
 8001164:	687b      	ldr	r3, [r7, #4]
 8001166:	685b      	ldr	r3, [r3, #4]
 8001168:	f5b3 2fa0 	cmp.w	r3, #327680	; 0x50000
 800116c:	d10c      	bne.n	8001188 <HAL_RCC_OscConfig+0x98>
 800116e:	4b8b      	ldr	r3, [pc, #556]	; (800139c <HAL_RCC_OscConfig+0x2ac>)
 8001170:	681b      	ldr	r3, [r3, #0]
 8001172:	4a8a      	ldr	r2, [pc, #552]	; (800139c <HAL_RCC_OscConfig+0x2ac>)
 8001174:	f443 2380 	orr.w	r3, r3, #262144	; 0x40000
 8001178:	6013      	str	r3, [r2, #0]
 800117a:	4b88      	ldr	r3, [pc, #544]	; (800139c <HAL_RCC_OscConfig+0x2ac>)
 800117c:	681b      	ldr	r3, [r3, #0]
 800117e:	4a87      	ldr	r2, [pc, #540]	; (800139c <HAL_RCC_OscConfig+0x2ac>)
 8001180:	f443 3380 	orr.w	r3, r3, #65536	; 0x10000
 8001184:	6013      	str	r3, [r2, #0]
 8001186:	e00b      	b.n	80011a0 <HAL_RCC_OscConfig+0xb0>
 8001188:	4b84      	ldr	r3, [pc, #528]	; (800139c <HAL_RCC_OscConfig+0x2ac>)
 800118a:	681b      	ldr	r3, [r3, #0]
 800118c:	4a83      	ldr	r2, [pc, #524]	; (800139c <HAL_RCC_OscConfig+0x2ac>)
 800118e:	f423 3380 	bic.w	r3, r3, #65536	; 0x10000
 8001192:	6013      	str	r3, [r2, #0]
 8001194:	4b81      	ldr	r3, [pc, #516]	; (800139c <HAL_RCC_OscConfig+0x2ac>)
 8001196:	681b      	ldr	r3, [r3, #0]
 8001198:	4a80      	ldr	r2, [pc, #512]	; (800139c <HAL_RCC_OscConfig+0x2ac>)
 800119a:	f423 2380 	bic.w	r3, r3, #262144	; 0x40000
 800119e:	6013      	str	r3, [r2, #0]

      /* Check the HSE State */
      if((RCC_OscInitStruct->HSEState) != RCC_HSE_OFF)
 80011a0:	687b      	ldr	r3, [r7, #4]
 80011a2:	685b      	ldr	r3, [r3, #4]
 80011a4:	2b00      	cmp	r3, #0
 80011a6:	d013      	beq.n	80011d0 <HAL_RCC_OscConfig+0xe0>
      {
        /* Get Start Tick */
        tickstart = HAL_GetTick();
 80011a8:	f7ff fd08 	bl	8000bbc <HAL_GetTick>
 80011ac:	6138      	str	r0, [r7, #16]

        /* Wait till HSE is ready */
        while(__HAL_RCC_GET_FLAG(RCC_FLAG_HSERDY) == RESET)
 80011ae:	e008      	b.n	80011c2 <HAL_RCC_OscConfig+0xd2>
        {
          if((HAL_GetTick() - tickstart ) > HSE_TIMEOUT_VALUE)
 80011b0:	f7ff fd04 	bl	8000bbc <HAL_GetTick>
 80011b4:	4602      	mov	r2, r0
 80011b6:	693b      	ldr	r3, [r7, #16]
 80011b8:	1ad3      	subs	r3, r2, r3
 80011ba:	2b64      	cmp	r3, #100	; 0x64
 80011bc:	d901      	bls.n	80011c2 <HAL_RCC_OscConfig+0xd2>
          {
            return HAL_TIMEOUT;
 80011be:	2303      	movs	r3, #3
 80011c0:	e204      	b.n	80015cc <HAL_RCC_OscConfig+0x4dc>
        while(__HAL_RCC_GET_FLAG(RCC_FLAG_HSERDY) == RESET)
 80011c2:	4b76      	ldr	r3, [pc, #472]	; (800139c <HAL_RCC_OscConfig+0x2ac>)
 80011c4:	681b      	ldr	r3, [r3, #0]
 80011c6:	f403 3300 	and.w	r3, r3, #131072	; 0x20000
 80011ca:	2b00      	cmp	r3, #0
 80011cc:	d0f0      	beq.n	80011b0 <HAL_RCC_OscConfig+0xc0>
 80011ce:	e014      	b.n	80011fa <HAL_RCC_OscConfig+0x10a>
        }
      }
      else
      {
        /* Get Start Tick */
        tickstart = HAL_GetTick();
 80011d0:	f7ff fcf4 	bl	8000bbc <HAL_GetTick>
 80011d4:	6138      	str	r0, [r7, #16]

        /* Wait till HSE is bypassed or disabled */
        while(__HAL_RCC_GET_FLAG(RCC_FLAG_HSERDY) != RESET)
 80011d6:	e008      	b.n	80011ea <HAL_RCC_OscConfig+0xfa>
        {
          if((HAL_GetTick() - tickstart ) > HSE_TIMEOUT_VALUE)
 80011d8:	f7ff fcf0 	bl	8000bbc <HAL_GetTick>
 80011dc:	4602      	mov	r2, r0
 80011de:	693b      	ldr	r3, [r7, #16]
 80011e0:	1ad3      	subs	r3, r2, r3
 80011e2:	2b64      	cmp	r3, #100	; 0x64
 80011e4:	d901      	bls.n	80011ea <HAL_RCC_OscConfig+0xfa>
          {
            return HAL_TIMEOUT;
 80011e6:	2303      	movs	r3, #3
 80011e8:	e1f0      	b.n	80015cc <HAL_RCC_OscConfig+0x4dc>
        while(__HAL_RCC_GET_FLAG(RCC_FLAG_HSERDY) != RESET)
 80011ea:	4b6c      	ldr	r3, [pc, #432]	; (800139c <HAL_RCC_OscConfig+0x2ac>)
 80011ec:	681b      	ldr	r3, [r3, #0]
 80011ee:	f403 3300 	and.w	r3, r3, #131072	; 0x20000
 80011f2:	2b00      	cmp	r3, #0
 80011f4:	d1f0      	bne.n	80011d8 <HAL_RCC_OscConfig+0xe8>
 80011f6:	e000      	b.n	80011fa <HAL_RCC_OscConfig+0x10a>
      if((__HAL_RCC_GET_FLAG(RCC_FLAG_HSERDY) != RESET) && (RCC_OscInitStruct->HSEState == RCC_HSE_OFF))
 80011f8:	bf00      	nop
        }
      }
    }
  }
  /*----------------------------- HSI Configuration --------------------------*/
  if(((RCC_OscInitStruct->OscillatorType) & RCC_OSCILLATORTYPE_HSI) == RCC_OSCILLATORTYPE_HSI)
 80011fa:	687b      	ldr	r3, [r7, #4]
 80011fc:	681b      	ldr	r3, [r3, #0]
 80011fe:	f003 0302 	and.w	r3, r3, #2
 8001202:	2b00      	cmp	r3, #0
 8001204:	d063      	beq.n	80012ce <HAL_RCC_OscConfig+0x1de>
    /* Check the parameters */
    assert_param(IS_RCC_HSI(RCC_OscInitStruct->HSIState));
    assert_param(IS_RCC_CALIBRATION_VALUE(RCC_OscInitStruct->HSICalibrationValue));

    /* Check if HSI is used as system clock or as PLL source when PLL is selected as system clock */
    if((__HAL_RCC_GET_SYSCLK_SOURCE() == RCC_CFGR_SWS_HSI) ||\
 8001206:	4b65      	ldr	r3, [pc, #404]	; (800139c <HAL_RCC_OscConfig+0x2ac>)
 8001208:	689b      	ldr	r3, [r3, #8]
 800120a:	f003 030c 	and.w	r3, r3, #12
 800120e:	2b00      	cmp	r3, #0
 8001210:	d00b      	beq.n	800122a <HAL_RCC_OscConfig+0x13a>
      ((__HAL_RCC_GET_SYSCLK_SOURCE() == RCC_CFGR_SWS_PLL) && ((RCC->PLLCFGR & RCC_PLLCFGR_PLLSRC) == RCC_PLLCFGR_PLLSRC_HSI)))
 8001212:	4b62      	ldr	r3, [pc, #392]	; (800139c <HAL_RCC_OscConfig+0x2ac>)
 8001214:	689b      	ldr	r3, [r3, #8]
 8001216:	f003 030c 	and.w	r3, r3, #12
    if((__HAL_RCC_GET_SYSCLK_SOURCE() == RCC_CFGR_SWS_HSI) ||\
 800121a:	2b08      	cmp	r3, #8
 800121c:	d11c      	bne.n	8001258 <HAL_RCC_OscConfig+0x168>
      ((__HAL_RCC_GET_SYSCLK_SOURCE() == RCC_CFGR_SWS_PLL) && ((RCC->PLLCFGR & RCC_PLLCFGR_PLLSRC) == RCC_PLLCFGR_PLLSRC_HSI)))
 800121e:	4b5f      	ldr	r3, [pc, #380]	; (800139c <HAL_RCC_OscConfig+0x2ac>)
 8001220:	685b      	ldr	r3, [r3, #4]
 8001222:	f403 0380 	and.w	r3, r3, #4194304	; 0x400000
 8001226:	2b00      	cmp	r3, #0
 8001228:	d116      	bne.n	8001258 <HAL_RCC_OscConfig+0x168>
    {
      /* When HSI is used as system clock it will not disabled */
      if((__HAL_RCC_GET_FLAG(RCC_FLAG_HSIRDY) != RESET) && (RCC_OscInitStruct->HSIState != RCC_HSI_ON))
 800122a:	4b5c      	ldr	r3, [pc, #368]	; (800139c <HAL_RCC_OscConfig+0x2ac>)
 800122c:	681b      	ldr	r3, [r3, #0]
 800122e:	f003 0302 	and.w	r3, r3, #2
 8001232:	2b00      	cmp	r3, #0
 8001234:	d005      	beq.n	8001242 <HAL_RCC_OscConfig+0x152>
 8001236:	687b      	ldr	r3, [r7, #4]
 8001238:	68db      	ldr	r3, [r3, #12]
 800123a:	2b01      	cmp	r3, #1
 800123c:	d001      	beq.n	8001242 <HAL_RCC_OscConfig+0x152>
      {
        return HAL_ERROR;
 800123e:	2301      	movs	r3, #1
 8001240:	e1c4      	b.n	80015cc <HAL_RCC_OscConfig+0x4dc>
      }
      /* Otherwise, just the calibration is allowed */
      else
      {
        /* Adjusts the Internal High Speed oscillator (HSI) calibration value.*/
        __HAL_RCC_HSI_CALIBRATIONVALUE_ADJUST(RCC_OscInitStruct->HSICalibrationValue);
 8001242:	4b56      	ldr	r3, [pc, #344]	; (800139c <HAL_RCC_OscConfig+0x2ac>)
 8001244:	681b      	ldr	r3, [r3, #0]
 8001246:	f023 02f8 	bic.w	r2, r3, #248	; 0xf8
 800124a:	687b      	ldr	r3, [r7, #4]
 800124c:	691b      	ldr	r3, [r3, #16]
 800124e:	00db      	lsls	r3, r3, #3
 8001250:	4952      	ldr	r1, [pc, #328]	; (800139c <HAL_RCC_OscConfig+0x2ac>)
 8001252:	4313      	orrs	r3, r2
 8001254:	600b      	str	r3, [r1, #0]
      if((__HAL_RCC_GET_FLAG(RCC_FLAG_HSIRDY) != RESET) && (RCC_OscInitStruct->HSIState != RCC_HSI_ON))
 8001256:	e03a      	b.n	80012ce <HAL_RCC_OscConfig+0x1de>
      }
    }
    else
    {
      /* Check the HSI State */
      if((RCC_OscInitStruct->HSIState)!= RCC_HSI_OFF)
 8001258:	687b      	ldr	r3, [r7, #4]
 800125a:	68db      	ldr	r3, [r3, #12]
 800125c:	2b00      	cmp	r3, #0
 800125e:	d020      	beq.n	80012a2 <HAL_RCC_OscConfig+0x1b2>
      {
        /* Enable the Internal High Speed oscillator (HSI). */
        __HAL_RCC_HSI_ENABLE();
 8001260:	4b4f      	ldr	r3, [pc, #316]	; (80013a0 <HAL_RCC_OscConfig+0x2b0>)
 8001262:	2201      	movs	r2, #1
 8001264:	601a      	str	r2, [r3, #0]

        /* Get Start Tick*/
        tickstart = HAL_GetTick();
 8001266:	f7ff fca9 	bl	8000bbc <HAL_GetTick>
 800126a:	6138      	str	r0, [r7, #16]

        /* Wait till HSI is ready */
        while(__HAL_RCC_GET_FLAG(RCC_FLAG_HSIRDY) == RESET)
 800126c:	e008      	b.n	8001280 <HAL_RCC_OscConfig+0x190>
        {
          if((HAL_GetTick() - tickstart ) > HSI_TIMEOUT_VALUE)
 800126e:	f7ff fca5 	bl	8000bbc <HAL_GetTick>
 8001272:	4602      	mov	r2, r0
 8001274:	693b      	ldr	r3, [r7, #16]
 8001276:	1ad3      	subs	r3, r2, r3
 8001278:	2b02      	cmp	r3, #2
 800127a:	d901      	bls.n	8001280 <HAL_RCC_OscConfig+0x190>
          {
            return HAL_TIMEOUT;
 800127c:	2303      	movs	r3, #3
 800127e:	e1a5      	b.n	80015cc <HAL_RCC_OscConfig+0x4dc>
        while(__HAL_RCC_GET_FLAG(RCC_FLAG_HSIRDY) == RESET)
 8001280:	4b46      	ldr	r3, [pc, #280]	; (800139c <HAL_RCC_OscConfig+0x2ac>)
 8001282:	681b      	ldr	r3, [r3, #0]
 8001284:	f003 0302 	and.w	r3, r3, #2
 8001288:	2b00      	cmp	r3, #0
 800128a:	d0f0      	beq.n	800126e <HAL_RCC_OscConfig+0x17e>
          }
        }

        /* Adjusts the Internal High Speed oscillator (HSI) calibration value. */
        __HAL_RCC_HSI_CALIBRATIONVALUE_ADJUST(RCC_OscInitStruct->HSICalibrationValue);
 800128c:	4b43      	ldr	r3, [pc, #268]	; (800139c <HAL_RCC_OscConfig+0x2ac>)
 800128e:	681b      	ldr	r3, [r3, #0]
 8001290:	f023 02f8 	bic.w	r2, r3, #248	; 0xf8
 8001294:	687b      	ldr	r3, [r7, #4]
 8001296:	691b      	ldr	r3, [r3, #16]
 8001298:	00db      	lsls	r3, r3, #3
 800129a:	4940      	ldr	r1, [pc, #256]	; (800139c <HAL_RCC_OscConfig+0x2ac>)
 800129c:	4313      	orrs	r3, r2
 800129e:	600b      	str	r3, [r1, #0]
 80012a0:	e015      	b.n	80012ce <HAL_RCC_OscConfig+0x1de>
      }
      else
      {
        /* Disable the Internal High Speed oscillator (HSI). */
        __HAL_RCC_HSI_DISABLE();
 80012a2:	4b3f      	ldr	r3, [pc, #252]	; (80013a0 <HAL_RCC_OscConfig+0x2b0>)
 80012a4:	2200      	movs	r2, #0
 80012a6:	601a      	str	r2, [r3, #0]

        /* Get Start Tick*/
        tickstart = HAL_GetTick();
 80012a8:	f7ff fc88 	bl	8000bbc <HAL_GetTick>
 80012ac:	6138      	str	r0, [r7, #16]

        /* Wait till HSI is ready */
        while(__HAL_RCC_GET_FLAG(RCC_FLAG_HSIRDY) != RESET)
 80012ae:	e008      	b.n	80012c2 <HAL_RCC_OscConfig+0x1d2>
        {
          if((HAL_GetTick() - tickstart ) > HSI_TIMEOUT_VALUE)
 80012b0:	f7ff fc84 	bl	8000bbc <HAL_GetTick>
 80012b4:	4602      	mov	r2, r0
 80012b6:	693b      	ldr	r3, [r7, #16]
 80012b8:	1ad3      	subs	r3, r2, r3
 80012ba:	2b02      	cmp	r3, #2
 80012bc:	d901      	bls.n	80012c2 <HAL_RCC_OscConfig+0x1d2>
          {
            return HAL_TIMEOUT;
 80012be:	2303      	movs	r3, #3
 80012c0:	e184      	b.n	80015cc <HAL_RCC_OscConfig+0x4dc>
        while(__HAL_RCC_GET_FLAG(RCC_FLAG_HSIRDY) != RESET)
 80012c2:	4b36      	ldr	r3, [pc, #216]	; (800139c <HAL_RCC_OscConfig+0x2ac>)
 80012c4:	681b      	ldr	r3, [r3, #0]
 80012c6:	f003 0302 	and.w	r3, r3, #2
 80012ca:	2b00      	cmp	r3, #0
 80012cc:	d1f0      	bne.n	80012b0 <HAL_RCC_OscConfig+0x1c0>
        }
      }
    }
  }
  /*------------------------------ LSI Configuration -------------------------*/
  if(((RCC_OscInitStruct->OscillatorType) & RCC_OSCILLATORTYPE_LSI) == RCC_OSCILLATORTYPE_LSI)
 80012ce:	687b      	ldr	r3, [r7, #4]
 80012d0:	681b      	ldr	r3, [r3, #0]
 80012d2:	f003 0308 	and.w	r3, r3, #8
 80012d6:	2b00      	cmp	r3, #0
 80012d8:	d030      	beq.n	800133c <HAL_RCC_OscConfig+0x24c>
  {
    /* Check the parameters */
    assert_param(IS_RCC_LSI(RCC_OscInitStruct->LSIState));

    /* Check the LSI State */
    if((RCC_OscInitStruct->LSIState)!= RCC_LSI_OFF)
 80012da:	687b      	ldr	r3, [r7, #4]
 80012dc:	695b      	ldr	r3, [r3, #20]
 80012de:	2b00      	cmp	r3, #0
 80012e0:	d016      	beq.n	8001310 <HAL_RCC_OscConfig+0x220>
    {
      /* Enable the Internal Low Speed oscillator (LSI). */
      __HAL_RCC_LSI_ENABLE();
 80012e2:	4b30      	ldr	r3, [pc, #192]	; (80013a4 <HAL_RCC_OscConfig+0x2b4>)
 80012e4:	2201      	movs	r2, #1
 80012e6:	601a      	str	r2, [r3, #0]

      /* Get Start Tick*/
      tickstart = HAL_GetTick();
 80012e8:	f7ff fc68 	bl	8000bbc <HAL_GetTick>
 80012ec:	6138      	str	r0, [r7, #16]

      /* Wait till LSI is ready */
      while(__HAL_RCC_GET_FLAG(RCC_FLAG_LSIRDY) == RESET)
 80012ee:	e008      	b.n	8001302 <HAL_RCC_OscConfig+0x212>
      {
        if((HAL_GetTick() - tickstart ) > LSI_TIMEOUT_VALUE)
 80012f0:	f7ff fc64 	bl	8000bbc <HAL_GetTick>
 80012f4:	4602      	mov	r2, r0
 80012f6:	693b      	ldr	r3, [r7, #16]
 80012f8:	1ad3      	subs	r3, r2, r3
 80012fa:	2b02      	cmp	r3, #2
 80012fc:	d901      	bls.n	8001302 <HAL_RCC_OscConfig+0x212>
        {
          return HAL_TIMEOUT;
 80012fe:	2303      	movs	r3, #3
 8001300:	e164      	b.n	80015cc <HAL_RCC_OscConfig+0x4dc>
      while(__HAL_RCC_GET_FLAG(RCC_FLAG_LSIRDY) == RESET)
 8001302:	4b26      	ldr	r3, [pc, #152]	; (800139c <HAL_RCC_OscConfig+0x2ac>)
 8001304:	6f5b      	ldr	r3, [r3, #116]	; 0x74
 8001306:	f003 0302 	and.w	r3, r3, #2
 800130a:	2b00      	cmp	r3, #0
 800130c:	d0f0      	beq.n	80012f0 <HAL_RCC_OscConfig+0x200>
 800130e:	e015      	b.n	800133c <HAL_RCC_OscConfig+0x24c>
      }
    }
    else
    {
      /* Disable the Internal Low Speed oscillator (LSI). */
      __HAL_RCC_LSI_DISABLE();
 8001310:	4b24      	ldr	r3, [pc, #144]	; (80013a4 <HAL_RCC_OscConfig+0x2b4>)
 8001312:	2200      	movs	r2, #0
 8001314:	601a      	str	r2, [r3, #0]

      /* Get Start Tick */
      tickstart = HAL_GetTick();
 8001316:	f7ff fc51 	bl	8000bbc <HAL_GetTick>
 800131a:	6138      	str	r0, [r7, #16]

      /* Wait till LSI is ready */
      while(__HAL_RCC_GET_FLAG(RCC_FLAG_LSIRDY) != RESET)
 800131c:	e008      	b.n	8001330 <HAL_RCC_OscConfig+0x240>
      {
        if((HAL_GetTick() - tickstart ) > LSI_TIMEOUT_VALUE)
 800131e:	f7ff fc4d 	bl	8000bbc <HAL_GetTick>
 8001322:	4602      	mov	r2, r0
 8001324:	693b      	ldr	r3, [r7, #16]
 8001326:	1ad3      	subs	r3, r2, r3
 8001328:	2b02      	cmp	r3, #2
 800132a:	d901      	bls.n	8001330 <HAL_RCC_OscConfig+0x240>
        {
          return HAL_TIMEOUT;
 800132c:	2303      	movs	r3, #3
 800132e:	e14d      	b.n	80015cc <HAL_RCC_OscConfig+0x4dc>
      while(__HAL_RCC_GET_FLAG(RCC_FLAG_LSIRDY) != RESET)
 8001330:	4b1a      	ldr	r3, [pc, #104]	; (800139c <HAL_RCC_OscConfig+0x2ac>)
 8001332:	6f5b      	ldr	r3, [r3, #116]	; 0x74
 8001334:	f003 0302 	and.w	r3, r3, #2
 8001338:	2b00      	cmp	r3, #0
 800133a:	d1f0      	bne.n	800131e <HAL_RCC_OscConfig+0x22e>
        }
      }
    }
  }
  /*------------------------------ LSE Configuration -------------------------*/
  if(((RCC_OscInitStruct->OscillatorType) & RCC_OSCILLATORTYPE_LSE) == RCC_OSCILLATORTYPE_LSE)
 800133c:	687b      	ldr	r3, [r7, #4]
 800133e:	681b      	ldr	r3, [r3, #0]
 8001340:	f003 0304 	and.w	r3, r3, #4
 8001344:	2b00      	cmp	r3, #0
 8001346:	f000 80a0 	beq.w	800148a <HAL_RCC_OscConfig+0x39a>
  {
    FlagStatus       pwrclkchanged = RESET;
 800134a:	2300      	movs	r3, #0
 800134c:	75fb      	strb	r3, [r7, #23]
    /* Check the parameters */
    assert_param(IS_RCC_LSE(RCC_OscInitStruct->LSEState));

    /* Update LSE configuration in Backup Domain control register    */
    /* Requires to enable write access to Backup Domain of necessary */
    if(__HAL_RCC_PWR_IS_CLK_DISABLED())
 800134e:	4b13      	ldr	r3, [pc, #76]	; (800139c <HAL_RCC_OscConfig+0x2ac>)
 8001350:	6c1b      	ldr	r3, [r3, #64]	; 0x40
 8001352:	f003 5380 	and.w	r3, r3, #268435456	; 0x10000000
 8001356:	2b00      	cmp	r3, #0
 8001358:	d10f      	bne.n	800137a <HAL_RCC_OscConfig+0x28a>
    {
      __HAL_RCC_PWR_CLK_ENABLE();
 800135a:	2300      	movs	r3, #0
 800135c:	60bb      	str	r3, [r7, #8]
 800135e:	4b0f      	ldr	r3, [pc, #60]	; (800139c <HAL_RCC_OscConfig+0x2ac>)
 8001360:	6c1b      	ldr	r3, [r3, #64]	; 0x40
 8001362:	4a0e      	ldr	r2, [pc, #56]	; (800139c <HAL_RCC_OscConfig+0x2ac>)
 8001364:	f043 5380 	orr.w	r3, r3, #268435456	; 0x10000000
 8001368:	6413      	str	r3, [r2, #64]	; 0x40
 800136a:	4b0c      	ldr	r3, [pc, #48]	; (800139c <HAL_RCC_OscConfig+0x2ac>)
 800136c:	6c1b      	ldr	r3, [r3, #64]	; 0x40
 800136e:	f003 5380 	and.w	r3, r3, #268435456	; 0x10000000
 8001372:	60bb      	str	r3, [r7, #8]
 8001374:	68bb      	ldr	r3, [r7, #8]
      pwrclkchanged = SET;
 8001376:	2301      	movs	r3, #1
 8001378:	75fb      	strb	r3, [r7, #23]
    }

    if(HAL_IS_BIT_CLR(PWR->CR, PWR_CR_DBP))
 800137a:	4b0b      	ldr	r3, [pc, #44]	; (80013a8 <HAL_RCC_OscConfig+0x2b8>)
 800137c:	681b      	ldr	r3, [r3, #0]
 800137e:	f403 7380 	and.w	r3, r3, #256	; 0x100
 8001382:	2b00      	cmp	r3, #0
 8001384:	d121      	bne.n	80013ca <HAL_RCC_OscConfig+0x2da>
    {
      /* Enable write access to Backup domain */
      SET_BIT(PWR->CR, PWR_CR_DBP);
 8001386:	4b08      	ldr	r3, [pc, #32]	; (80013a8 <HAL_RCC_OscConfig+0x2b8>)
 8001388:	681b      	ldr	r3, [r3, #0]
 800138a:	4a07      	ldr	r2, [pc, #28]	; (80013a8 <HAL_RCC_OscConfig+0x2b8>)
 800138c:	f443 7380 	orr.w	r3, r3, #256	; 0x100
 8001390:	6013      	str	r3, [r2, #0]

      /* Wait for Backup domain Write protection disable */
      tickstart = HAL_GetTick();
 8001392:	f7ff fc13 	bl	8000bbc <HAL_GetTick>
 8001396:	6138      	str	r0, [r7, #16]

      while(HAL_IS_BIT_CLR(PWR->CR, PWR_CR_DBP))
 8001398:	e011      	b.n	80013be <HAL_RCC_OscConfig+0x2ce>
 800139a:	bf00      	nop
 800139c:	40023800 	.word	0x40023800
 80013a0:	42470000 	.word	0x42470000
 80013a4:	42470e80 	.word	0x42470e80
 80013a8:	40007000 	.word	0x40007000
      {
        if((HAL_GetTick() - tickstart) > RCC_DBP_TIMEOUT_VALUE)
 80013ac:	f7ff fc06 	bl	8000bbc <HAL_GetTick>
 80013b0:	4602      	mov	r2, r0
 80013b2:	693b      	ldr	r3, [r7, #16]
 80013b4:	1ad3      	subs	r3, r2, r3
 80013b6:	2b02      	cmp	r3, #2
 80013b8:	d901      	bls.n	80013be <HAL_RCC_OscConfig+0x2ce>
        {
          return HAL_TIMEOUT;
 80013ba:	2303      	movs	r3, #3
 80013bc:	e106      	b.n	80015cc <HAL_RCC_OscConfig+0x4dc>
      while(HAL_IS_BIT_CLR(PWR->CR, PWR_CR_DBP))
 80013be:	4b85      	ldr	r3, [pc, #532]	; (80015d4 <HAL_RCC_OscConfig+0x4e4>)
 80013c0:	681b      	ldr	r3, [r3, #0]
 80013c2:	f403 7380 	and.w	r3, r3, #256	; 0x100
 80013c6:	2b00      	cmp	r3, #0
 80013c8:	d0f0      	beq.n	80013ac <HAL_RCC_OscConfig+0x2bc>
        }
      }
    }

    /* Set the new LSE configuration -----------------------------------------*/
    __HAL_RCC_LSE_CONFIG(RCC_OscInitStruct->LSEState);
 80013ca:	687b      	ldr	r3, [r7, #4]
 80013cc:	689b      	ldr	r3, [r3, #8]
 80013ce:	2b01      	cmp	r3, #1
 80013d0:	d106      	bne.n	80013e0 <HAL_RCC_OscConfig+0x2f0>
 80013d2:	4b81      	ldr	r3, [pc, #516]	; (80015d8 <HAL_RCC_OscConfig+0x4e8>)
 80013d4:	6f1b      	ldr	r3, [r3, #112]	; 0x70
 80013d6:	4a80      	ldr	r2, [pc, #512]	; (80015d8 <HAL_RCC_OscConfig+0x4e8>)
 80013d8:	f043 0301 	orr.w	r3, r3, #1
 80013dc:	6713      	str	r3, [r2, #112]	; 0x70
 80013de:	e01c      	b.n	800141a <HAL_RCC_OscConfig+0x32a>
 80013e0:	687b      	ldr	r3, [r7, #4]
 80013e2:	689b      	ldr	r3, [r3, #8]
 80013e4:	2b05      	cmp	r3, #5
 80013e6:	d10c      	bne.n	8001402 <HAL_RCC_OscConfig+0x312>
 80013e8:	4b7b      	ldr	r3, [pc, #492]	; (80015d8 <HAL_RCC_OscConfig+0x4e8>)
 80013ea:	6f1b      	ldr	r3, [r3, #112]	; 0x70
 80013ec:	4a7a      	ldr	r2, [pc, #488]	; (80015d8 <HAL_RCC_OscConfig+0x4e8>)
 80013ee:	f043 0304 	orr.w	r3, r3, #4
 80013f2:	6713      	str	r3, [r2, #112]	; 0x70
 80013f4:	4b78      	ldr	r3, [pc, #480]	; (80015d8 <HAL_RCC_OscConfig+0x4e8>)
 80013f6:	6f1b      	ldr	r3, [r3, #112]	; 0x70
 80013f8:	4a77      	ldr	r2, [pc, #476]	; (80015d8 <HAL_RCC_OscConfig+0x4e8>)
 80013fa:	f043 0301 	orr.w	r3, r3, #1
 80013fe:	6713      	str	r3, [r2, #112]	; 0x70
 8001400:	e00b      	b.n	800141a <HAL_RCC_OscConfig+0x32a>
 8001402:	4b75      	ldr	r3, [pc, #468]	; (80015d8 <HAL_RCC_OscConfig+0x4e8>)
 8001404:	6f1b      	ldr	r3, [r3, #112]	; 0x70
 8001406:	4a74      	ldr	r2, [pc, #464]	; (80015d8 <HAL_RCC_OscConfig+0x4e8>)
 8001408:	f023 0301 	bic.w	r3, r3, #1
 800140c:	6713      	str	r3, [r2, #112]	; 0x70
 800140e:	4b72      	ldr	r3, [pc, #456]	; (80015d8 <HAL_RCC_OscConfig+0x4e8>)
 8001410:	6f1b      	ldr	r3, [r3, #112]	; 0x70
 8001412:	4a71      	ldr	r2, [pc, #452]	; (80015d8 <HAL_RCC_OscConfig+0x4e8>)
 8001414:	f023 0304 	bic.w	r3, r3, #4
 8001418:	6713      	str	r3, [r2, #112]	; 0x70
    /* Check the LSE State */
    if((RCC_OscInitStruct->LSEState) != RCC_LSE_OFF)
 800141a:	687b      	ldr	r3, [r7, #4]
 800141c:	689b      	ldr	r3, [r3, #8]
 800141e:	2b00      	cmp	r3, #0
 8001420:	d015      	beq.n	800144e <HAL_RCC_OscConfig+0x35e>
    {
      /* Get Start Tick*/
      tickstart = HAL_GetTick();
 8001422:	f7ff fbcb 	bl	8000bbc <HAL_GetTick>
 8001426:	6138      	str	r0, [r7, #16]

      /* Wait till LSE is ready */
      while(__HAL_RCC_GET_FLAG(RCC_FLAG_LSERDY) == RESET)
 8001428:	e00a      	b.n	8001440 <HAL_RCC_OscConfig+0x350>
      {
        if((HAL_GetTick() - tickstart ) > RCC_LSE_TIMEOUT_VALUE)
 800142a:	f7ff fbc7 	bl	8000bbc <HAL_GetTick>
 800142e:	4602      	mov	r2, r0
 8001430:	693b      	ldr	r3, [r7, #16]
 8001432:	1ad3      	subs	r3, r2, r3
 8001434:	f241 3288 	movw	r2, #5000	; 0x1388
 8001438:	4293      	cmp	r3, r2
 800143a:	d901      	bls.n	8001440 <HAL_RCC_OscConfig+0x350>
        {
          return HAL_TIMEOUT;
 800143c:	2303      	movs	r3, #3
 800143e:	e0c5      	b.n	80015cc <HAL_RCC_OscConfig+0x4dc>
      while(__HAL_RCC_GET_FLAG(RCC_FLAG_LSERDY) == RESET)
 8001440:	4b65      	ldr	r3, [pc, #404]	; (80015d8 <HAL_RCC_OscConfig+0x4e8>)
 8001442:	6f1b      	ldr	r3, [r3, #112]	; 0x70
 8001444:	f003 0302 	and.w	r3, r3, #2
 8001448:	2b00      	cmp	r3, #0
 800144a:	d0ee      	beq.n	800142a <HAL_RCC_OscConfig+0x33a>
 800144c:	e014      	b.n	8001478 <HAL_RCC_OscConfig+0x388>
      }
    }
    else
    {
      /* Get Start Tick */
      tickstart = HAL_GetTick();
 800144e:	f7ff fbb5 	bl	8000bbc <HAL_GetTick>
 8001452:	6138      	str	r0, [r7, #16]

      /* Wait till LSE is ready */
      while(__HAL_RCC_GET_FLAG(RCC_FLAG_LSERDY) != RESET)
 8001454:	e00a      	b.n	800146c <HAL_RCC_OscConfig+0x37c>
      {
        if((HAL_GetTick() - tickstart ) > RCC_LSE_TIMEOUT_VALUE)
 8001456:	f7ff fbb1 	bl	8000bbc <HAL_GetTick>
 800145a:	4602      	mov	r2, r0
 800145c:	693b      	ldr	r3, [r7, #16]
 800145e:	1ad3      	subs	r3, r2, r3
 8001460:	f241 3288 	movw	r2, #5000	; 0x1388
 8001464:	4293      	cmp	r3, r2
 8001466:	d901      	bls.n	800146c <HAL_RCC_OscConfig+0x37c>
        {
          return HAL_TIMEOUT;
 8001468:	2303      	movs	r3, #3
 800146a:	e0af      	b.n	80015cc <HAL_RCC_OscConfig+0x4dc>
      while(__HAL_RCC_GET_FLAG(RCC_FLAG_LSERDY) != RESET)
 800146c:	4b5a      	ldr	r3, [pc, #360]	; (80015d8 <HAL_RCC_OscConfig+0x4e8>)
 800146e:	6f1b      	ldr	r3, [r3, #112]	; 0x70
 8001470:	f003 0302 	and.w	r3, r3, #2
 8001474:	2b00      	cmp	r3, #0
 8001476:	d1ee      	bne.n	8001456 <HAL_RCC_OscConfig+0x366>
        }
      }
    }

    /* Restore clock configuration if changed */
    if(pwrclkchanged == SET)
 8001478:	7dfb      	ldrb	r3, [r7, #23]
 800147a:	2b01      	cmp	r3, #1
 800147c:	d105      	bne.n	800148a <HAL_RCC_OscConfig+0x39a>
    {
      __HAL_RCC_PWR_CLK_DISABLE();
 800147e:	4b56      	ldr	r3, [pc, #344]	; (80015d8 <HAL_RCC_OscConfig+0x4e8>)
 8001480:	6c1b      	ldr	r3, [r3, #64]	; 0x40
 8001482:	4a55      	ldr	r2, [pc, #340]	; (80015d8 <HAL_RCC_OscConfig+0x4e8>)
 8001484:	f023 5380 	bic.w	r3, r3, #268435456	; 0x10000000
 8001488:	6413      	str	r3, [r2, #64]	; 0x40
    }
  }
  /*-------------------------------- PLL Configuration -----------------------*/
  /* Check the parameters */
  assert_param(IS_RCC_PLL(RCC_OscInitStruct->PLL.PLLState));
  if ((RCC_OscInitStruct->PLL.PLLState) != RCC_PLL_NONE)
 800148a:	687b      	ldr	r3, [r7, #4]
 800148c:	699b      	ldr	r3, [r3, #24]
 800148e:	2b00      	cmp	r3, #0
 8001490:	f000 809b 	beq.w	80015ca <HAL_RCC_OscConfig+0x4da>
  {
    /* Check if the PLL is used as system clock or not */
    if(__HAL_RCC_GET_SYSCLK_SOURCE() != RCC_CFGR_SWS_PLL)
 8001494:	4b50      	ldr	r3, [pc, #320]	; (80015d8 <HAL_RCC_OscConfig+0x4e8>)
 8001496:	689b      	ldr	r3, [r3, #8]
 8001498:	f003 030c 	and.w	r3, r3, #12
 800149c:	2b08      	cmp	r3, #8
 800149e:	d05c      	beq.n	800155a <HAL_RCC_OscConfig+0x46a>
    {
      if((RCC_OscInitStruct->PLL.PLLState) == RCC_PLL_ON)
 80014a0:	687b      	ldr	r3, [r7, #4]
 80014a2:	699b      	ldr	r3, [r3, #24]
 80014a4:	2b02      	cmp	r3, #2
 80014a6:	d141      	bne.n	800152c <HAL_RCC_OscConfig+0x43c>
        assert_param(IS_RCC_PLLN_VALUE(RCC_OscInitStruct->PLL.PLLN));
        assert_param(IS_RCC_PLLP_VALUE(RCC_OscInitStruct->PLL.PLLP));
        assert_param(IS_RCC_PLLQ_VALUE(RCC_OscInitStruct->PLL.PLLQ));

        /* Disable the main PLL. */
        __HAL_RCC_PLL_DISABLE();
 80014a8:	4b4c      	ldr	r3, [pc, #304]	; (80015dc <HAL_RCC_OscConfig+0x4ec>)
 80014aa:	2200      	movs	r2, #0
 80014ac:	601a      	str	r2, [r3, #0]

        /* Get Start Tick */
        tickstart = HAL_GetTick();
 80014ae:	f7ff fb85 	bl	8000bbc <HAL_GetTick>
 80014b2:	6138      	str	r0, [r7, #16]

        /* Wait till PLL is ready */
        while(__HAL_RCC_GET_FLAG(RCC_FLAG_PLLRDY) != RESET)
 80014b4:	e008      	b.n	80014c8 <HAL_RCC_OscConfig+0x3d8>
        {
          if((HAL_GetTick() - tickstart ) > PLL_TIMEOUT_VALUE)
 80014b6:	f7ff fb81 	bl	8000bbc <HAL_GetTick>
 80014ba:	4602      	mov	r2, r0
 80014bc:	693b      	ldr	r3, [r7, #16]
 80014be:	1ad3      	subs	r3, r2, r3
 80014c0:	2b02      	cmp	r3, #2
 80014c2:	d901      	bls.n	80014c8 <HAL_RCC_OscConfig+0x3d8>
          {
            return HAL_TIMEOUT;
 80014c4:	2303      	movs	r3, #3
 80014c6:	e081      	b.n	80015cc <HAL_RCC_OscConfig+0x4dc>
        while(__HAL_RCC_GET_FLAG(RCC_FLAG_PLLRDY) != RESET)
 80014c8:	4b43      	ldr	r3, [pc, #268]	; (80015d8 <HAL_RCC_OscConfig+0x4e8>)
 80014ca:	681b      	ldr	r3, [r3, #0]
 80014cc:	f003 7300 	and.w	r3, r3, #33554432	; 0x2000000
 80014d0:	2b00      	cmp	r3, #0
 80014d2:	d1f0      	bne.n	80014b6 <HAL_RCC_OscConfig+0x3c6>
          }
        }

        /* Configure the main PLL clock source, multiplication and division factors. */
        WRITE_REG(RCC->PLLCFGR, (RCC_OscInitStruct->PLL.PLLSource                                            | \
 80014d4:	687b      	ldr	r3, [r7, #4]
 80014d6:	69da      	ldr	r2, [r3, #28]
 80014d8:	687b      	ldr	r3, [r7, #4]
 80014da:	6a1b      	ldr	r3, [r3, #32]
 80014dc:	431a      	orrs	r2, r3
 80014de:	687b      	ldr	r3, [r7, #4]
 80014e0:	6a5b      	ldr	r3, [r3, #36]	; 0x24
 80014e2:	019b      	lsls	r3, r3, #6
 80014e4:	431a      	orrs	r2, r3
 80014e6:	687b      	ldr	r3, [r7, #4]
 80014e8:	6a9b      	ldr	r3, [r3, #40]	; 0x28
 80014ea:	085b      	lsrs	r3, r3, #1
 80014ec:	3b01      	subs	r3, #1
 80014ee:	041b      	lsls	r3, r3, #16
 80014f0:	431a      	orrs	r2, r3
 80014f2:	687b      	ldr	r3, [r7, #4]
 80014f4:	6adb      	ldr	r3, [r3, #44]	; 0x2c
 80014f6:	061b      	lsls	r3, r3, #24
 80014f8:	4937      	ldr	r1, [pc, #220]	; (80015d8 <HAL_RCC_OscConfig+0x4e8>)
 80014fa:	4313      	orrs	r3, r2
 80014fc:	604b      	str	r3, [r1, #4]
                                 RCC_OscInitStruct->PLL.PLLM                                                 | \
                                 (RCC_OscInitStruct->PLL.PLLN << RCC_PLLCFGR_PLLN_Pos)             | \
                                 (((RCC_OscInitStruct->PLL.PLLP >> 1U) - 1U) << RCC_PLLCFGR_PLLP_Pos) | \
                                 (RCC_OscInitStruct->PLL.PLLQ << RCC_PLLCFGR_PLLQ_Pos)));
        /* Enable the main PLL. */
        __HAL_RCC_PLL_ENABLE();
 80014fe:	4b37      	ldr	r3, [pc, #220]	; (80015dc <HAL_RCC_OscConfig+0x4ec>)
 8001500:	2201      	movs	r2, #1
 8001502:	601a      	str	r2, [r3, #0]

        /* Get Start Tick */
        tickstart = HAL_GetTick();
 8001504:	f7ff fb5a 	bl	8000bbc <HAL_GetTick>
 8001508:	6138      	str	r0, [r7, #16]

        /* Wait till PLL is ready */
        while(__HAL_RCC_GET_FLAG(RCC_FLAG_PLLRDY) == RESET)
 800150a:	e008      	b.n	800151e <HAL_RCC_OscConfig+0x42e>
        {
          if((HAL_GetTick() - tickstart ) > PLL_TIMEOUT_VALUE)
 800150c:	f7ff fb56 	bl	8000bbc <HAL_GetTick>
 8001510:	4602      	mov	r2, r0
 8001512:	693b      	ldr	r3, [r7, #16]
 8001514:	1ad3      	subs	r3, r2, r3
 8001516:	2b02      	cmp	r3, #2
 8001518:	d901      	bls.n	800151e <HAL_RCC_OscConfig+0x42e>
          {
            return HAL_TIMEOUT;
 800151a:	2303      	movs	r3, #3
 800151c:	e056      	b.n	80015cc <HAL_RCC_OscConfig+0x4dc>
        while(__HAL_RCC_GET_FLAG(RCC_FLAG_PLLRDY) == RESET)
 800151e:	4b2e      	ldr	r3, [pc, #184]	; (80015d8 <HAL_RCC_OscConfig+0x4e8>)
 8001520:	681b      	ldr	r3, [r3, #0]
 8001522:	f003 7300 	and.w	r3, r3, #33554432	; 0x2000000
 8001526:	2b00      	cmp	r3, #0
 8001528:	d0f0      	beq.n	800150c <HAL_RCC_OscConfig+0x41c>
 800152a:	e04e      	b.n	80015ca <HAL_RCC_OscConfig+0x4da>
        }
      }
      else
      {
        /* Disable the main PLL. */
        __HAL_RCC_PLL_DISABLE();
 800152c:	4b2b      	ldr	r3, [pc, #172]	; (80015dc <HAL_RCC_OscConfig+0x4ec>)
 800152e:	2200      	movs	r2, #0
 8001530:	601a      	str	r2, [r3, #0]

        /* Get Start Tick */
        tickstart = HAL_GetTick();
 8001532:	f7ff fb43 	bl	8000bbc <HAL_GetTick>
 8001536:	6138      	str	r0, [r7, #16]

        /* Wait till PLL is ready */
        while(__HAL_RCC_GET_FLAG(RCC_FLAG_PLLRDY) != RESET)
 8001538:	e008      	b.n	800154c <HAL_RCC_OscConfig+0x45c>
        {
          if((HAL_GetTick() - tickstart ) > PLL_TIMEOUT_VALUE)
 800153a:	f7ff fb3f 	bl	8000bbc <HAL_GetTick>
 800153e:	4602      	mov	r2, r0
 8001540:	693b      	ldr	r3, [r7, #16]
 8001542:	1ad3      	subs	r3, r2, r3
 8001544:	2b02      	cmp	r3, #2
 8001546:	d901      	bls.n	800154c <HAL_RCC_OscConfig+0x45c>
          {
            return HAL_TIMEOUT;
 8001548:	2303      	movs	r3, #3
 800154a:	e03f      	b.n	80015cc <HAL_RCC_OscConfig+0x4dc>
        while(__HAL_RCC_GET_FLAG(RCC_FLAG_PLLRDY) != RESET)
 800154c:	4b22      	ldr	r3, [pc, #136]	; (80015d8 <HAL_RCC_OscConfig+0x4e8>)
 800154e:	681b      	ldr	r3, [r3, #0]
 8001550:	f003 7300 	and.w	r3, r3, #33554432	; 0x2000000
 8001554:	2b00      	cmp	r3, #0
 8001556:	d1f0      	bne.n	800153a <HAL_RCC_OscConfig+0x44a>
 8001558:	e037      	b.n	80015ca <HAL_RCC_OscConfig+0x4da>
      }
    }
    else
    {
      /* Check if there is a request to disable the PLL used as System clock source */
      if((RCC_OscInitStruct->PLL.PLLState) == RCC_PLL_OFF)
 800155a:	687b      	ldr	r3, [r7, #4]
 800155c:	699b      	ldr	r3, [r3, #24]
 800155e:	2b01      	cmp	r3, #1
 8001560:	d101      	bne.n	8001566 <HAL_RCC_OscConfig+0x476>
      {
        return HAL_ERROR;
 8001562:	2301      	movs	r3, #1
 8001564:	e032      	b.n	80015cc <HAL_RCC_OscConfig+0x4dc>
      }
      else
      {
        /* Do not return HAL_ERROR if request repeats the current configuration */
        pll_config = RCC->PLLCFGR;
 8001566:	4b1c      	ldr	r3, [pc, #112]	; (80015d8 <HAL_RCC_OscConfig+0x4e8>)
 8001568:	685b      	ldr	r3, [r3, #4]
 800156a:	60fb      	str	r3, [r7, #12]
            (READ_BIT(pll_config, RCC_PLLCFGR_PLLN) != (RCC_OscInitStruct->PLL.PLLN) << RCC_PLLCFGR_PLLN_Pos) ||
            (READ_BIT(pll_config, RCC_PLLCFGR_PLLP) != (((RCC_OscInitStruct->PLL.PLLP >> 1U) - 1U)) << RCC_PLLCFGR_PLLP_Pos) ||
            (READ_BIT(pll_config, RCC_PLLCFGR_PLLQ) != (RCC_OscInitStruct->PLL.PLLQ << RCC_PLLCFGR_PLLQ_Pos)) ||
            (READ_BIT(pll_config, RCC_PLLCFGR_PLLR) != (RCC_OscInitStruct->PLL.PLLR << RCC_PLLCFGR_PLLR_Pos)))
#else
        if (((RCC_OscInitStruct->PLL.PLLState) == RCC_PLL_OFF) ||
 800156c:	687b      	ldr	r3, [r7, #4]
 800156e:	699b      	ldr	r3, [r3, #24]
 8001570:	2b01      	cmp	r3, #1
 8001572:	d028      	beq.n	80015c6 <HAL_RCC_OscConfig+0x4d6>
            (READ_BIT(pll_config, RCC_PLLCFGR_PLLSRC) != RCC_OscInitStruct->PLL.PLLSource) ||
 8001574:	68fb      	ldr	r3, [r7, #12]
 8001576:	f403 0280 	and.w	r2, r3, #4194304	; 0x400000
 800157a:	687b      	ldr	r3, [r7, #4]
 800157c:	69db      	ldr	r3, [r3, #28]
        if (((RCC_OscInitStruct->PLL.PLLState) == RCC_PLL_OFF) ||
 800157e:	429a      	cmp	r2, r3
 8001580:	d121      	bne.n	80015c6 <HAL_RCC_OscConfig+0x4d6>
            (READ_BIT(pll_config, RCC_PLLCFGR_PLLM) != (RCC_OscInitStruct->PLL.PLLM) << RCC_PLLCFGR_PLLM_Pos) ||
 8001582:	68fb      	ldr	r3, [r7, #12]
 8001584:	f003 023f 	and.w	r2, r3, #63	; 0x3f
 8001588:	687b      	ldr	r3, [r7, #4]
 800158a:	6a1b      	ldr	r3, [r3, #32]
            (READ_BIT(pll_config, RCC_PLLCFGR_PLLSRC) != RCC_OscInitStruct->PLL.PLLSource) ||
 800158c:	429a      	cmp	r2, r3
 800158e:	d11a      	bne.n	80015c6 <HAL_RCC_OscConfig+0x4d6>
            (READ_BIT(pll_config, RCC_PLLCFGR_PLLN) != (RCC_OscInitStruct->PLL.PLLN) << RCC_PLLCFGR_PLLN_Pos) ||
 8001590:	68fa      	ldr	r2, [r7, #12]
 8001592:	f647 73c0 	movw	r3, #32704	; 0x7fc0
 8001596:	4013      	ands	r3, r2
 8001598:	687a      	ldr	r2, [r7, #4]
 800159a:	6a52      	ldr	r2, [r2, #36]	; 0x24
 800159c:	0192      	lsls	r2, r2, #6
            (READ_BIT(pll_config, RCC_PLLCFGR_PLLM) != (RCC_OscInitStruct->PLL.PLLM) << RCC_PLLCFGR_PLLM_Pos) ||
 800159e:	4293      	cmp	r3, r2
 80015a0:	d111      	bne.n	80015c6 <HAL_RCC_OscConfig+0x4d6>
            (READ_BIT(pll_config, RCC_PLLCFGR_PLLP) != (((RCC_OscInitStruct->PLL.PLLP >> 1U) - 1U)) << RCC_PLLCFGR_PLLP_Pos) ||
 80015a2:	68fb      	ldr	r3, [r7, #12]
 80015a4:	f403 3240 	and.w	r2, r3, #196608	; 0x30000
 80015a8:	687b      	ldr	r3, [r7, #4]
 80015aa:	6a9b      	ldr	r3, [r3, #40]	; 0x28
 80015ac:	085b      	lsrs	r3, r3, #1
 80015ae:	3b01      	subs	r3, #1
 80015b0:	041b      	lsls	r3, r3, #16
            (READ_BIT(pll_config, RCC_PLLCFGR_PLLN) != (RCC_OscInitStruct->PLL.PLLN) << RCC_PLLCFGR_PLLN_Pos) ||
 80015b2:	429a      	cmp	r2, r3
 80015b4:	d107      	bne.n	80015c6 <HAL_RCC_OscConfig+0x4d6>
            (READ_BIT(pll_config, RCC_PLLCFGR_PLLQ) != (RCC_OscInitStruct->PLL.PLLQ << RCC_PLLCFGR_PLLQ_Pos)))
 80015b6:	68fb      	ldr	r3, [r7, #12]
 80015b8:	f003 6270 	and.w	r2, r3, #251658240	; 0xf000000
 80015bc:	687b      	ldr	r3, [r7, #4]
 80015be:	6adb      	ldr	r3, [r3, #44]	; 0x2c
 80015c0:	061b      	lsls	r3, r3, #24
            (READ_BIT(pll_config, RCC_PLLCFGR_PLLP) != (((RCC_OscInitStruct->PLL.PLLP >> 1U) - 1U)) << RCC_PLLCFGR_PLLP_Pos) ||
 80015c2:	429a      	cmp	r2, r3
 80015c4:	d001      	beq.n	80015ca <HAL_RCC_OscConfig+0x4da>
#endif
        {
          return HAL_ERROR;
 80015c6:	2301      	movs	r3, #1
 80015c8:	e000      	b.n	80015cc <HAL_RCC_OscConfig+0x4dc>
        }
      }
    }
  }
  return HAL_OK;
 80015ca:	2300      	movs	r3, #0
}
 80015cc:	4618      	mov	r0, r3
 80015ce:	3718      	adds	r7, #24
 80015d0:	46bd      	mov	sp, r7
 80015d2:	bd80      	pop	{r7, pc}
 80015d4:	40007000 	.word	0x40007000
 80015d8:	40023800 	.word	0x40023800
 80015dc:	42470060 	.word	0x42470060

080015e0 <HAL_RCC_ClockConfig>:
  *         HPRE[3:0] bits to ensure that HCLK not exceed the maximum allowed frequency
  *         (for more details refer to section above "Initialization/de-initialization functions")
  * @retval None
  */
HAL_StatusTypeDef HAL_RCC_ClockConfig(RCC_ClkInitTypeDef  *RCC_ClkInitStruct, uint32_t FLatency)
{
 80015e0:	b580      	push	{r7, lr}
 80015e2:	b084      	sub	sp, #16
 80015e4:	af00      	add	r7, sp, #0
 80015e6:	6078      	str	r0, [r7, #4]
 80015e8:	6039      	str	r1, [r7, #0]
  uint32_t tickstart;

  /* Check Null pointer */
  if(RCC_ClkInitStruct == NULL)
 80015ea:	687b      	ldr	r3, [r7, #4]
 80015ec:	2b00      	cmp	r3, #0
 80015ee:	d101      	bne.n	80015f4 <HAL_RCC_ClockConfig+0x14>
  {
    return HAL_ERROR;
 80015f0:	2301      	movs	r3, #1
 80015f2:	e0cc      	b.n	800178e <HAL_RCC_ClockConfig+0x1ae>
  /* To correctly read data from FLASH memory, the number of wait states (LATENCY)
    must be correctly programmed according to the frequency of the CPU clock
    (HCLK) and the supply voltage of the device. */

  /* Increasing the number of wait states because of higher CPU frequency */
  if(FLatency > __HAL_FLASH_GET_LATENCY())
 80015f4:	4b68      	ldr	r3, [pc, #416]	; (8001798 <HAL_RCC_ClockConfig+0x1b8>)
 80015f6:	681b      	ldr	r3, [r3, #0]
 80015f8:	f003 0307 	and.w	r3, r3, #7
 80015fc:	683a      	ldr	r2, [r7, #0]
 80015fe:	429a      	cmp	r2, r3
 8001600:	d90c      	bls.n	800161c <HAL_RCC_ClockConfig+0x3c>
  {
    /* Program the new number of wait states to the LATENCY bits in the FLASH_ACR register */
    __HAL_FLASH_SET_LATENCY(FLatency);
 8001602:	4b65      	ldr	r3, [pc, #404]	; (8001798 <HAL_RCC_ClockConfig+0x1b8>)
 8001604:	683a      	ldr	r2, [r7, #0]
 8001606:	b2d2      	uxtb	r2, r2
 8001608:	701a      	strb	r2, [r3, #0]

    /* Check that the new number of wait states is taken into account to access the Flash
    memory by reading the FLASH_ACR register */
    if(__HAL_FLASH_GET_LATENCY() != FLatency)
 800160a:	4b63      	ldr	r3, [pc, #396]	; (8001798 <HAL_RCC_ClockConfig+0x1b8>)
 800160c:	681b      	ldr	r3, [r3, #0]
 800160e:	f003 0307 	and.w	r3, r3, #7
 8001612:	683a      	ldr	r2, [r7, #0]
 8001614:	429a      	cmp	r2, r3
 8001616:	d001      	beq.n	800161c <HAL_RCC_ClockConfig+0x3c>
    {
      return HAL_ERROR;
 8001618:	2301      	movs	r3, #1
 800161a:	e0b8      	b.n	800178e <HAL_RCC_ClockConfig+0x1ae>
    }
  }

  /*-------------------------- HCLK Configuration --------------------------*/
  if(((RCC_ClkInitStruct->ClockType) & RCC_CLOCKTYPE_HCLK) == RCC_CLOCKTYPE_HCLK)
 800161c:	687b      	ldr	r3, [r7, #4]
 800161e:	681b      	ldr	r3, [r3, #0]
 8001620:	f003 0302 	and.w	r3, r3, #2
 8001624:	2b00      	cmp	r3, #0
 8001626:	d020      	beq.n	800166a <HAL_RCC_ClockConfig+0x8a>
  {
    /* Set the highest APBx dividers in order to ensure that we do not go through
       a non-spec phase whatever we decrease or increase HCLK. */
    if(((RCC_ClkInitStruct->ClockType) & RCC_CLOCKTYPE_PCLK1) == RCC_CLOCKTYPE_PCLK1)
 8001628:	687b      	ldr	r3, [r7, #4]
 800162a:	681b      	ldr	r3, [r3, #0]
 800162c:	f003 0304 	and.w	r3, r3, #4
 8001630:	2b00      	cmp	r3, #0
 8001632:	d005      	beq.n	8001640 <HAL_RCC_ClockConfig+0x60>
    {
      MODIFY_REG(RCC->CFGR, RCC_CFGR_PPRE1, RCC_HCLK_DIV16);
 8001634:	4b59      	ldr	r3, [pc, #356]	; (800179c <HAL_RCC_ClockConfig+0x1bc>)
 8001636:	689b      	ldr	r3, [r3, #8]
 8001638:	4a58      	ldr	r2, [pc, #352]	; (800179c <HAL_RCC_ClockConfig+0x1bc>)
 800163a:	f443 53e0 	orr.w	r3, r3, #7168	; 0x1c00
 800163e:	6093      	str	r3, [r2, #8]
    }

    if(((RCC_ClkInitStruct->ClockType) & RCC_CLOCKTYPE_PCLK2) == RCC_CLOCKTYPE_PCLK2)
 8001640:	687b      	ldr	r3, [r7, #4]
 8001642:	681b      	ldr	r3, [r3, #0]
 8001644:	f003 0308 	and.w	r3, r3, #8
 8001648:	2b00      	cmp	r3, #0
 800164a:	d005      	beq.n	8001658 <HAL_RCC_ClockConfig+0x78>
    {
      MODIFY_REG(RCC->CFGR, RCC_CFGR_PPRE2, (RCC_HCLK_DIV16 << 3));
 800164c:	4b53      	ldr	r3, [pc, #332]	; (800179c <HAL_RCC_ClockConfig+0x1bc>)
 800164e:	689b      	ldr	r3, [r3, #8]
 8001650:	4a52      	ldr	r2, [pc, #328]	; (800179c <HAL_RCC_ClockConfig+0x1bc>)
 8001652:	f443 4360 	orr.w	r3, r3, #57344	; 0xe000
 8001656:	6093      	str	r3, [r2, #8]
    }

    assert_param(IS_RCC_HCLK(RCC_ClkInitStruct->AHBCLKDivider));
    MODIFY_REG(RCC->CFGR, RCC_CFGR_HPRE, RCC_ClkInitStruct->AHBCLKDivider);
 8001658:	4b50      	ldr	r3, [pc, #320]	; (800179c <HAL_RCC_ClockConfig+0x1bc>)
 800165a:	689b      	ldr	r3, [r3, #8]
 800165c:	f023 02f0 	bic.w	r2, r3, #240	; 0xf0
 8001660:	687b      	ldr	r3, [r7, #4]
 8001662:	689b      	ldr	r3, [r3, #8]
 8001664:	494d      	ldr	r1, [pc, #308]	; (800179c <HAL_RCC_ClockConfig+0x1bc>)
 8001666:	4313      	orrs	r3, r2
 8001668:	608b      	str	r3, [r1, #8]
  }

  /*------------------------- SYSCLK Configuration ---------------------------*/
  if(((RCC_ClkInitStruct->ClockType) & RCC_CLOCKTYPE_SYSCLK) == RCC_CLOCKTYPE_SYSCLK)
 800166a:	687b      	ldr	r3, [r7, #4]
 800166c:	681b      	ldr	r3, [r3, #0]
 800166e:	f003 0301 	and.w	r3, r3, #1
 8001672:	2b00      	cmp	r3, #0
 8001674:	d044      	beq.n	8001700 <HAL_RCC_ClockConfig+0x120>
  {
    assert_param(IS_RCC_SYSCLKSOURCE(RCC_ClkInitStruct->SYSCLKSource));

    /* HSE is selected as System Clock Source */
    if(RCC_ClkInitStruct->SYSCLKSource == RCC_SYSCLKSOURCE_HSE)
 8001676:	687b      	ldr	r3, [r7, #4]
 8001678:	685b      	ldr	r3, [r3, #4]
 800167a:	2b01      	cmp	r3, #1
 800167c:	d107      	bne.n	800168e <HAL_RCC_ClockConfig+0xae>
    {
      /* Check the HSE ready flag */
      if(__HAL_RCC_GET_FLAG(RCC_FLAG_HSERDY) == RESET)
 800167e:	4b47      	ldr	r3, [pc, #284]	; (800179c <HAL_RCC_ClockConfig+0x1bc>)
 8001680:	681b      	ldr	r3, [r3, #0]
 8001682:	f403 3300 	and.w	r3, r3, #131072	; 0x20000
 8001686:	2b00      	cmp	r3, #0
 8001688:	d119      	bne.n	80016be <HAL_RCC_ClockConfig+0xde>
      {
        return HAL_ERROR;
 800168a:	2301      	movs	r3, #1
 800168c:	e07f      	b.n	800178e <HAL_RCC_ClockConfig+0x1ae>
      }
    }
    /* PLL is selected as System Clock Source */
    else if((RCC_ClkInitStruct->SYSCLKSource == RCC_SYSCLKSOURCE_PLLCLK)   ||
 800168e:	687b      	ldr	r3, [r7, #4]
 8001690:	685b      	ldr	r3, [r3, #4]
 8001692:	2b02      	cmp	r3, #2
 8001694:	d003      	beq.n	800169e <HAL_RCC_ClockConfig+0xbe>
            (RCC_ClkInitStruct->SYSCLKSource == RCC_SYSCLKSOURCE_PLLRCLK))
 8001696:	687b      	ldr	r3, [r7, #4]
 8001698:	685b      	ldr	r3, [r3, #4]
    else if((RCC_ClkInitStruct->SYSCLKSource == RCC_SYSCLKSOURCE_PLLCLK)   ||
 800169a:	2b03      	cmp	r3, #3
 800169c:	d107      	bne.n	80016ae <HAL_RCC_ClockConfig+0xce>
    {
      /* Check the PLL ready flag */
      if(__HAL_RCC_GET_FLAG(RCC_FLAG_PLLRDY) == RESET)
 800169e:	4b3f      	ldr	r3, [pc, #252]	; (800179c <HAL_RCC_ClockConfig+0x1bc>)
 80016a0:	681b      	ldr	r3, [r3, #0]
 80016a2:	f003 7300 	and.w	r3, r3, #33554432	; 0x2000000
 80016a6:	2b00      	cmp	r3, #0
 80016a8:	d109      	bne.n	80016be <HAL_RCC_ClockConfig+0xde>
      {
        return HAL_ERROR;
 80016aa:	2301      	movs	r3, #1
 80016ac:	e06f      	b.n	800178e <HAL_RCC_ClockConfig+0x1ae>
    }
    /* HSI is selected as System Clock Source */
    else
    {
      /* Check the HSI ready flag */
      if(__HAL_RCC_GET_FLAG(RCC_FLAG_HSIRDY) == RESET)
 80016ae:	4b3b      	ldr	r3, [pc, #236]	; (800179c <HAL_RCC_ClockConfig+0x1bc>)
 80016b0:	681b      	ldr	r3, [r3, #0]
 80016b2:	f003 0302 	and.w	r3, r3, #2
 80016b6:	2b00      	cmp	r3, #0
 80016b8:	d101      	bne.n	80016be <HAL_RCC_ClockConfig+0xde>
      {
        return HAL_ERROR;
 80016ba:	2301      	movs	r3, #1
 80016bc:	e067      	b.n	800178e <HAL_RCC_ClockConfig+0x1ae>
      }
    }

    __HAL_RCC_SYSCLK_CONFIG(RCC_ClkInitStruct->SYSCLKSource);
 80016be:	4b37      	ldr	r3, [pc, #220]	; (800179c <HAL_RCC_ClockConfig+0x1bc>)
 80016c0:	689b      	ldr	r3, [r3, #8]
 80016c2:	f023 0203 	bic.w	r2, r3, #3
 80016c6:	687b      	ldr	r3, [r7, #4]
 80016c8:	685b      	ldr	r3, [r3, #4]
 80016ca:	4934      	ldr	r1, [pc, #208]	; (800179c <HAL_RCC_ClockConfig+0x1bc>)
 80016cc:	4313      	orrs	r3, r2
 80016ce:	608b      	str	r3, [r1, #8]

    /* Get Start Tick */
    tickstart = HAL_GetTick();
 80016d0:	f7ff fa74 	bl	8000bbc <HAL_GetTick>
 80016d4:	60f8      	str	r0, [r7, #12]

    while (__HAL_RCC_GET_SYSCLK_SOURCE() != (RCC_ClkInitStruct->SYSCLKSource << RCC_CFGR_SWS_Pos))
 80016d6:	e00a      	b.n	80016ee <HAL_RCC_ClockConfig+0x10e>
    {
      if ((HAL_GetTick() - tickstart) > CLOCKSWITCH_TIMEOUT_VALUE)
 80016d8:	f7ff fa70 	bl	8000bbc <HAL_GetTick>
 80016dc:	4602      	mov	r2, r0
 80016de:	68fb      	ldr	r3, [r7, #12]
 80016e0:	1ad3      	subs	r3, r2, r3
 80016e2:	f241 3288 	movw	r2, #5000	; 0x1388
 80016e6:	4293      	cmp	r3, r2
 80016e8:	d901      	bls.n	80016ee <HAL_RCC_ClockConfig+0x10e>
      {
        return HAL_TIMEOUT;
 80016ea:	2303      	movs	r3, #3
 80016ec:	e04f      	b.n	800178e <HAL_RCC_ClockConfig+0x1ae>
    while (__HAL_RCC_GET_SYSCLK_SOURCE() != (RCC_ClkInitStruct->SYSCLKSource << RCC_CFGR_SWS_Pos))
 80016ee:	4b2b      	ldr	r3, [pc, #172]	; (800179c <HAL_RCC_ClockConfig+0x1bc>)
 80016f0:	689b      	ldr	r3, [r3, #8]
 80016f2:	f003 020c 	and.w	r2, r3, #12
 80016f6:	687b      	ldr	r3, [r7, #4]
 80016f8:	685b      	ldr	r3, [r3, #4]
 80016fa:	009b      	lsls	r3, r3, #2
 80016fc:	429a      	cmp	r2, r3
 80016fe:	d1eb      	bne.n	80016d8 <HAL_RCC_ClockConfig+0xf8>
      }
    }
  }

  /* Decreasing the number of wait states because of lower CPU frequency */
  if(FLatency < __HAL_FLASH_GET_LATENCY())
 8001700:	4b25      	ldr	r3, [pc, #148]	; (8001798 <HAL_RCC_ClockConfig+0x1b8>)
 8001702:	681b      	ldr	r3, [r3, #0]
 8001704:	f003 0307 	and.w	r3, r3, #7
 8001708:	683a      	ldr	r2, [r7, #0]
 800170a:	429a      	cmp	r2, r3
 800170c:	d20c      	bcs.n	8001728 <HAL_RCC_ClockConfig+0x148>
  {
     /* Program the new number of wait states to the LATENCY bits in the FLASH_ACR register */
    __HAL_FLASH_SET_LATENCY(FLatency);
 800170e:	4b22      	ldr	r3, [pc, #136]	; (8001798 <HAL_RCC_ClockConfig+0x1b8>)
 8001710:	683a      	ldr	r2, [r7, #0]
 8001712:	b2d2      	uxtb	r2, r2
 8001714:	701a      	strb	r2, [r3, #0]

    /* Check that the new number of wait states is taken into account to access the Flash
    memory by reading the FLASH_ACR register */
    if(__HAL_FLASH_GET_LATENCY() != FLatency)
 8001716:	4b20      	ldr	r3, [pc, #128]	; (8001798 <HAL_RCC_ClockConfig+0x1b8>)
 8001718:	681b      	ldr	r3, [r3, #0]
 800171a:	f003 0307 	and.w	r3, r3, #7
 800171e:	683a      	ldr	r2, [r7, #0]
 8001720:	429a      	cmp	r2, r3
 8001722:	d001      	beq.n	8001728 <HAL_RCC_ClockConfig+0x148>
    {
      return HAL_ERROR;
 8001724:	2301      	movs	r3, #1
 8001726:	e032      	b.n	800178e <HAL_RCC_ClockConfig+0x1ae>
    }
  }

  /*-------------------------- PCLK1 Configuration ---------------------------*/
  if(((RCC_ClkInitStruct->ClockType) & RCC_CLOCKTYPE_PCLK1) == RCC_CLOCKTYPE_PCLK1)
 8001728:	687b      	ldr	r3, [r7, #4]
 800172a:	681b      	ldr	r3, [r3, #0]
 800172c:	f003 0304 	and.w	r3, r3, #4
 8001730:	2b00      	cmp	r3, #0
 8001732:	d008      	beq.n	8001746 <HAL_RCC_ClockConfig+0x166>
  {
    assert_param(IS_RCC_PCLK(RCC_ClkInitStruct->APB1CLKDivider));
    MODIFY_REG(RCC->CFGR, RCC_CFGR_PPRE1, RCC_ClkInitStruct->APB1CLKDivider);
 8001734:	4b19      	ldr	r3, [pc, #100]	; (800179c <HAL_RCC_ClockConfig+0x1bc>)
 8001736:	689b      	ldr	r3, [r3, #8]
 8001738:	f423 52e0 	bic.w	r2, r3, #7168	; 0x1c00
 800173c:	687b      	ldr	r3, [r7, #4]
 800173e:	68db      	ldr	r3, [r3, #12]
 8001740:	4916      	ldr	r1, [pc, #88]	; (800179c <HAL_RCC_ClockConfig+0x1bc>)
 8001742:	4313      	orrs	r3, r2
 8001744:	608b      	str	r3, [r1, #8]
  }

  /*-------------------------- PCLK2 Configuration ---------------------------*/
  if(((RCC_ClkInitStruct->ClockType) & RCC_CLOCKTYPE_PCLK2) == RCC_CLOCKTYPE_PCLK2)
 8001746:	687b      	ldr	r3, [r7, #4]
 8001748:	681b      	ldr	r3, [r3, #0]
 800174a:	f003 0308 	and.w	r3, r3, #8
 800174e:	2b00      	cmp	r3, #0
 8001750:	d009      	beq.n	8001766 <HAL_RCC_ClockConfig+0x186>
  {
    assert_param(IS_RCC_PCLK(RCC_ClkInitStruct->APB2CLKDivider));
    MODIFY_REG(RCC->CFGR, RCC_CFGR_PPRE2, ((RCC_ClkInitStruct->APB2CLKDivider) << 3U));
 8001752:	4b12      	ldr	r3, [pc, #72]	; (800179c <HAL_RCC_ClockConfig+0x1bc>)
 8001754:	689b      	ldr	r3, [r3, #8]
 8001756:	f423 4260 	bic.w	r2, r3, #57344	; 0xe000
 800175a:	687b      	ldr	r3, [r7, #4]
 800175c:	691b      	ldr	r3, [r3, #16]
 800175e:	00db      	lsls	r3, r3, #3
 8001760:	490e      	ldr	r1, [pc, #56]	; (800179c <HAL_RCC_ClockConfig+0x1bc>)
 8001762:	4313      	orrs	r3, r2
 8001764:	608b      	str	r3, [r1, #8]
  }

  /* Update the SystemCoreClock global variable */
  SystemCoreClock = HAL_RCC_GetSysClockFreq() >> AHBPrescTable[(RCC->CFGR & RCC_CFGR_HPRE)>> RCC_CFGR_HPRE_Pos];
 8001766:	f000 f821 	bl	80017ac <HAL_RCC_GetSysClockFreq>
 800176a:	4602      	mov	r2, r0
 800176c:	4b0b      	ldr	r3, [pc, #44]	; (800179c <HAL_RCC_ClockConfig+0x1bc>)
 800176e:	689b      	ldr	r3, [r3, #8]
 8001770:	091b      	lsrs	r3, r3, #4
 8001772:	f003 030f 	and.w	r3, r3, #15
 8001776:	490a      	ldr	r1, [pc, #40]	; (80017a0 <HAL_RCC_ClockConfig+0x1c0>)
 8001778:	5ccb      	ldrb	r3, [r1, r3]
 800177a:	fa22 f303 	lsr.w	r3, r2, r3
 800177e:	4a09      	ldr	r2, [pc, #36]	; (80017a4 <HAL_RCC_ClockConfig+0x1c4>)
 8001780:	6013      	str	r3, [r2, #0]

  /* Configure the source of time base considering new system clocks settings */
  HAL_InitTick (uwTickPrio);
 8001782:	4b09      	ldr	r3, [pc, #36]	; (80017a8 <HAL_RCC_ClockConfig+0x1c8>)
 8001784:	681b      	ldr	r3, [r3, #0]
 8001786:	4618      	mov	r0, r3
 8001788:	f7ff f9d4 	bl	8000b34 <HAL_InitTick>

  return HAL_OK;
 800178c:	2300      	movs	r3, #0
}
 800178e:	4618      	mov	r0, r3
 8001790:	3710      	adds	r7, #16
 8001792:	46bd      	mov	sp, r7
 8001794:	bd80      	pop	{r7, pc}
 8001796:	bf00      	nop
 8001798:	40023c00 	.word	0x40023c00
 800179c:	40023800 	.word	0x40023800
 80017a0:	08002664 	.word	0x08002664
 80017a4:	20000000 	.word	0x20000000
 80017a8:	20000004 	.word	0x20000004

080017ac <HAL_RCC_GetSysClockFreq>:
  *
  *
  * @retval SYSCLK frequency
  */
__weak uint32_t HAL_RCC_GetSysClockFreq(void)
{
 80017ac:	b5b0      	push	{r4, r5, r7, lr}
 80017ae:	b084      	sub	sp, #16
 80017b0:	af00      	add	r7, sp, #0
  uint32_t pllm = 0U, pllvco = 0U, pllp = 0U;
 80017b2:	2100      	movs	r1, #0
 80017b4:	6079      	str	r1, [r7, #4]
 80017b6:	2100      	movs	r1, #0
 80017b8:	60f9      	str	r1, [r7, #12]
 80017ba:	2100      	movs	r1, #0
 80017bc:	6039      	str	r1, [r7, #0]
  uint32_t sysclockfreq = 0U;
 80017be:	2100      	movs	r1, #0
 80017c0:	60b9      	str	r1, [r7, #8]

  /* Get SYSCLK source -------------------------------------------------------*/
  switch (RCC->CFGR & RCC_CFGR_SWS)
 80017c2:	4952      	ldr	r1, [pc, #328]	; (800190c <HAL_RCC_GetSysClockFreq+0x160>)
 80017c4:	6889      	ldr	r1, [r1, #8]
 80017c6:	f001 010c 	and.w	r1, r1, #12
 80017ca:	2908      	cmp	r1, #8
 80017cc:	d00d      	beq.n	80017ea <HAL_RCC_GetSysClockFreq+0x3e>
 80017ce:	2908      	cmp	r1, #8
 80017d0:	f200 8094 	bhi.w	80018fc <HAL_RCC_GetSysClockFreq+0x150>
 80017d4:	2900      	cmp	r1, #0
 80017d6:	d002      	beq.n	80017de <HAL_RCC_GetSysClockFreq+0x32>
 80017d8:	2904      	cmp	r1, #4
 80017da:	d003      	beq.n	80017e4 <HAL_RCC_GetSysClockFreq+0x38>
 80017dc:	e08e      	b.n	80018fc <HAL_RCC_GetSysClockFreq+0x150>
  {
    case RCC_CFGR_SWS_HSI:  /* HSI used as system clock source */
    {
      sysclockfreq = HSI_VALUE;
 80017de:	4b4c      	ldr	r3, [pc, #304]	; (8001910 <HAL_RCC_GetSysClockFreq+0x164>)
 80017e0:	60bb      	str	r3, [r7, #8]
       break;
 80017e2:	e08e      	b.n	8001902 <HAL_RCC_GetSysClockFreq+0x156>
    }
    case RCC_CFGR_SWS_HSE:  /* HSE used as system clock  source */
    {
      sysclockfreq = HSE_VALUE;
 80017e4:	4b4b      	ldr	r3, [pc, #300]	; (8001914 <HAL_RCC_GetSysClockFreq+0x168>)
 80017e6:	60bb      	str	r3, [r7, #8]
      break;
 80017e8:	e08b      	b.n	8001902 <HAL_RCC_GetSysClockFreq+0x156>
    }
    case RCC_CFGR_SWS_PLL:  /* PLL used as system clock  source */
    {
      /* PLL_VCO = (HSE_VALUE or HSI_VALUE / PLLM) * PLLN
      SYSCLK = PLL_VCO / PLLP */
      pllm = RCC->PLLCFGR & RCC_PLLCFGR_PLLM;
 80017ea:	4948      	ldr	r1, [pc, #288]	; (800190c <HAL_RCC_GetSysClockFreq+0x160>)
 80017ec:	6849      	ldr	r1, [r1, #4]
 80017ee:	f001 013f 	and.w	r1, r1, #63	; 0x3f
 80017f2:	6079      	str	r1, [r7, #4]
      if(__HAL_RCC_GET_PLL_OSCSOURCE() != RCC_PLLSOURCE_HSI)
 80017f4:	4945      	ldr	r1, [pc, #276]	; (800190c <HAL_RCC_GetSysClockFreq+0x160>)
 80017f6:	6849      	ldr	r1, [r1, #4]
 80017f8:	f401 0180 	and.w	r1, r1, #4194304	; 0x400000
 80017fc:	2900      	cmp	r1, #0
 80017fe:	d024      	beq.n	800184a <HAL_RCC_GetSysClockFreq+0x9e>
      {
        /* HSE used as PLL clock source */
        pllvco = (uint32_t) ((((uint64_t) HSE_VALUE * ((uint64_t) ((RCC->PLLCFGR & RCC_PLLCFGR_PLLN) >> RCC_PLLCFGR_PLLN_Pos)))) / (uint64_t)pllm);
 8001800:	4942      	ldr	r1, [pc, #264]	; (800190c <HAL_RCC_GetSysClockFreq+0x160>)
 8001802:	6849      	ldr	r1, [r1, #4]
 8001804:	0989      	lsrs	r1, r1, #6
 8001806:	4608      	mov	r0, r1
 8001808:	f04f 0100 	mov.w	r1, #0
 800180c:	f240 14ff 	movw	r4, #511	; 0x1ff
 8001810:	f04f 0500 	mov.w	r5, #0
 8001814:	ea00 0204 	and.w	r2, r0, r4
 8001818:	ea01 0305 	and.w	r3, r1, r5
 800181c:	493d      	ldr	r1, [pc, #244]	; (8001914 <HAL_RCC_GetSysClockFreq+0x168>)
 800181e:	fb01 f003 	mul.w	r0, r1, r3
 8001822:	2100      	movs	r1, #0
 8001824:	fb01 f102 	mul.w	r1, r1, r2
 8001828:	1844      	adds	r4, r0, r1
 800182a:	493a      	ldr	r1, [pc, #232]	; (8001914 <HAL_RCC_GetSysClockFreq+0x168>)
 800182c:	fba2 0101 	umull	r0, r1, r2, r1
 8001830:	1863      	adds	r3, r4, r1
 8001832:	4619      	mov	r1, r3
 8001834:	687b      	ldr	r3, [r7, #4]
 8001836:	461a      	mov	r2, r3
 8001838:	f04f 0300 	mov.w	r3, #0
 800183c:	f7fe fccc 	bl	80001d8 <__aeabi_uldivmod>
 8001840:	4602      	mov	r2, r0
 8001842:	460b      	mov	r3, r1
 8001844:	4613      	mov	r3, r2
 8001846:	60fb      	str	r3, [r7, #12]
 8001848:	e04a      	b.n	80018e0 <HAL_RCC_GetSysClockFreq+0x134>
      }
      else
      {
        /* HSI used as PLL clock source */
        pllvco = (uint32_t) ((((uint64_t) HSI_VALUE * ((uint64_t) ((RCC->PLLCFGR & RCC_PLLCFGR_PLLN) >> RCC_PLLCFGR_PLLN_Pos)))) / (uint64_t)pllm);
 800184a:	4b30      	ldr	r3, [pc, #192]	; (800190c <HAL_RCC_GetSysClockFreq+0x160>)
 800184c:	685b      	ldr	r3, [r3, #4]
 800184e:	099b      	lsrs	r3, r3, #6
 8001850:	461a      	mov	r2, r3
 8001852:	f04f 0300 	mov.w	r3, #0
 8001856:	f240 10ff 	movw	r0, #511	; 0x1ff
 800185a:	f04f 0100 	mov.w	r1, #0
 800185e:	ea02 0400 	and.w	r4, r2, r0
 8001862:	ea03 0501 	and.w	r5, r3, r1
 8001866:	4620      	mov	r0, r4
 8001868:	4629      	mov	r1, r5
 800186a:	f04f 0200 	mov.w	r2, #0
 800186e:	f04f 0300 	mov.w	r3, #0
 8001872:	014b      	lsls	r3, r1, #5
 8001874:	ea43 63d0 	orr.w	r3, r3, r0, lsr #27
 8001878:	0142      	lsls	r2, r0, #5
 800187a:	4610      	mov	r0, r2
 800187c:	4619      	mov	r1, r3
 800187e:	1b00      	subs	r0, r0, r4
 8001880:	eb61 0105 	sbc.w	r1, r1, r5
 8001884:	f04f 0200 	mov.w	r2, #0
 8001888:	f04f 0300 	mov.w	r3, #0
 800188c:	018b      	lsls	r3, r1, #6
 800188e:	ea43 6390 	orr.w	r3, r3, r0, lsr #26
 8001892:	0182      	lsls	r2, r0, #6
 8001894:	1a12      	subs	r2, r2, r0
 8001896:	eb63 0301 	sbc.w	r3, r3, r1
 800189a:	f04f 0000 	mov.w	r0, #0
 800189e:	f04f 0100 	mov.w	r1, #0
 80018a2:	00d9      	lsls	r1, r3, #3
 80018a4:	ea41 7152 	orr.w	r1, r1, r2, lsr #29
 80018a8:	00d0      	lsls	r0, r2, #3
 80018aa:	4602      	mov	r2, r0
 80018ac:	460b      	mov	r3, r1
 80018ae:	1912      	adds	r2, r2, r4
 80018b0:	eb45 0303 	adc.w	r3, r5, r3
 80018b4:	f04f 0000 	mov.w	r0, #0
 80018b8:	f04f 0100 	mov.w	r1, #0
 80018bc:	0299      	lsls	r1, r3, #10
 80018be:	ea41 5192 	orr.w	r1, r1, r2, lsr #22
 80018c2:	0290      	lsls	r0, r2, #10
 80018c4:	4602      	mov	r2, r0
 80018c6:	460b      	mov	r3, r1
 80018c8:	4610      	mov	r0, r2
 80018ca:	4619      	mov	r1, r3
 80018cc:	687b      	ldr	r3, [r7, #4]
 80018ce:	461a      	mov	r2, r3
 80018d0:	f04f 0300 	mov.w	r3, #0
 80018d4:	f7fe fc80 	bl	80001d8 <__aeabi_uldivmod>
 80018d8:	4602      	mov	r2, r0
 80018da:	460b      	mov	r3, r1
 80018dc:	4613      	mov	r3, r2
 80018de:	60fb      	str	r3, [r7, #12]
      }
      pllp = ((((RCC->PLLCFGR & RCC_PLLCFGR_PLLP) >> RCC_PLLCFGR_PLLP_Pos) + 1U) *2U);
 80018e0:	4b0a      	ldr	r3, [pc, #40]	; (800190c <HAL_RCC_GetSysClockFreq+0x160>)
 80018e2:	685b      	ldr	r3, [r3, #4]
 80018e4:	0c1b      	lsrs	r3, r3, #16
 80018e6:	f003 0303 	and.w	r3, r3, #3
 80018ea:	3301      	adds	r3, #1
 80018ec:	005b      	lsls	r3, r3, #1
 80018ee:	603b      	str	r3, [r7, #0]

      sysclockfreq = pllvco/pllp;
 80018f0:	68fa      	ldr	r2, [r7, #12]
 80018f2:	683b      	ldr	r3, [r7, #0]
 80018f4:	fbb2 f3f3 	udiv	r3, r2, r3
 80018f8:	60bb      	str	r3, [r7, #8]
      break;
 80018fa:	e002      	b.n	8001902 <HAL_RCC_GetSysClockFreq+0x156>
    }
    default:
    {
      sysclockfreq = HSI_VALUE;
 80018fc:	4b04      	ldr	r3, [pc, #16]	; (8001910 <HAL_RCC_GetSysClockFreq+0x164>)
 80018fe:	60bb      	str	r3, [r7, #8]
      break;
 8001900:	bf00      	nop
    }
  }
  return sysclockfreq;
 8001902:	68bb      	ldr	r3, [r7, #8]
}
 8001904:	4618      	mov	r0, r3
 8001906:	3710      	adds	r7, #16
 8001908:	46bd      	mov	sp, r7
 800190a:	bdb0      	pop	{r4, r5, r7, pc}
 800190c:	40023800 	.word	0x40023800
 8001910:	00f42400 	.word	0x00f42400
 8001914:	017d7840 	.word	0x017d7840

08001918 <HAL_TIM_Base_Init>:
  *         Ex: call @ref HAL_TIM_Base_DeInit() before HAL_TIM_Base_Init()
  * @param  htim TIM Base handle
  * @retval HAL status
  */
HAL_StatusTypeDef HAL_TIM_Base_Init(TIM_HandleTypeDef *htim)
{
 8001918:	b580      	push	{r7, lr}
 800191a:	b082      	sub	sp, #8
 800191c:	af00      	add	r7, sp, #0
 800191e:	6078      	str	r0, [r7, #4]
  /* Check the TIM handle allocation */
  if (htim == NULL)
 8001920:	687b      	ldr	r3, [r7, #4]
 8001922:	2b00      	cmp	r3, #0
 8001924:	d101      	bne.n	800192a <HAL_TIM_Base_Init+0x12>
  {
    return HAL_ERROR;
 8001926:	2301      	movs	r3, #1
 8001928:	e041      	b.n	80019ae <HAL_TIM_Base_Init+0x96>
  assert_param(IS_TIM_INSTANCE(htim->Instance));
  assert_param(IS_TIM_COUNTER_MODE(htim->Init.CounterMode));
  assert_param(IS_TIM_CLOCKDIVISION_DIV(htim->Init.ClockDivision));
  assert_param(IS_TIM_AUTORELOAD_PRELOAD(htim->Init.AutoReloadPreload));

  if (htim->State == HAL_TIM_STATE_RESET)
 800192a:	687b      	ldr	r3, [r7, #4]
 800192c:	f893 303d 	ldrb.w	r3, [r3, #61]	; 0x3d
 8001930:	b2db      	uxtb	r3, r3
 8001932:	2b00      	cmp	r3, #0
 8001934:	d106      	bne.n	8001944 <HAL_TIM_Base_Init+0x2c>
  {
    /* Allocate lock resource and initialize it */
    htim->Lock = HAL_UNLOCKED;
 8001936:	687b      	ldr	r3, [r7, #4]
 8001938:	2200      	movs	r2, #0
 800193a:	f883 203c 	strb.w	r2, [r3, #60]	; 0x3c
    }
    /* Init the low level hardware : GPIO, CLOCK, NVIC */
    htim->Base_MspInitCallback(htim);
#else
    /* Init the low level hardware : GPIO, CLOCK, NVIC */
    HAL_TIM_Base_MspInit(htim);
 800193e:	6878      	ldr	r0, [r7, #4]
 8001940:	f7fe ffcc 	bl	80008dc <HAL_TIM_Base_MspInit>
#endif /* USE_HAL_TIM_REGISTER_CALLBACKS */
  }

  /* Set the TIM state */
  htim->State = HAL_TIM_STATE_BUSY;
 8001944:	687b      	ldr	r3, [r7, #4]
 8001946:	2202      	movs	r2, #2
 8001948:	f883 203d 	strb.w	r2, [r3, #61]	; 0x3d

  /* Set the Time Base configuration */
  TIM_Base_SetConfig(htim->Instance, &htim->Init);
 800194c:	687b      	ldr	r3, [r7, #4]
 800194e:	681a      	ldr	r2, [r3, #0]
 8001950:	687b      	ldr	r3, [r7, #4]
 8001952:	3304      	adds	r3, #4
 8001954:	4619      	mov	r1, r3
 8001956:	4610      	mov	r0, r2
 8001958:	f000 fac0 	bl	8001edc <TIM_Base_SetConfig>

  /* Initialize the DMA burst operation state */
  htim->DMABurstState = HAL_DMA_BURST_STATE_READY;
 800195c:	687b      	ldr	r3, [r7, #4]
 800195e:	2201      	movs	r2, #1
 8001960:	f883 2046 	strb.w	r2, [r3, #70]	; 0x46

  /* Initialize the TIM channels state */
  TIM_CHANNEL_STATE_SET_ALL(htim, HAL_TIM_CHANNEL_STATE_READY);
 8001964:	687b      	ldr	r3, [r7, #4]
 8001966:	2201      	movs	r2, #1
 8001968:	f883 203e 	strb.w	r2, [r3, #62]	; 0x3e
 800196c:	687b      	ldr	r3, [r7, #4]
 800196e:	2201      	movs	r2, #1
 8001970:	f883 203f 	strb.w	r2, [r3, #63]	; 0x3f
 8001974:	687b      	ldr	r3, [r7, #4]
 8001976:	2201      	movs	r2, #1
 8001978:	f883 2040 	strb.w	r2, [r3, #64]	; 0x40
 800197c:	687b      	ldr	r3, [r7, #4]
 800197e:	2201      	movs	r2, #1
 8001980:	f883 2041 	strb.w	r2, [r3, #65]	; 0x41
  TIM_CHANNEL_N_STATE_SET_ALL(htim, HAL_TIM_CHANNEL_STATE_READY);
 8001984:	687b      	ldr	r3, [r7, #4]
 8001986:	2201      	movs	r2, #1
 8001988:	f883 2042 	strb.w	r2, [r3, #66]	; 0x42
 800198c:	687b      	ldr	r3, [r7, #4]
 800198e:	2201      	movs	r2, #1
 8001990:	f883 2043 	strb.w	r2, [r3, #67]	; 0x43
 8001994:	687b      	ldr	r3, [r7, #4]
 8001996:	2201      	movs	r2, #1
 8001998:	f883 2044 	strb.w	r2, [r3, #68]	; 0x44
 800199c:	687b      	ldr	r3, [r7, #4]
 800199e:	2201      	movs	r2, #1
 80019a0:	f883 2045 	strb.w	r2, [r3, #69]	; 0x45

  /* Initialize the TIM state*/
  htim->State = HAL_TIM_STATE_READY;
 80019a4:	687b      	ldr	r3, [r7, #4]
 80019a6:	2201      	movs	r2, #1
 80019a8:	f883 203d 	strb.w	r2, [r3, #61]	; 0x3d

  return HAL_OK;
 80019ac:	2300      	movs	r3, #0
}
 80019ae:	4618      	mov	r0, r3
 80019b0:	3708      	adds	r7, #8
 80019b2:	46bd      	mov	sp, r7
 80019b4:	bd80      	pop	{r7, pc}

080019b6 <HAL_TIM_PWM_Init>:
  *         Ex: call @ref HAL_TIM_PWM_DeInit() before HAL_TIM_PWM_Init()
  * @param  htim TIM PWM handle
  * @retval HAL status
  */
HAL_StatusTypeDef HAL_TIM_PWM_Init(TIM_HandleTypeDef *htim)
{
 80019b6:	b580      	push	{r7, lr}
 80019b8:	b082      	sub	sp, #8
 80019ba:	af00      	add	r7, sp, #0
 80019bc:	6078      	str	r0, [r7, #4]
  /* Check the TIM handle allocation */
  if (htim == NULL)
 80019be:	687b      	ldr	r3, [r7, #4]
 80019c0:	2b00      	cmp	r3, #0
 80019c2:	d101      	bne.n	80019c8 <HAL_TIM_PWM_Init+0x12>
  {
    return HAL_ERROR;
 80019c4:	2301      	movs	r3, #1
 80019c6:	e041      	b.n	8001a4c <HAL_TIM_PWM_Init+0x96>
  assert_param(IS_TIM_INSTANCE(htim->Instance));
  assert_param(IS_TIM_COUNTER_MODE(htim->Init.CounterMode));
  assert_param(IS_TIM_CLOCKDIVISION_DIV(htim->Init.ClockDivision));
  assert_param(IS_TIM_AUTORELOAD_PRELOAD(htim->Init.AutoReloadPreload));

  if (htim->State == HAL_TIM_STATE_RESET)
 80019c8:	687b      	ldr	r3, [r7, #4]
 80019ca:	f893 303d 	ldrb.w	r3, [r3, #61]	; 0x3d
 80019ce:	b2db      	uxtb	r3, r3
 80019d0:	2b00      	cmp	r3, #0
 80019d2:	d106      	bne.n	80019e2 <HAL_TIM_PWM_Init+0x2c>
  {
    /* Allocate lock resource and initialize it */
    htim->Lock = HAL_UNLOCKED;
 80019d4:	687b      	ldr	r3, [r7, #4]
 80019d6:	2200      	movs	r2, #0
 80019d8:	f883 203c 	strb.w	r2, [r3, #60]	; 0x3c
    }
    /* Init the low level hardware : GPIO, CLOCK, NVIC */
    htim->PWM_MspInitCallback(htim);
#else
    /* Init the low level hardware : GPIO, CLOCK, NVIC and DMA */
    HAL_TIM_PWM_MspInit(htim);
 80019dc:	6878      	ldr	r0, [r7, #4]
 80019de:	f000 f839 	bl	8001a54 <HAL_TIM_PWM_MspInit>
#endif /* USE_HAL_TIM_REGISTER_CALLBACKS */
  }

  /* Set the TIM state */
  htim->State = HAL_TIM_STATE_BUSY;
 80019e2:	687b      	ldr	r3, [r7, #4]
 80019e4:	2202      	movs	r2, #2
 80019e6:	f883 203d 	strb.w	r2, [r3, #61]	; 0x3d

  /* Init the base time for the PWM */
  TIM_Base_SetConfig(htim->Instance, &htim->Init);
 80019ea:	687b      	ldr	r3, [r7, #4]
 80019ec:	681a      	ldr	r2, [r3, #0]
 80019ee:	687b      	ldr	r3, [r7, #4]
 80019f0:	3304      	adds	r3, #4
 80019f2:	4619      	mov	r1, r3
 80019f4:	4610      	mov	r0, r2
 80019f6:	f000 fa71 	bl	8001edc <TIM_Base_SetConfig>

  /* Initialize the DMA burst operation state */
  htim->DMABurstState = HAL_DMA_BURST_STATE_READY;
 80019fa:	687b      	ldr	r3, [r7, #4]
 80019fc:	2201      	movs	r2, #1
 80019fe:	f883 2046 	strb.w	r2, [r3, #70]	; 0x46

  /* Initialize the TIM channels state */
  TIM_CHANNEL_STATE_SET_ALL(htim, HAL_TIM_CHANNEL_STATE_READY);
 8001a02:	687b      	ldr	r3, [r7, #4]
 8001a04:	2201      	movs	r2, #1
 8001a06:	f883 203e 	strb.w	r2, [r3, #62]	; 0x3e
 8001a0a:	687b      	ldr	r3, [r7, #4]
 8001a0c:	2201      	movs	r2, #1
 8001a0e:	f883 203f 	strb.w	r2, [r3, #63]	; 0x3f
 8001a12:	687b      	ldr	r3, [r7, #4]
 8001a14:	2201      	movs	r2, #1
 8001a16:	f883 2040 	strb.w	r2, [r3, #64]	; 0x40
 8001a1a:	687b      	ldr	r3, [r7, #4]
 8001a1c:	2201      	movs	r2, #1
 8001a1e:	f883 2041 	strb.w	r2, [r3, #65]	; 0x41
  TIM_CHANNEL_N_STATE_SET_ALL(htim, HAL_TIM_CHANNEL_STATE_READY);
 8001a22:	687b      	ldr	r3, [r7, #4]
 8001a24:	2201      	movs	r2, #1
 8001a26:	f883 2042 	strb.w	r2, [r3, #66]	; 0x42
 8001a2a:	687b      	ldr	r3, [r7, #4]
 8001a2c:	2201      	movs	r2, #1
 8001a2e:	f883 2043 	strb.w	r2, [r3, #67]	; 0x43
 8001a32:	687b      	ldr	r3, [r7, #4]
 8001a34:	2201      	movs	r2, #1
 8001a36:	f883 2044 	strb.w	r2, [r3, #68]	; 0x44
 8001a3a:	687b      	ldr	r3, [r7, #4]
 8001a3c:	2201      	movs	r2, #1
 8001a3e:	f883 2045 	strb.w	r2, [r3, #69]	; 0x45

  /* Initialize the TIM state*/
  htim->State = HAL_TIM_STATE_READY;
 8001a42:	687b      	ldr	r3, [r7, #4]
 8001a44:	2201      	movs	r2, #1
 8001a46:	f883 203d 	strb.w	r2, [r3, #61]	; 0x3d

  return HAL_OK;
 8001a4a:	2300      	movs	r3, #0
}
 8001a4c:	4618      	mov	r0, r3
 8001a4e:	3708      	adds	r7, #8
 8001a50:	46bd      	mov	sp, r7
 8001a52:	bd80      	pop	{r7, pc}

08001a54 <HAL_TIM_PWM_MspInit>:
  * @brief  Initializes the TIM PWM MSP.
  * @param  htim TIM PWM handle
  * @retval None
  */
__weak void HAL_TIM_PWM_MspInit(TIM_HandleTypeDef *htim)
{
 8001a54:	b480      	push	{r7}
 8001a56:	b083      	sub	sp, #12
 8001a58:	af00      	add	r7, sp, #0
 8001a5a:	6078      	str	r0, [r7, #4]
  UNUSED(htim);

  /* NOTE : This function should not be modified, when the callback is needed,
            the HAL_TIM_PWM_MspInit could be implemented in the user file
   */
}
 8001a5c:	bf00      	nop
 8001a5e:	370c      	adds	r7, #12
 8001a60:	46bd      	mov	sp, r7
 8001a62:	f85d 7b04 	ldr.w	r7, [sp], #4
 8001a66:	4770      	bx	lr

08001a68 <HAL_TIM_PWM_Start>:
  *            @arg TIM_CHANNEL_3: TIM Channel 3 selected
  *            @arg TIM_CHANNEL_4: TIM Channel 4 selected
  * @retval HAL status
  */
HAL_StatusTypeDef HAL_TIM_PWM_Start(TIM_HandleTypeDef *htim, uint32_t Channel)
{
 8001a68:	b580      	push	{r7, lr}
 8001a6a:	b084      	sub	sp, #16
 8001a6c:	af00      	add	r7, sp, #0
 8001a6e:	6078      	str	r0, [r7, #4]
 8001a70:	6039      	str	r1, [r7, #0]

  /* Check the parameters */
  assert_param(IS_TIM_CCX_INSTANCE(htim->Instance, Channel));

  /* Check the TIM channel state */
  if (TIM_CHANNEL_STATE_GET(htim, Channel) != HAL_TIM_CHANNEL_STATE_READY)
 8001a72:	683b      	ldr	r3, [r7, #0]
 8001a74:	2b00      	cmp	r3, #0
 8001a76:	d109      	bne.n	8001a8c <HAL_TIM_PWM_Start+0x24>
 8001a78:	687b      	ldr	r3, [r7, #4]
 8001a7a:	f893 303e 	ldrb.w	r3, [r3, #62]	; 0x3e
 8001a7e:	b2db      	uxtb	r3, r3
 8001a80:	2b01      	cmp	r3, #1
 8001a82:	bf14      	ite	ne
 8001a84:	2301      	movne	r3, #1
 8001a86:	2300      	moveq	r3, #0
 8001a88:	b2db      	uxtb	r3, r3
 8001a8a:	e022      	b.n	8001ad2 <HAL_TIM_PWM_Start+0x6a>
 8001a8c:	683b      	ldr	r3, [r7, #0]
 8001a8e:	2b04      	cmp	r3, #4
 8001a90:	d109      	bne.n	8001aa6 <HAL_TIM_PWM_Start+0x3e>
 8001a92:	687b      	ldr	r3, [r7, #4]
 8001a94:	f893 303f 	ldrb.w	r3, [r3, #63]	; 0x3f
 8001a98:	b2db      	uxtb	r3, r3
 8001a9a:	2b01      	cmp	r3, #1
 8001a9c:	bf14      	ite	ne
 8001a9e:	2301      	movne	r3, #1
 8001aa0:	2300      	moveq	r3, #0
 8001aa2:	b2db      	uxtb	r3, r3
 8001aa4:	e015      	b.n	8001ad2 <HAL_TIM_PWM_Start+0x6a>
 8001aa6:	683b      	ldr	r3, [r7, #0]
 8001aa8:	2b08      	cmp	r3, #8
 8001aaa:	d109      	bne.n	8001ac0 <HAL_TIM_PWM_Start+0x58>
 8001aac:	687b      	ldr	r3, [r7, #4]
 8001aae:	f893 3040 	ldrb.w	r3, [r3, #64]	; 0x40
 8001ab2:	b2db      	uxtb	r3, r3
 8001ab4:	2b01      	cmp	r3, #1
 8001ab6:	bf14      	ite	ne
 8001ab8:	2301      	movne	r3, #1
 8001aba:	2300      	moveq	r3, #0
 8001abc:	b2db      	uxtb	r3, r3
 8001abe:	e008      	b.n	8001ad2 <HAL_TIM_PWM_Start+0x6a>
 8001ac0:	687b      	ldr	r3, [r7, #4]
 8001ac2:	f893 3041 	ldrb.w	r3, [r3, #65]	; 0x41
 8001ac6:	b2db      	uxtb	r3, r3
 8001ac8:	2b01      	cmp	r3, #1
 8001aca:	bf14      	ite	ne
 8001acc:	2301      	movne	r3, #1
 8001ace:	2300      	moveq	r3, #0
 8001ad0:	b2db      	uxtb	r3, r3
 8001ad2:	2b00      	cmp	r3, #0
 8001ad4:	d001      	beq.n	8001ada <HAL_TIM_PWM_Start+0x72>
  {
    return HAL_ERROR;
 8001ad6:	2301      	movs	r3, #1
 8001ad8:	e068      	b.n	8001bac <HAL_TIM_PWM_Start+0x144>
  }

  /* Set the TIM channel state */
  TIM_CHANNEL_STATE_SET(htim, Channel, HAL_TIM_CHANNEL_STATE_BUSY);
 8001ada:	683b      	ldr	r3, [r7, #0]
 8001adc:	2b00      	cmp	r3, #0
 8001ade:	d104      	bne.n	8001aea <HAL_TIM_PWM_Start+0x82>
 8001ae0:	687b      	ldr	r3, [r7, #4]
 8001ae2:	2202      	movs	r2, #2
 8001ae4:	f883 203e 	strb.w	r2, [r3, #62]	; 0x3e
 8001ae8:	e013      	b.n	8001b12 <HAL_TIM_PWM_Start+0xaa>
 8001aea:	683b      	ldr	r3, [r7, #0]
 8001aec:	2b04      	cmp	r3, #4
 8001aee:	d104      	bne.n	8001afa <HAL_TIM_PWM_Start+0x92>
 8001af0:	687b      	ldr	r3, [r7, #4]
 8001af2:	2202      	movs	r2, #2
 8001af4:	f883 203f 	strb.w	r2, [r3, #63]	; 0x3f
 8001af8:	e00b      	b.n	8001b12 <HAL_TIM_PWM_Start+0xaa>
 8001afa:	683b      	ldr	r3, [r7, #0]
 8001afc:	2b08      	cmp	r3, #8
 8001afe:	d104      	bne.n	8001b0a <HAL_TIM_PWM_Start+0xa2>
 8001b00:	687b      	ldr	r3, [r7, #4]
 8001b02:	2202      	movs	r2, #2
 8001b04:	f883 2040 	strb.w	r2, [r3, #64]	; 0x40
 8001b08:	e003      	b.n	8001b12 <HAL_TIM_PWM_Start+0xaa>
 8001b0a:	687b      	ldr	r3, [r7, #4]
 8001b0c:	2202      	movs	r2, #2
 8001b0e:	f883 2041 	strb.w	r2, [r3, #65]	; 0x41

  /* Enable the Capture compare channel */
  TIM_CCxChannelCmd(htim->Instance, Channel, TIM_CCx_ENABLE);
 8001b12:	687b      	ldr	r3, [r7, #4]
 8001b14:	681b      	ldr	r3, [r3, #0]
 8001b16:	2201      	movs	r2, #1
 8001b18:	6839      	ldr	r1, [r7, #0]
 8001b1a:	4618      	mov	r0, r3
 8001b1c:	f000 fc84 	bl	8002428 <TIM_CCxChannelCmd>

  if (IS_TIM_BREAK_INSTANCE(htim->Instance) != RESET)
 8001b20:	687b      	ldr	r3, [r7, #4]
 8001b22:	681b      	ldr	r3, [r3, #0]
 8001b24:	4a23      	ldr	r2, [pc, #140]	; (8001bb4 <HAL_TIM_PWM_Start+0x14c>)
 8001b26:	4293      	cmp	r3, r2
 8001b28:	d107      	bne.n	8001b3a <HAL_TIM_PWM_Start+0xd2>
  {
    /* Enable the main output */
    __HAL_TIM_MOE_ENABLE(htim);
 8001b2a:	687b      	ldr	r3, [r7, #4]
 8001b2c:	681b      	ldr	r3, [r3, #0]
 8001b2e:	6c5a      	ldr	r2, [r3, #68]	; 0x44
 8001b30:	687b      	ldr	r3, [r7, #4]
 8001b32:	681b      	ldr	r3, [r3, #0]
 8001b34:	f442 4200 	orr.w	r2, r2, #32768	; 0x8000
 8001b38:	645a      	str	r2, [r3, #68]	; 0x44
  }

  /* Enable the Peripheral, except in trigger mode where enable is automatically done with trigger */
  if (IS_TIM_SLAVE_INSTANCE(htim->Instance))
 8001b3a:	687b      	ldr	r3, [r7, #4]
 8001b3c:	681b      	ldr	r3, [r3, #0]
 8001b3e:	4a1d      	ldr	r2, [pc, #116]	; (8001bb4 <HAL_TIM_PWM_Start+0x14c>)
 8001b40:	4293      	cmp	r3, r2
 8001b42:	d018      	beq.n	8001b76 <HAL_TIM_PWM_Start+0x10e>
 8001b44:	687b      	ldr	r3, [r7, #4]
 8001b46:	681b      	ldr	r3, [r3, #0]
 8001b48:	f1b3 4f80 	cmp.w	r3, #1073741824	; 0x40000000
 8001b4c:	d013      	beq.n	8001b76 <HAL_TIM_PWM_Start+0x10e>
 8001b4e:	687b      	ldr	r3, [r7, #4]
 8001b50:	681b      	ldr	r3, [r3, #0]
 8001b52:	4a19      	ldr	r2, [pc, #100]	; (8001bb8 <HAL_TIM_PWM_Start+0x150>)
 8001b54:	4293      	cmp	r3, r2
 8001b56:	d00e      	beq.n	8001b76 <HAL_TIM_PWM_Start+0x10e>
 8001b58:	687b      	ldr	r3, [r7, #4]
 8001b5a:	681b      	ldr	r3, [r3, #0]
 8001b5c:	4a17      	ldr	r2, [pc, #92]	; (8001bbc <HAL_TIM_PWM_Start+0x154>)
 8001b5e:	4293      	cmp	r3, r2
 8001b60:	d009      	beq.n	8001b76 <HAL_TIM_PWM_Start+0x10e>
 8001b62:	687b      	ldr	r3, [r7, #4]
 8001b64:	681b      	ldr	r3, [r3, #0]
 8001b66:	4a16      	ldr	r2, [pc, #88]	; (8001bc0 <HAL_TIM_PWM_Start+0x158>)
 8001b68:	4293      	cmp	r3, r2
 8001b6a:	d004      	beq.n	8001b76 <HAL_TIM_PWM_Start+0x10e>
 8001b6c:	687b      	ldr	r3, [r7, #4]
 8001b6e:	681b      	ldr	r3, [r3, #0]
 8001b70:	4a14      	ldr	r2, [pc, #80]	; (8001bc4 <HAL_TIM_PWM_Start+0x15c>)
 8001b72:	4293      	cmp	r3, r2
 8001b74:	d111      	bne.n	8001b9a <HAL_TIM_PWM_Start+0x132>
  {
    tmpsmcr = htim->Instance->SMCR & TIM_SMCR_SMS;
 8001b76:	687b      	ldr	r3, [r7, #4]
 8001b78:	681b      	ldr	r3, [r3, #0]
 8001b7a:	689b      	ldr	r3, [r3, #8]
 8001b7c:	f003 0307 	and.w	r3, r3, #7
 8001b80:	60fb      	str	r3, [r7, #12]
    if (!IS_TIM_SLAVEMODE_TRIGGER_ENABLED(tmpsmcr))
 8001b82:	68fb      	ldr	r3, [r7, #12]
 8001b84:	2b06      	cmp	r3, #6
 8001b86:	d010      	beq.n	8001baa <HAL_TIM_PWM_Start+0x142>
    {
      __HAL_TIM_ENABLE(htim);
 8001b88:	687b      	ldr	r3, [r7, #4]
 8001b8a:	681b      	ldr	r3, [r3, #0]
 8001b8c:	681a      	ldr	r2, [r3, #0]
 8001b8e:	687b      	ldr	r3, [r7, #4]
 8001b90:	681b      	ldr	r3, [r3, #0]
 8001b92:	f042 0201 	orr.w	r2, r2, #1
 8001b96:	601a      	str	r2, [r3, #0]
    if (!IS_TIM_SLAVEMODE_TRIGGER_ENABLED(tmpsmcr))
 8001b98:	e007      	b.n	8001baa <HAL_TIM_PWM_Start+0x142>
    }
  }
  else
  {
    __HAL_TIM_ENABLE(htim);
 8001b9a:	687b      	ldr	r3, [r7, #4]
 8001b9c:	681b      	ldr	r3, [r3, #0]
 8001b9e:	681a      	ldr	r2, [r3, #0]
 8001ba0:	687b      	ldr	r3, [r7, #4]
 8001ba2:	681b      	ldr	r3, [r3, #0]
 8001ba4:	f042 0201 	orr.w	r2, r2, #1
 8001ba8:	601a      	str	r2, [r3, #0]
  }

  /* Return function status */
  return HAL_OK;
 8001baa:	2300      	movs	r3, #0
}
 8001bac:	4618      	mov	r0, r3
 8001bae:	3710      	adds	r7, #16
 8001bb0:	46bd      	mov	sp, r7
 8001bb2:	bd80      	pop	{r7, pc}
 8001bb4:	40010000 	.word	0x40010000
 8001bb8:	40000400 	.word	0x40000400
 8001bbc:	40000800 	.word	0x40000800
 8001bc0:	40000c00 	.word	0x40000c00
 8001bc4:	40014000 	.word	0x40014000

08001bc8 <HAL_TIM_PWM_ConfigChannel>:
  * @retval HAL status
  */
HAL_StatusTypeDef HAL_TIM_PWM_ConfigChannel(TIM_HandleTypeDef *htim,
                                            TIM_OC_InitTypeDef *sConfig,
                                            uint32_t Channel)
{
 8001bc8:	b580      	push	{r7, lr}
 8001bca:	b086      	sub	sp, #24
 8001bcc:	af00      	add	r7, sp, #0
 8001bce:	60f8      	str	r0, [r7, #12]
 8001bd0:	60b9      	str	r1, [r7, #8]
 8001bd2:	607a      	str	r2, [r7, #4]
  HAL_StatusTypeDef status = HAL_OK;
 8001bd4:	2300      	movs	r3, #0
 8001bd6:	75fb      	strb	r3, [r7, #23]
  assert_param(IS_TIM_PWM_MODE(sConfig->OCMode));
  assert_param(IS_TIM_OC_POLARITY(sConfig->OCPolarity));
  assert_param(IS_TIM_FAST_STATE(sConfig->OCFastMode));

  /* Process Locked */
  __HAL_LOCK(htim);
 8001bd8:	68fb      	ldr	r3, [r7, #12]
 8001bda:	f893 303c 	ldrb.w	r3, [r3, #60]	; 0x3c
 8001bde:	2b01      	cmp	r3, #1
 8001be0:	d101      	bne.n	8001be6 <HAL_TIM_PWM_ConfigChannel+0x1e>
 8001be2:	2302      	movs	r3, #2
 8001be4:	e0ae      	b.n	8001d44 <HAL_TIM_PWM_ConfigChannel+0x17c>
 8001be6:	68fb      	ldr	r3, [r7, #12]
 8001be8:	2201      	movs	r2, #1
 8001bea:	f883 203c 	strb.w	r2, [r3, #60]	; 0x3c
 8001bee:	687b      	ldr	r3, [r7, #4]
 8001bf0:	2b0c      	cmp	r3, #12
 8001bf2:	f200 809f 	bhi.w	8001d34 <HAL_TIM_PWM_ConfigChannel+0x16c>
 8001bf6:	a201      	add	r2, pc, #4	; (adr r2, 8001bfc <HAL_TIM_PWM_ConfigChannel+0x34>)
 8001bf8:	f852 f023 	ldr.w	pc, [r2, r3, lsl #2]
 8001bfc:	08001c31 	.word	0x08001c31
 8001c00:	08001d35 	.word	0x08001d35
 8001c04:	08001d35 	.word	0x08001d35
 8001c08:	08001d35 	.word	0x08001d35
 8001c0c:	08001c71 	.word	0x08001c71
 8001c10:	08001d35 	.word	0x08001d35
 8001c14:	08001d35 	.word	0x08001d35
 8001c18:	08001d35 	.word	0x08001d35
 8001c1c:	08001cb3 	.word	0x08001cb3
 8001c20:	08001d35 	.word	0x08001d35
 8001c24:	08001d35 	.word	0x08001d35
 8001c28:	08001d35 	.word	0x08001d35
 8001c2c:	08001cf3 	.word	0x08001cf3
    {
      /* Check the parameters */
      assert_param(IS_TIM_CC1_INSTANCE(htim->Instance));

      /* Configure the Channel 1 in PWM mode */
      TIM_OC1_SetConfig(htim->Instance, sConfig);
 8001c30:	68fb      	ldr	r3, [r7, #12]
 8001c32:	681b      	ldr	r3, [r3, #0]
 8001c34:	68b9      	ldr	r1, [r7, #8]
 8001c36:	4618      	mov	r0, r3
 8001c38:	f000 f9d0 	bl	8001fdc <TIM_OC1_SetConfig>

      /* Set the Preload enable bit for channel1 */
      htim->Instance->CCMR1 |= TIM_CCMR1_OC1PE;
 8001c3c:	68fb      	ldr	r3, [r7, #12]
 8001c3e:	681b      	ldr	r3, [r3, #0]
 8001c40:	699a      	ldr	r2, [r3, #24]
 8001c42:	68fb      	ldr	r3, [r7, #12]
 8001c44:	681b      	ldr	r3, [r3, #0]
 8001c46:	f042 0208 	orr.w	r2, r2, #8
 8001c4a:	619a      	str	r2, [r3, #24]

      /* Configure the Output Fast mode */
      htim->Instance->CCMR1 &= ~TIM_CCMR1_OC1FE;
 8001c4c:	68fb      	ldr	r3, [r7, #12]
 8001c4e:	681b      	ldr	r3, [r3, #0]
 8001c50:	699a      	ldr	r2, [r3, #24]
 8001c52:	68fb      	ldr	r3, [r7, #12]
 8001c54:	681b      	ldr	r3, [r3, #0]
 8001c56:	f022 0204 	bic.w	r2, r2, #4
 8001c5a:	619a      	str	r2, [r3, #24]
      htim->Instance->CCMR1 |= sConfig->OCFastMode;
 8001c5c:	68fb      	ldr	r3, [r7, #12]
 8001c5e:	681b      	ldr	r3, [r3, #0]
 8001c60:	6999      	ldr	r1, [r3, #24]
 8001c62:	68bb      	ldr	r3, [r7, #8]
 8001c64:	691a      	ldr	r2, [r3, #16]
 8001c66:	68fb      	ldr	r3, [r7, #12]
 8001c68:	681b      	ldr	r3, [r3, #0]
 8001c6a:	430a      	orrs	r2, r1
 8001c6c:	619a      	str	r2, [r3, #24]
      break;
 8001c6e:	e064      	b.n	8001d3a <HAL_TIM_PWM_ConfigChannel+0x172>
    {
      /* Check the parameters */
      assert_param(IS_TIM_CC2_INSTANCE(htim->Instance));

      /* Configure the Channel 2 in PWM mode */
      TIM_OC2_SetConfig(htim->Instance, sConfig);
 8001c70:	68fb      	ldr	r3, [r7, #12]
 8001c72:	681b      	ldr	r3, [r3, #0]
 8001c74:	68b9      	ldr	r1, [r7, #8]
 8001c76:	4618      	mov	r0, r3
 8001c78:	f000 fa16 	bl	80020a8 <TIM_OC2_SetConfig>

      /* Set the Preload enable bit for channel2 */
      htim->Instance->CCMR1 |= TIM_CCMR1_OC2PE;
 8001c7c:	68fb      	ldr	r3, [r7, #12]
 8001c7e:	681b      	ldr	r3, [r3, #0]
 8001c80:	699a      	ldr	r2, [r3, #24]
 8001c82:	68fb      	ldr	r3, [r7, #12]
 8001c84:	681b      	ldr	r3, [r3, #0]
 8001c86:	f442 6200 	orr.w	r2, r2, #2048	; 0x800
 8001c8a:	619a      	str	r2, [r3, #24]

      /* Configure the Output Fast mode */
      htim->Instance->CCMR1 &= ~TIM_CCMR1_OC2FE;
 8001c8c:	68fb      	ldr	r3, [r7, #12]
 8001c8e:	681b      	ldr	r3, [r3, #0]
 8001c90:	699a      	ldr	r2, [r3, #24]
 8001c92:	68fb      	ldr	r3, [r7, #12]
 8001c94:	681b      	ldr	r3, [r3, #0]
 8001c96:	f422 6280 	bic.w	r2, r2, #1024	; 0x400
 8001c9a:	619a      	str	r2, [r3, #24]
      htim->Instance->CCMR1 |= sConfig->OCFastMode << 8U;
 8001c9c:	68fb      	ldr	r3, [r7, #12]
 8001c9e:	681b      	ldr	r3, [r3, #0]
 8001ca0:	6999      	ldr	r1, [r3, #24]
 8001ca2:	68bb      	ldr	r3, [r7, #8]
 8001ca4:	691b      	ldr	r3, [r3, #16]
 8001ca6:	021a      	lsls	r2, r3, #8
 8001ca8:	68fb      	ldr	r3, [r7, #12]
 8001caa:	681b      	ldr	r3, [r3, #0]
 8001cac:	430a      	orrs	r2, r1
 8001cae:	619a      	str	r2, [r3, #24]
      break;
 8001cb0:	e043      	b.n	8001d3a <HAL_TIM_PWM_ConfigChannel+0x172>
    {
      /* Check the parameters */
      assert_param(IS_TIM_CC3_INSTANCE(htim->Instance));

      /* Configure the Channel 3 in PWM mode */
      TIM_OC3_SetConfig(htim->Instance, sConfig);
 8001cb2:	68fb      	ldr	r3, [r7, #12]
 8001cb4:	681b      	ldr	r3, [r3, #0]
 8001cb6:	68b9      	ldr	r1, [r7, #8]
 8001cb8:	4618      	mov	r0, r3
 8001cba:	f000 fa61 	bl	8002180 <TIM_OC3_SetConfig>

      /* Set the Preload enable bit for channel3 */
      htim->Instance->CCMR2 |= TIM_CCMR2_OC3PE;
 8001cbe:	68fb      	ldr	r3, [r7, #12]
 8001cc0:	681b      	ldr	r3, [r3, #0]
 8001cc2:	69da      	ldr	r2, [r3, #28]
 8001cc4:	68fb      	ldr	r3, [r7, #12]
 8001cc6:	681b      	ldr	r3, [r3, #0]
 8001cc8:	f042 0208 	orr.w	r2, r2, #8
 8001ccc:	61da      	str	r2, [r3, #28]

      /* Configure the Output Fast mode */
      htim->Instance->CCMR2 &= ~TIM_CCMR2_OC3FE;
 8001cce:	68fb      	ldr	r3, [r7, #12]
 8001cd0:	681b      	ldr	r3, [r3, #0]
 8001cd2:	69da      	ldr	r2, [r3, #28]
 8001cd4:	68fb      	ldr	r3, [r7, #12]
 8001cd6:	681b      	ldr	r3, [r3, #0]
 8001cd8:	f022 0204 	bic.w	r2, r2, #4
 8001cdc:	61da      	str	r2, [r3, #28]
      htim->Instance->CCMR2 |= sConfig->OCFastMode;
 8001cde:	68fb      	ldr	r3, [r7, #12]
 8001ce0:	681b      	ldr	r3, [r3, #0]
 8001ce2:	69d9      	ldr	r1, [r3, #28]
 8001ce4:	68bb      	ldr	r3, [r7, #8]
 8001ce6:	691a      	ldr	r2, [r3, #16]
 8001ce8:	68fb      	ldr	r3, [r7, #12]
 8001cea:	681b      	ldr	r3, [r3, #0]
 8001cec:	430a      	orrs	r2, r1
 8001cee:	61da      	str	r2, [r3, #28]
      break;
 8001cf0:	e023      	b.n	8001d3a <HAL_TIM_PWM_ConfigChannel+0x172>
    {
      /* Check the parameters */
      assert_param(IS_TIM_CC4_INSTANCE(htim->Instance));

      /* Configure the Channel 4 in PWM mode */
      TIM_OC4_SetConfig(htim->Instance, sConfig);
 8001cf2:	68fb      	ldr	r3, [r7, #12]
 8001cf4:	681b      	ldr	r3, [r3, #0]
 8001cf6:	68b9      	ldr	r1, [r7, #8]
 8001cf8:	4618      	mov	r0, r3
 8001cfa:	f000 faab 	bl	8002254 <TIM_OC4_SetConfig>

      /* Set the Preload enable bit for channel4 */
      htim->Instance->CCMR2 |= TIM_CCMR2_OC4PE;
 8001cfe:	68fb      	ldr	r3, [r7, #12]
 8001d00:	681b      	ldr	r3, [r3, #0]
 8001d02:	69da      	ldr	r2, [r3, #28]
 8001d04:	68fb      	ldr	r3, [r7, #12]
 8001d06:	681b      	ldr	r3, [r3, #0]
 8001d08:	f442 6200 	orr.w	r2, r2, #2048	; 0x800
 8001d0c:	61da      	str	r2, [r3, #28]

      /* Configure the Output Fast mode */
      htim->Instance->CCMR2 &= ~TIM_CCMR2_OC4FE;
 8001d0e:	68fb      	ldr	r3, [r7, #12]
 8001d10:	681b      	ldr	r3, [r3, #0]
 8001d12:	69da      	ldr	r2, [r3, #28]
 8001d14:	68fb      	ldr	r3, [r7, #12]
 8001d16:	681b      	ldr	r3, [r3, #0]
 8001d18:	f422 6280 	bic.w	r2, r2, #1024	; 0x400
 8001d1c:	61da      	str	r2, [r3, #28]
      htim->Instance->CCMR2 |= sConfig->OCFastMode << 8U;
 8001d1e:	68fb      	ldr	r3, [r7, #12]
 8001d20:	681b      	ldr	r3, [r3, #0]
 8001d22:	69d9      	ldr	r1, [r3, #28]
 8001d24:	68bb      	ldr	r3, [r7, #8]
 8001d26:	691b      	ldr	r3, [r3, #16]
 8001d28:	021a      	lsls	r2, r3, #8
 8001d2a:	68fb      	ldr	r3, [r7, #12]
 8001d2c:	681b      	ldr	r3, [r3, #0]
 8001d2e:	430a      	orrs	r2, r1
 8001d30:	61da      	str	r2, [r3, #28]
      break;
 8001d32:	e002      	b.n	8001d3a <HAL_TIM_PWM_ConfigChannel+0x172>
    }

    default:
      status = HAL_ERROR;
 8001d34:	2301      	movs	r3, #1
 8001d36:	75fb      	strb	r3, [r7, #23]
      break;
 8001d38:	bf00      	nop
  }

  __HAL_UNLOCK(htim);
 8001d3a:	68fb      	ldr	r3, [r7, #12]
 8001d3c:	2200      	movs	r2, #0
 8001d3e:	f883 203c 	strb.w	r2, [r3, #60]	; 0x3c

  return status;
 8001d42:	7dfb      	ldrb	r3, [r7, #23]
}
 8001d44:	4618      	mov	r0, r3
 8001d46:	3718      	adds	r7, #24
 8001d48:	46bd      	mov	sp, r7
 8001d4a:	bd80      	pop	{r7, pc}

08001d4c <HAL_TIM_ConfigClockSource>:
  * @param  sClockSourceConfig pointer to a TIM_ClockConfigTypeDef structure that
  *         contains the clock source information for the TIM peripheral.
  * @retval HAL status
  */
HAL_StatusTypeDef HAL_TIM_ConfigClockSource(TIM_HandleTypeDef *htim, TIM_ClockConfigTypeDef *sClockSourceConfig)
{
 8001d4c:	b580      	push	{r7, lr}
 8001d4e:	b084      	sub	sp, #16
 8001d50:	af00      	add	r7, sp, #0
 8001d52:	6078      	str	r0, [r7, #4]
 8001d54:	6039      	str	r1, [r7, #0]
  HAL_StatusTypeDef status = HAL_OK;
 8001d56:	2300      	movs	r3, #0
 8001d58:	73fb      	strb	r3, [r7, #15]
  uint32_t tmpsmcr;

  /* Process Locked */
  __HAL_LOCK(htim);
 8001d5a:	687b      	ldr	r3, [r7, #4]
 8001d5c:	f893 303c 	ldrb.w	r3, [r3, #60]	; 0x3c
 8001d60:	2b01      	cmp	r3, #1
 8001d62:	d101      	bne.n	8001d68 <HAL_TIM_ConfigClockSource+0x1c>
 8001d64:	2302      	movs	r3, #2
 8001d66:	e0b4      	b.n	8001ed2 <HAL_TIM_ConfigClockSource+0x186>
 8001d68:	687b      	ldr	r3, [r7, #4]
 8001d6a:	2201      	movs	r2, #1
 8001d6c:	f883 203c 	strb.w	r2, [r3, #60]	; 0x3c

  htim->State = HAL_TIM_STATE_BUSY;
 8001d70:	687b      	ldr	r3, [r7, #4]
 8001d72:	2202      	movs	r2, #2
 8001d74:	f883 203d 	strb.w	r2, [r3, #61]	; 0x3d

  /* Check the parameters */
  assert_param(IS_TIM_CLOCKSOURCE(sClockSourceConfig->ClockSource));

  /* Reset the SMS, TS, ECE, ETPS and ETRF bits */
  tmpsmcr = htim->Instance->SMCR;
 8001d78:	687b      	ldr	r3, [r7, #4]
 8001d7a:	681b      	ldr	r3, [r3, #0]
 8001d7c:	689b      	ldr	r3, [r3, #8]
 8001d7e:	60bb      	str	r3, [r7, #8]
  tmpsmcr &= ~(TIM_SMCR_SMS | TIM_SMCR_TS);
 8001d80:	68bb      	ldr	r3, [r7, #8]
 8001d82:	f023 0377 	bic.w	r3, r3, #119	; 0x77
 8001d86:	60bb      	str	r3, [r7, #8]
  tmpsmcr &= ~(TIM_SMCR_ETF | TIM_SMCR_ETPS | TIM_SMCR_ECE | TIM_SMCR_ETP);
 8001d88:	68bb      	ldr	r3, [r7, #8]
 8001d8a:	f423 437f 	bic.w	r3, r3, #65280	; 0xff00
 8001d8e:	60bb      	str	r3, [r7, #8]
  htim->Instance->SMCR = tmpsmcr;
 8001d90:	687b      	ldr	r3, [r7, #4]
 8001d92:	681b      	ldr	r3, [r3, #0]
 8001d94:	68ba      	ldr	r2, [r7, #8]
 8001d96:	609a      	str	r2, [r3, #8]

  switch (sClockSourceConfig->ClockSource)
 8001d98:	683b      	ldr	r3, [r7, #0]
 8001d9a:	681b      	ldr	r3, [r3, #0]
 8001d9c:	f5b3 5f00 	cmp.w	r3, #8192	; 0x2000
 8001da0:	d03e      	beq.n	8001e20 <HAL_TIM_ConfigClockSource+0xd4>
 8001da2:	f5b3 5f00 	cmp.w	r3, #8192	; 0x2000
 8001da6:	f200 8087 	bhi.w	8001eb8 <HAL_TIM_ConfigClockSource+0x16c>
 8001daa:	f5b3 5f80 	cmp.w	r3, #4096	; 0x1000
 8001dae:	f000 8086 	beq.w	8001ebe <HAL_TIM_ConfigClockSource+0x172>
 8001db2:	f5b3 5f80 	cmp.w	r3, #4096	; 0x1000
 8001db6:	d87f      	bhi.n	8001eb8 <HAL_TIM_ConfigClockSource+0x16c>
 8001db8:	2b70      	cmp	r3, #112	; 0x70
 8001dba:	d01a      	beq.n	8001df2 <HAL_TIM_ConfigClockSource+0xa6>
 8001dbc:	2b70      	cmp	r3, #112	; 0x70
 8001dbe:	d87b      	bhi.n	8001eb8 <HAL_TIM_ConfigClockSource+0x16c>
 8001dc0:	2b60      	cmp	r3, #96	; 0x60
 8001dc2:	d050      	beq.n	8001e66 <HAL_TIM_ConfigClockSource+0x11a>
 8001dc4:	2b60      	cmp	r3, #96	; 0x60
 8001dc6:	d877      	bhi.n	8001eb8 <HAL_TIM_ConfigClockSource+0x16c>
 8001dc8:	2b50      	cmp	r3, #80	; 0x50
 8001dca:	d03c      	beq.n	8001e46 <HAL_TIM_ConfigClockSource+0xfa>
 8001dcc:	2b50      	cmp	r3, #80	; 0x50
 8001dce:	d873      	bhi.n	8001eb8 <HAL_TIM_ConfigClockSource+0x16c>
 8001dd0:	2b40      	cmp	r3, #64	; 0x40
 8001dd2:	d058      	beq.n	8001e86 <HAL_TIM_ConfigClockSource+0x13a>
 8001dd4:	2b40      	cmp	r3, #64	; 0x40
 8001dd6:	d86f      	bhi.n	8001eb8 <HAL_TIM_ConfigClockSource+0x16c>
 8001dd8:	2b30      	cmp	r3, #48	; 0x30
 8001dda:	d064      	beq.n	8001ea6 <HAL_TIM_ConfigClockSource+0x15a>
 8001ddc:	2b30      	cmp	r3, #48	; 0x30
 8001dde:	d86b      	bhi.n	8001eb8 <HAL_TIM_ConfigClockSource+0x16c>
 8001de0:	2b20      	cmp	r3, #32
 8001de2:	d060      	beq.n	8001ea6 <HAL_TIM_ConfigClockSource+0x15a>
 8001de4:	2b20      	cmp	r3, #32
 8001de6:	d867      	bhi.n	8001eb8 <HAL_TIM_ConfigClockSource+0x16c>
 8001de8:	2b00      	cmp	r3, #0
 8001dea:	d05c      	beq.n	8001ea6 <HAL_TIM_ConfigClockSource+0x15a>
 8001dec:	2b10      	cmp	r3, #16
 8001dee:	d05a      	beq.n	8001ea6 <HAL_TIM_ConfigClockSource+0x15a>
 8001df0:	e062      	b.n	8001eb8 <HAL_TIM_ConfigClockSource+0x16c>
      assert_param(IS_TIM_CLOCKPRESCALER(sClockSourceConfig->ClockPrescaler));
      assert_param(IS_TIM_CLOCKPOLARITY(sClockSourceConfig->ClockPolarity));
      assert_param(IS_TIM_CLOCKFILTER(sClockSourceConfig->ClockFilter));

      /* Configure the ETR Clock source */
      TIM_ETR_SetConfig(htim->Instance,
 8001df2:	687b      	ldr	r3, [r7, #4]
 8001df4:	6818      	ldr	r0, [r3, #0]
 8001df6:	683b      	ldr	r3, [r7, #0]
 8001df8:	6899      	ldr	r1, [r3, #8]
 8001dfa:	683b      	ldr	r3, [r7, #0]
 8001dfc:	685a      	ldr	r2, [r3, #4]
 8001dfe:	683b      	ldr	r3, [r7, #0]
 8001e00:	68db      	ldr	r3, [r3, #12]
 8001e02:	f000 faf1 	bl	80023e8 <TIM_ETR_SetConfig>
                        sClockSourceConfig->ClockPrescaler,
                        sClockSourceConfig->ClockPolarity,
                        sClockSourceConfig->ClockFilter);

      /* Select the External clock mode1 and the ETRF trigger */
      tmpsmcr = htim->Instance->SMCR;
 8001e06:	687b      	ldr	r3, [r7, #4]
 8001e08:	681b      	ldr	r3, [r3, #0]
 8001e0a:	689b      	ldr	r3, [r3, #8]
 8001e0c:	60bb      	str	r3, [r7, #8]
      tmpsmcr |= (TIM_SLAVEMODE_EXTERNAL1 | TIM_CLOCKSOURCE_ETRMODE1);
 8001e0e:	68bb      	ldr	r3, [r7, #8]
 8001e10:	f043 0377 	orr.w	r3, r3, #119	; 0x77
 8001e14:	60bb      	str	r3, [r7, #8]
      /* Write to TIMx SMCR */
      htim->Instance->SMCR = tmpsmcr;
 8001e16:	687b      	ldr	r3, [r7, #4]
 8001e18:	681b      	ldr	r3, [r3, #0]
 8001e1a:	68ba      	ldr	r2, [r7, #8]
 8001e1c:	609a      	str	r2, [r3, #8]
      break;
 8001e1e:	e04f      	b.n	8001ec0 <HAL_TIM_ConfigClockSource+0x174>
      assert_param(IS_TIM_CLOCKPRESCALER(sClockSourceConfig->ClockPrescaler));
      assert_param(IS_TIM_CLOCKPOLARITY(sClockSourceConfig->ClockPolarity));
      assert_param(IS_TIM_CLOCKFILTER(sClockSourceConfig->ClockFilter));

      /* Configure the ETR Clock source */
      TIM_ETR_SetConfig(htim->Instance,
 8001e20:	687b      	ldr	r3, [r7, #4]
 8001e22:	6818      	ldr	r0, [r3, #0]
 8001e24:	683b      	ldr	r3, [r7, #0]
 8001e26:	6899      	ldr	r1, [r3, #8]
 8001e28:	683b      	ldr	r3, [r7, #0]
 8001e2a:	685a      	ldr	r2, [r3, #4]
 8001e2c:	683b      	ldr	r3, [r7, #0]
 8001e2e:	68db      	ldr	r3, [r3, #12]
 8001e30:	f000 fada 	bl	80023e8 <TIM_ETR_SetConfig>
                        sClockSourceConfig->ClockPrescaler,
                        sClockSourceConfig->ClockPolarity,
                        sClockSourceConfig->ClockFilter);
      /* Enable the External clock mode2 */
      htim->Instance->SMCR |= TIM_SMCR_ECE;
 8001e34:	687b      	ldr	r3, [r7, #4]
 8001e36:	681b      	ldr	r3, [r3, #0]
 8001e38:	689a      	ldr	r2, [r3, #8]
 8001e3a:	687b      	ldr	r3, [r7, #4]
 8001e3c:	681b      	ldr	r3, [r3, #0]
 8001e3e:	f442 4280 	orr.w	r2, r2, #16384	; 0x4000
 8001e42:	609a      	str	r2, [r3, #8]
      break;
 8001e44:	e03c      	b.n	8001ec0 <HAL_TIM_ConfigClockSource+0x174>

      /* Check TI1 input conditioning related parameters */
      assert_param(IS_TIM_CLOCKPOLARITY(sClockSourceConfig->ClockPolarity));
      assert_param(IS_TIM_CLOCKFILTER(sClockSourceConfig->ClockFilter));

      TIM_TI1_ConfigInputStage(htim->Instance,
 8001e46:	687b      	ldr	r3, [r7, #4]
 8001e48:	6818      	ldr	r0, [r3, #0]
 8001e4a:	683b      	ldr	r3, [r7, #0]
 8001e4c:	6859      	ldr	r1, [r3, #4]
 8001e4e:	683b      	ldr	r3, [r7, #0]
 8001e50:	68db      	ldr	r3, [r3, #12]
 8001e52:	461a      	mov	r2, r3
 8001e54:	f000 fa4e 	bl	80022f4 <TIM_TI1_ConfigInputStage>
                               sClockSourceConfig->ClockPolarity,
                               sClockSourceConfig->ClockFilter);
      TIM_ITRx_SetConfig(htim->Instance, TIM_CLOCKSOURCE_TI1);
 8001e58:	687b      	ldr	r3, [r7, #4]
 8001e5a:	681b      	ldr	r3, [r3, #0]
 8001e5c:	2150      	movs	r1, #80	; 0x50
 8001e5e:	4618      	mov	r0, r3
 8001e60:	f000 faa7 	bl	80023b2 <TIM_ITRx_SetConfig>
      break;
 8001e64:	e02c      	b.n	8001ec0 <HAL_TIM_ConfigClockSource+0x174>

      /* Check TI2 input conditioning related parameters */
      assert_param(IS_TIM_CLOCKPOLARITY(sClockSourceConfig->ClockPolarity));
      assert_param(IS_TIM_CLOCKFILTER(sClockSourceConfig->ClockFilter));

      TIM_TI2_ConfigInputStage(htim->Instance,
 8001e66:	687b      	ldr	r3, [r7, #4]
 8001e68:	6818      	ldr	r0, [r3, #0]
 8001e6a:	683b      	ldr	r3, [r7, #0]
 8001e6c:	6859      	ldr	r1, [r3, #4]
 8001e6e:	683b      	ldr	r3, [r7, #0]
 8001e70:	68db      	ldr	r3, [r3, #12]
 8001e72:	461a      	mov	r2, r3
 8001e74:	f000 fa6d 	bl	8002352 <TIM_TI2_ConfigInputStage>
                               sClockSourceConfig->ClockPolarity,
                               sClockSourceConfig->ClockFilter);
      TIM_ITRx_SetConfig(htim->Instance, TIM_CLOCKSOURCE_TI2);
 8001e78:	687b      	ldr	r3, [r7, #4]
 8001e7a:	681b      	ldr	r3, [r3, #0]
 8001e7c:	2160      	movs	r1, #96	; 0x60
 8001e7e:	4618      	mov	r0, r3
 8001e80:	f000 fa97 	bl	80023b2 <TIM_ITRx_SetConfig>
      break;
 8001e84:	e01c      	b.n	8001ec0 <HAL_TIM_ConfigClockSource+0x174>

      /* Check TI1 input conditioning related parameters */
      assert_param(IS_TIM_CLOCKPOLARITY(sClockSourceConfig->ClockPolarity));
      assert_param(IS_TIM_CLOCKFILTER(sClockSourceConfig->ClockFilter));

      TIM_TI1_ConfigInputStage(htim->Instance,
 8001e86:	687b      	ldr	r3, [r7, #4]
 8001e88:	6818      	ldr	r0, [r3, #0]
 8001e8a:	683b      	ldr	r3, [r7, #0]
 8001e8c:	6859      	ldr	r1, [r3, #4]
 8001e8e:	683b      	ldr	r3, [r7, #0]
 8001e90:	68db      	ldr	r3, [r3, #12]
 8001e92:	461a      	mov	r2, r3
 8001e94:	f000 fa2e 	bl	80022f4 <TIM_TI1_ConfigInputStage>
                               sClockSourceConfig->ClockPolarity,
                               sClockSourceConfig->ClockFilter);
      TIM_ITRx_SetConfig(htim->Instance, TIM_CLOCKSOURCE_TI1ED);
 8001e98:	687b      	ldr	r3, [r7, #4]
 8001e9a:	681b      	ldr	r3, [r3, #0]
 8001e9c:	2140      	movs	r1, #64	; 0x40
 8001e9e:	4618      	mov	r0, r3
 8001ea0:	f000 fa87 	bl	80023b2 <TIM_ITRx_SetConfig>
      break;
 8001ea4:	e00c      	b.n	8001ec0 <HAL_TIM_ConfigClockSource+0x174>
    case TIM_CLOCKSOURCE_ITR3:
    {
      /* Check whether or not the timer instance supports internal trigger input */
      assert_param(IS_TIM_CLOCKSOURCE_ITRX_INSTANCE(htim->Instance));

      TIM_ITRx_SetConfig(htim->Instance, sClockSourceConfig->ClockSource);
 8001ea6:	687b      	ldr	r3, [r7, #4]
 8001ea8:	681a      	ldr	r2, [r3, #0]
 8001eaa:	683b      	ldr	r3, [r7, #0]
 8001eac:	681b      	ldr	r3, [r3, #0]
 8001eae:	4619      	mov	r1, r3
 8001eb0:	4610      	mov	r0, r2
 8001eb2:	f000 fa7e 	bl	80023b2 <TIM_ITRx_SetConfig>
      break;
 8001eb6:	e003      	b.n	8001ec0 <HAL_TIM_ConfigClockSource+0x174>
    }

    default:
      status = HAL_ERROR;
 8001eb8:	2301      	movs	r3, #1
 8001eba:	73fb      	strb	r3, [r7, #15]
      break;
 8001ebc:	e000      	b.n	8001ec0 <HAL_TIM_ConfigClockSource+0x174>
      break;
 8001ebe:	bf00      	nop
  }
  htim->State = HAL_TIM_STATE_READY;
 8001ec0:	687b      	ldr	r3, [r7, #4]
 8001ec2:	2201      	movs	r2, #1
 8001ec4:	f883 203d 	strb.w	r2, [r3, #61]	; 0x3d

  __HAL_UNLOCK(htim);
 8001ec8:	687b      	ldr	r3, [r7, #4]
 8001eca:	2200      	movs	r2, #0
 8001ecc:	f883 203c 	strb.w	r2, [r3, #60]	; 0x3c

  return status;
 8001ed0:	7bfb      	ldrb	r3, [r7, #15]
}
 8001ed2:	4618      	mov	r0, r3
 8001ed4:	3710      	adds	r7, #16
 8001ed6:	46bd      	mov	sp, r7
 8001ed8:	bd80      	pop	{r7, pc}
	...

08001edc <TIM_Base_SetConfig>:
  * @param  TIMx TIM peripheral
  * @param  Structure TIM Base configuration structure
  * @retval None
  */
void TIM_Base_SetConfig(TIM_TypeDef *TIMx, TIM_Base_InitTypeDef *Structure)
{
 8001edc:	b480      	push	{r7}
 8001ede:	b085      	sub	sp, #20
 8001ee0:	af00      	add	r7, sp, #0
 8001ee2:	6078      	str	r0, [r7, #4]
 8001ee4:	6039      	str	r1, [r7, #0]
  uint32_t tmpcr1;
  tmpcr1 = TIMx->CR1;
 8001ee6:	687b      	ldr	r3, [r7, #4]
 8001ee8:	681b      	ldr	r3, [r3, #0]
 8001eea:	60fb      	str	r3, [r7, #12]

  /* Set TIM Time Base Unit parameters ---------------------------------------*/
  if (IS_TIM_COUNTER_MODE_SELECT_INSTANCE(TIMx))
 8001eec:	687b      	ldr	r3, [r7, #4]
 8001eee:	4a34      	ldr	r2, [pc, #208]	; (8001fc0 <TIM_Base_SetConfig+0xe4>)
 8001ef0:	4293      	cmp	r3, r2
 8001ef2:	d00f      	beq.n	8001f14 <TIM_Base_SetConfig+0x38>
 8001ef4:	687b      	ldr	r3, [r7, #4]
 8001ef6:	f1b3 4f80 	cmp.w	r3, #1073741824	; 0x40000000
 8001efa:	d00b      	beq.n	8001f14 <TIM_Base_SetConfig+0x38>
 8001efc:	687b      	ldr	r3, [r7, #4]
 8001efe:	4a31      	ldr	r2, [pc, #196]	; (8001fc4 <TIM_Base_SetConfig+0xe8>)
 8001f00:	4293      	cmp	r3, r2
 8001f02:	d007      	beq.n	8001f14 <TIM_Base_SetConfig+0x38>
 8001f04:	687b      	ldr	r3, [r7, #4]
 8001f06:	4a30      	ldr	r2, [pc, #192]	; (8001fc8 <TIM_Base_SetConfig+0xec>)
 8001f08:	4293      	cmp	r3, r2
 8001f0a:	d003      	beq.n	8001f14 <TIM_Base_SetConfig+0x38>
 8001f0c:	687b      	ldr	r3, [r7, #4]
 8001f0e:	4a2f      	ldr	r2, [pc, #188]	; (8001fcc <TIM_Base_SetConfig+0xf0>)
 8001f10:	4293      	cmp	r3, r2
 8001f12:	d108      	bne.n	8001f26 <TIM_Base_SetConfig+0x4a>
  {
    /* Select the Counter Mode */
    tmpcr1 &= ~(TIM_CR1_DIR | TIM_CR1_CMS);
 8001f14:	68fb      	ldr	r3, [r7, #12]
 8001f16:	f023 0370 	bic.w	r3, r3, #112	; 0x70
 8001f1a:	60fb      	str	r3, [r7, #12]
    tmpcr1 |= Structure->CounterMode;
 8001f1c:	683b      	ldr	r3, [r7, #0]
 8001f1e:	685b      	ldr	r3, [r3, #4]
 8001f20:	68fa      	ldr	r2, [r7, #12]
 8001f22:	4313      	orrs	r3, r2
 8001f24:	60fb      	str	r3, [r7, #12]
  }

  if (IS_TIM_CLOCK_DIVISION_INSTANCE(TIMx))
 8001f26:	687b      	ldr	r3, [r7, #4]
 8001f28:	4a25      	ldr	r2, [pc, #148]	; (8001fc0 <TIM_Base_SetConfig+0xe4>)
 8001f2a:	4293      	cmp	r3, r2
 8001f2c:	d01b      	beq.n	8001f66 <TIM_Base_SetConfig+0x8a>
 8001f2e:	687b      	ldr	r3, [r7, #4]
 8001f30:	f1b3 4f80 	cmp.w	r3, #1073741824	; 0x40000000
 8001f34:	d017      	beq.n	8001f66 <TIM_Base_SetConfig+0x8a>
 8001f36:	687b      	ldr	r3, [r7, #4]
 8001f38:	4a22      	ldr	r2, [pc, #136]	; (8001fc4 <TIM_Base_SetConfig+0xe8>)
 8001f3a:	4293      	cmp	r3, r2
 8001f3c:	d013      	beq.n	8001f66 <TIM_Base_SetConfig+0x8a>
 8001f3e:	687b      	ldr	r3, [r7, #4]
 8001f40:	4a21      	ldr	r2, [pc, #132]	; (8001fc8 <TIM_Base_SetConfig+0xec>)
 8001f42:	4293      	cmp	r3, r2
 8001f44:	d00f      	beq.n	8001f66 <TIM_Base_SetConfig+0x8a>
 8001f46:	687b      	ldr	r3, [r7, #4]
 8001f48:	4a20      	ldr	r2, [pc, #128]	; (8001fcc <TIM_Base_SetConfig+0xf0>)
 8001f4a:	4293      	cmp	r3, r2
 8001f4c:	d00b      	beq.n	8001f66 <TIM_Base_SetConfig+0x8a>
 8001f4e:	687b      	ldr	r3, [r7, #4]
 8001f50:	4a1f      	ldr	r2, [pc, #124]	; (8001fd0 <TIM_Base_SetConfig+0xf4>)
 8001f52:	4293      	cmp	r3, r2
 8001f54:	d007      	beq.n	8001f66 <TIM_Base_SetConfig+0x8a>
 8001f56:	687b      	ldr	r3, [r7, #4]
 8001f58:	4a1e      	ldr	r2, [pc, #120]	; (8001fd4 <TIM_Base_SetConfig+0xf8>)
 8001f5a:	4293      	cmp	r3, r2
 8001f5c:	d003      	beq.n	8001f66 <TIM_Base_SetConfig+0x8a>
 8001f5e:	687b      	ldr	r3, [r7, #4]
 8001f60:	4a1d      	ldr	r2, [pc, #116]	; (8001fd8 <TIM_Base_SetConfig+0xfc>)
 8001f62:	4293      	cmp	r3, r2
 8001f64:	d108      	bne.n	8001f78 <TIM_Base_SetConfig+0x9c>
  {
    /* Set the clock division */
    tmpcr1 &= ~TIM_CR1_CKD;
 8001f66:	68fb      	ldr	r3, [r7, #12]
 8001f68:	f423 7340 	bic.w	r3, r3, #768	; 0x300
 8001f6c:	60fb      	str	r3, [r7, #12]
    tmpcr1 |= (uint32_t)Structure->ClockDivision;
 8001f6e:	683b      	ldr	r3, [r7, #0]
 8001f70:	68db      	ldr	r3, [r3, #12]
 8001f72:	68fa      	ldr	r2, [r7, #12]
 8001f74:	4313      	orrs	r3, r2
 8001f76:	60fb      	str	r3, [r7, #12]
  }

  /* Set the auto-reload preload */
  MODIFY_REG(tmpcr1, TIM_CR1_ARPE, Structure->AutoReloadPreload);
 8001f78:	68fb      	ldr	r3, [r7, #12]
 8001f7a:	f023 0280 	bic.w	r2, r3, #128	; 0x80
 8001f7e:	683b      	ldr	r3, [r7, #0]
 8001f80:	695b      	ldr	r3, [r3, #20]
 8001f82:	4313      	orrs	r3, r2
 8001f84:	60fb      	str	r3, [r7, #12]

  TIMx->CR1 = tmpcr1;
 8001f86:	687b      	ldr	r3, [r7, #4]
 8001f88:	68fa      	ldr	r2, [r7, #12]
 8001f8a:	601a      	str	r2, [r3, #0]

  /* Set the Autoreload value */
  TIMx->ARR = (uint32_t)Structure->Period ;
 8001f8c:	683b      	ldr	r3, [r7, #0]
 8001f8e:	689a      	ldr	r2, [r3, #8]
 8001f90:	687b      	ldr	r3, [r7, #4]
 8001f92:	62da      	str	r2, [r3, #44]	; 0x2c

  /* Set the Prescaler value */
  TIMx->PSC = Structure->Prescaler;
 8001f94:	683b      	ldr	r3, [r7, #0]
 8001f96:	681a      	ldr	r2, [r3, #0]
 8001f98:	687b      	ldr	r3, [r7, #4]
 8001f9a:	629a      	str	r2, [r3, #40]	; 0x28

  if (IS_TIM_REPETITION_COUNTER_INSTANCE(TIMx))
 8001f9c:	687b      	ldr	r3, [r7, #4]
 8001f9e:	4a08      	ldr	r2, [pc, #32]	; (8001fc0 <TIM_Base_SetConfig+0xe4>)
 8001fa0:	4293      	cmp	r3, r2
 8001fa2:	d103      	bne.n	8001fac <TIM_Base_SetConfig+0xd0>
  {
    /* Set the Repetition Counter value */
    TIMx->RCR = Structure->RepetitionCounter;
 8001fa4:	683b      	ldr	r3, [r7, #0]
 8001fa6:	691a      	ldr	r2, [r3, #16]
 8001fa8:	687b      	ldr	r3, [r7, #4]
 8001faa:	631a      	str	r2, [r3, #48]	; 0x30
  }

  /* Generate an update event to reload the Prescaler
     and the repetition counter (only for advanced timer) value immediately */
  TIMx->EGR = TIM_EGR_UG;
 8001fac:	687b      	ldr	r3, [r7, #4]
 8001fae:	2201      	movs	r2, #1
 8001fb0:	615a      	str	r2, [r3, #20]
}
 8001fb2:	bf00      	nop
 8001fb4:	3714      	adds	r7, #20
 8001fb6:	46bd      	mov	sp, r7
 8001fb8:	f85d 7b04 	ldr.w	r7, [sp], #4
 8001fbc:	4770      	bx	lr
 8001fbe:	bf00      	nop
 8001fc0:	40010000 	.word	0x40010000
 8001fc4:	40000400 	.word	0x40000400
 8001fc8:	40000800 	.word	0x40000800
 8001fcc:	40000c00 	.word	0x40000c00
 8001fd0:	40014000 	.word	0x40014000
 8001fd4:	40014400 	.word	0x40014400
 8001fd8:	40014800 	.word	0x40014800

08001fdc <TIM_OC1_SetConfig>:
  * @param  TIMx to select the TIM peripheral
